:020000040800F2
:1000000000040020C1010008A9030008250300081E
:10001000A5030008150200082D06000800000000D6
:1000200000000000000000000000000019050008AA
:100030001902000800000000E50400081D05000882
:10004000DB0100087D040008DB010008DB0100087B
:10005000DB010008DB010008DB010008DB01000810
:10006000DB010008DB010008DB010008DB01000800
:10007000DB010008DB010008DB010008DB010008F0
:10008000DB010008DB010008DB010008DB010008E0
:10009000DB010008DB010008DB010008DB010008D0
:1000A000DB010008DB010008DB010008DB010008C0
:1000B000DB010008DB010008DB010008DB010008B0
:1000C000DB010008DB010008DB010008DB010008A0
:1000D000DB010008DB010008DB010008DB01000890
:1000E000DB010008DB010008DB010008DB01000880
:1000F000DB010008DB010008DB010008DB01000870
:10010000DB010008DB010008DB010008DB0100085F
:10011000DB010008DB010008DB010008DB0100084F
:10012000DB010008DB010008DB010008DB0100083F
:10013000DB010008DB010008DB010008DB0100082F
:10014000DB010008DB010008DB010008DB0100081F
:10015000DB010008DB010008DB010008DB0100080F
:10016000DB010008DB010008DB010008DB010008FF
:10017000DB010008DB010008DB010008DB010008EF
:10018000DB010008DB010008DB010008DB010008DF
:10019000DB010008DB010008DB010008DB010008CF
:1001A000DB010008DB010008DB010008DFF80CD0F0
:1001B00000F018F80048004731060008000400204D
:1001C0000648804706480047FEE7FEE7FEE7FEE7F1
:1001D000FEE7FEE7FEE7FEE7FEE7FEE72105000893
:1001E000AD0100081CB5094800900948019005467A
:1001F000009C06E0E06840F0010394E8070098479F
:100200001034AC42F6D3FFF7D5FF000074060008A7
:1002100084060008FEE700007047000043F6144122
:10022000C4F20101086070478179002943F600415A
:10023000C4F201011FD002680B6893430B604B6846
:1002400093434B60037943EA010CDCF800301A4316
:10025000CCF8002002688B6893438B60CB68934393
:10026000CB60407910280ED1886810438860C86838
:100270001043C86070470279006811430A6822EA97
:10028000000008607047084301681143016070472F
:100290002DE9F043D1F8008000234FF0010C4FF01E
:1002A000030E002410E000BFC26802EA0902C26027
:1002B000CA79C5689A402A43C2600134102C03F100
:1002C000020308BFBDE8F0830CFA04F618EA060F33
:1002D000F3D002680EFA03F7BA4302600A796FEAB4
:1002E0000709076802FA03F5013A3D43012A056050
:1002F000DAD8826802EA090282604A798D798768D1
:100300009A403A4382604268B243426005FA04F27E
:10031000456892B22A434260C6E700000904816141
:1003200070470000FEE700002DE9F04182B0882010
:10033000012100F0D9F8012041F60044C0F200107C
:10034000C4F202046D464FF48068019020462946AD
:10035000CDF80080FFF79CFF4FF400672046294648
:100360000097FFF795FF4FF48056204629460096E8
:10037000FFF78EFFA4F58054204629460097FFF72B
:1003800087FF41F61840C4F20200C0F80080076001
:10039000066020464FF40061FFF7C0FF02B0BDE8E1
:1003A000F0810000FEE700007047000010B5C17842
:1003B00000294EF20011CEF200011CD04EF60C5274
:1003C000CEF200021268072323EA12220F23C2F1A1
:1003D000040C23FA02FE427884785FFA8CF390F8DA
:1003E00000C09A4004EA0E031A43120101EB0C0309
:1003F00083F8002300E080310078012300F01F0221
:1004000003FA02F2C0F3421041F8202010BD0000B0
:1004100040F080604EF60C5140F0FD70CEF20001CD
:1004200008607047B0B584B04FF0805001210124BE
:1004300000F066F84FF4C060FFF7EAFF0120C0F259
:100440000010039003A8FFF7B1FF4FF480304FF482
:100450008035FFF7E3FE4FF48050ADF8080001A8A7
:1004600001958DF80A40FFF7DFFEA02000F030F87C
:10047000012000F027F804B0B0BD000080B50420D2
:1004800000F016F801280CD141F61840C4F2020021
:100490004FF0806101604FF4006101604FF48051C2
:1004A00001604FF48030BDE88040FFF7B7BE000028
:1004B00047F20401C4F200010968084018BF012096
:1004C000704700001021C4F20E2108607047000040
:1004D00047F20001C4F200010A6822F0E002104372
:1004E0000860704770470000002943F63001C4F2ED
:1004F00002010A680CBF22EA00001043086070473E
:10050000002943F64001C4F202010A680CBF22EA46
:1005100000001043086070477047000070470000FB
:1005200082B043F60000C4F2020001684FF6FF7388
:1005300041F001010160002181600268CFF6F6639D
:100540001A40026043F21002C2F2004242600268A6
:1005500022F480220260C16001910091016841F49F
:1005600080310160016801F400310091019901318D
:100570000191009919B90199B1F5A04FF2D1016823
:10058000890354BF0021012100910099012944D120
:10059000026C47F2000142F08052C4F20001026492
:1005A0000A6842F440420A6082688260826842F4CB
:1005B00000428260826842F4A052826045F61922AD
:1005C000C0F240724260026842F08072026000BF76
:1005D00002689201FCD50A6842F480320A6000BFCA
:1005E0004A68D203FCD50A6842F400320A6000BFB0
:1005F0004A689203FCD540F20571C0F80014816886
:1006000021F003018160816841F00201816000BF37
:10061000816801F00C010829FAD14EF60850CEF29B
:1006200000004FF00061016002B07047FEE700007B
:10063000FFF77AFE41F61840C4F202004FF48061E1
:1006400001604FF0006101604FF480510160FFF7DD
:10065000E9FE00BFFEE702E008C8121F08C1002A39
:10066000FAD170477047002001E001C1121F002A33
:10067000FBD1704784060008000000200004000041
:040680006606000802
:04000005080001AD41
:00000001FF
