:020000040800F2
:1000000008040020C1010008750A0008B1090008B1
:10001000710A0008310700082D10000800000000D8
:10002000000000000000000000000000510C00086B
:100030003507000800000000790A0008D90D000803
:10004000DB010008DB010008DB010008DB01000820
:10005000DB010008DB010008DB010008DB01000810
:10006000DB010008DB010008DB010008DB01000800
:10007000DB010008DB010008DB010008DB010008F0
:10008000DB010008DB010008DB010008DB010008E0
:10009000DB010008DB010008DB010008DB010008D0
:1000A000DB010008DB010008DB010008DB010008C0
:1000B000DB010008DB010008DB010008DB010008B0
:1000C000DB010008DB010008DB010008DB010008A0
:1000D000DB010008DB010008DB010008DB01000890
:1000E000DB010008DB010008DB010008DB01000880
:1000F000DB010008DB010008DB010008DB01000870
:10010000DB010008DB010008DB010008DB0100085F
:10011000DB010008DB010008DB010008DB0100084F
:10012000DB010008DB010008DB010008DB0100083F
:10013000DB010008DB010008DB010008DB0100082F
:10014000DB010008DB010008DB010008DB0100081F
:10015000DB010008DB010008DB010008DB0100080F
:10016000DB010008DB010008DB010008DB010008FF
:10017000DB010008DB010008DB010008DB010008EF
:10018000DB010008DB010008DB010008DB010008DF
:10019000DB010008DB010008DB010008DB010008CF
:1001A000DB010008DB010008DB010008DFF80CD0F0
:1001B00000F018FA004800479D16000808040020C7
:1001C0000648804706480047FEE7FEE7FEE7FEE7F1
:1001D000FEE7FEE7FEE7FEE7FEE7FEE7DD0D0008CF
:1001E000AD01000830B50B46014600202022012455
:1001F00009E021FA02F59D4205D303FA02F5491BF5
:1002000004FA02F52844151EA2F10102F1DC30BD0A
:100210002DE9F05F0546002092469B46884606463B
:10022000814640241BE0284641464746224600F0CE
:1002300000FA53465A46C01A914110D31146184647
:10024000224600F0E7F92D1A67EB01084F462246D7
:100250000120002100F0DEF917EB00094E41201EBD
:10026000A4F10104DFDC484631462A464346BDE896
:10027000F09F2DE9FE4F804681EA0300C00F0C4637
:10028000009021F0004123F00045B8EB0200A941A5
:1002900005D24046214690461C460B46024623F0B6
:1002A0000040104347D0270DC7F30A00C3F30A519B
:1002B0000290401A019040286BDAC3F3130040F417
:1002C000801B0098924620B10023D2EB030A63EB17
:1002D0000B0B01985946C0F14002504600F09AF9C4
:1002E00006460D4650465946019A00F0B2F910EB09
:1002F00008006141002487EA115284EAE7731A4337
:1003000040D0009A62B3019A012A4FEA075215DCE5
:10031000001B61EB02014FF0004202EA0752CDE9F7
:100320000042001C41F5801132462B4600F0B2F924
:1003300003B0BDE8F08F40462146F9E7001B61EBB2
:100340000201001C41F5801300185B412018A2F542
:10035000001747EB030140EAD570B6196D4111E073
:100360006D084FEA360645EAC0754FEA0752001B92
:1003700061EB0201001C41F5801149084FEA300091
:100380000019514132462B4603B0BDE8F04F00F052
:1003900072B90098012240000023D0EB020263EB07
:1003A000E073009821464FEAE074B8EB000061EB7F
:1003B0000401E9E783F000435BE781F0004158E77F
:1003C0002DE9FE4F81EA030404F0004421F00041CE
:1003D00000944FF0000B23F0004350EA01045ED07C
:1003E00052EA03045BD0C3F30A54C1F30A552C4408
:1003F000A4F2F3340194A0FB0254C1F3130141F4BD
:100400008011C3F3130343F4801301FB024400FB88
:10041000034E840A970A44EA815447EA8357A4FBAF
:10042000076802958D0A05FB07854FEA932C04FBAC
:100430000C542705029D4FEA065847EA1637B5EBDC
:1004400008056EEB070C870E920E47EA811742EA09
:100450008312A7FB0201B6EB0B0164EB00042B0D2A
:1004600043EA0C335E1844EB1C50DA465146E7FB76
:100470000201C5F313044FEA0B3343EA14534FEA66
:100480000432019C43EA0603A4F10C040294009C8C
:10049000CDE900B400F0FEF803B0BDE8F08F002015
:1004A0000146F9E72DE9F04D81EA030404F0004B21
:1004B00021F0004514464FF0000A23F0004150EAB5
:1004C000050220D054EA01021DD0C5F30A570246A6
:1004D000C5F31303C1F31300C1F30A5640F48015AA
:1004E00043F48013A7EB0608101BD64608F2FD382C
:1004F00073EB050002D308F1010801E092185B419B
:10050000B8F1000F03DA00200146BDE8F08D0020AD
:100510004FF48011064684460EE0171B73EB050767
:1005200005D3121B63EB050306434CEA010C490893
:100530004FEA300092185B4150EA0107EDD152EAD0
:10054000030012D082EA040083EA0501084305D0C3
:10055000101BAB4106D20122002306E000224FF01F
:10056000004302E06FF0010253101AEB06004CEB5F
:10057000085110EB0A0041EB0B01BDE8F04D00F013
:100580007AB8C1F30A52C1F3130140F2FF3341F4C8
:1005900080119A4202DA00200146704740F233434C
:1005A0009A42A2F2334202DC524200F042B800F01A
:1005B00031B8000030B5041E71F1000404DB4FF0C7
:1005C0000044404264EB0101141E73F1000405DB9A
:1005D0001C464FF00043524263EB0403994208BFAC
:1005E000904230BD1CB5094800900948019005466D
:1005F000009C06E0E06840F0010394E8070098479B
:100600001034AC42F6D3FFF7D5FD0000AC21000852
:10061000CC210008202A04DB203A00FA02F1002055
:1006200070479140C2F1200320FA03F31943904030
:100630007047202A04DB203A21FA02F0002170479B
:1006400021FA02F3D040C2F120029140084319463A
:100650007047202A06DBCB17203A41FA02F043EA22
:10066000E07306E041FA02F3D040C2F1200291406B
:1006700008431946704710B5141E73F1000408DAD8
:10068000401C41F1000192185B411A4301D120F056
:10069000010010BD2DE9F04D92469B4611B1B1FA13
:1006A00081F202E0B0FA80F220329046FFF7B2FF0A
:1006B00004460F4640EA0A0041EA0B0153465A46F7
:1006C000084313D0114653EA010019D0C8F1400283
:1006D0005046FFF7AEFF05460E4650465946424685
:1006E000FFF798FF084305D0012004E02046394673
:1006F000BDE8F08D0020054346EAE0762C43374301
:100700000A986305E40AA0EB08000022FD0A44EA07
:1007100047540A3002D500200146E9E701051019C7
:100720006941DDE9084500196941BDE8F04DA2E7DE
:10073000FFE7FEE77047000080B58EB0012107910A
:10074000084600F09BF90799102000F0B3F900204B
:10075000C4F2020003900A210722019200F0BEF8C1
:10076000019A0398092100F0B9F80398079900222B
:1007700005928DF836208DF83710022102918DF800
:1007800034104FF400720C928DF835100CA90491BE
:1007900000F028F8029A039804998DF834204FF459
:1007A00080620C9200F01EF805984FF4E131089138
:1007B000ADF82400ADF82600ADF82800ADF82C0007
:1007C0000C20ADF82A0041F20000C4F201000690AE
:1007D00008A900F06DFB0698079900F031FB0EB0F8
:1007E00080BD000085B0049003910020029001902C
:1007F00000900290FFE702980F286CD8FFE702995B
:1008000001208840019003980068019908400090F9
:1008100000980199884259D1FFE7029841000320CE
:1008200000FA01F20499086890430860039800797F
:100830000299490000FA01F204990868104308601F
:1008400003980079012805D0FFE703980079022872
:1008500027D1FFE702984100032000FA01F2049932
:10086000886890438860039840790299490000FAAB
:1008700001F20499886810438860BDF808100120CF
:1008800000FA01F20499486890434860039880791F
:10089000BDF80810884082B2049948681043486047
:1008A000FFE7BDF808004100032000FA01F20499B7
:1008B000C8689043C8600398C0790299490000FA5B
:1008C00001F20499C8681043C860FFE7FFE7029887
:1008D000013002908FE705B07047000084B00390AC
:1008E000ADF80A108DF809200020019000909DF8C5
:1008F0000900BDF80A1001F0070189008840019045
:10090000BDF80A3003F0070081000F2000FA01F261
:1009100003986FF0030101EA53010144086A904310
:1009200008620398BDF80A1047F6FC7202EA51010A
:100930000844006A01990843009000980399BDF8A3
:100940000A3002EA53021144086204B07047000002
:1009500082B00190ADF8021000208DF801000198DE
:100960000069BDF80210084204D0FFE701208DF8AD
:10097000010003E000208DF80100FFE79DF8010071
:1009800002B0704782B00190ADF80210BDF80200CD
:1009900000040199886102B07047000082B00190A4
:1009A000ADF80210BDF802000199886102B07047ED
:1009B000FFE7FEE780B586B088200121009100F0B6
:1009C0005DF800994FF4806004908DF814100020B9
:1009D0008DF816008DF817108DF8150041F60040BF
:1009E000C4F20200019004A90391FFF7FBFE0198F5
:1009F00003994FF4006202920492FFF7F3FE01980C
:100A000003994FF480520492FFF7ECFE0298039989
:100A1000049040F60040C4F20200FFF7E3FEFFE757
:100A2000FFE741F61841C4F202014FF4806008600C
:100A3000FFE7FFE741F61841C4F202014FF40060FE
:100A40000860FFE7FFE741F61841C4F202014FF4E6
:100A500080500860FFE7FFE7FFE740F60040C4F280
:100A600002004FF40061FFF78DFFFFE706B080BD85
:100A7000FFE7FEE7704700007047000082B001907A
:100A80008DF803109DF8030048B1FFE7019A43F683
:100A90003001C4F2020108681043086008E0019ABE
:100AA00043F63001C4F20201086890430860FFE792
:100AB00002B0704782B001908DF803109DF80300DA
:100AC00048B1FFE7019A43F64401C4F20201086805
:100AD0001043086008E0019A43F64401C4F20201A1
:100AE000086890430860FFE702B0704788B007903D
:100AF000002106910591049102200390029101903A
:100B000043F60800C4F20200006800F00C000690F2
:100B10000698009040B1FFE7009804280BD0FFE74B
:100B2000009808280ED050E0079942F20040C0F229
:100B3000F400086050E0079947F64000C0F27D10CD
:100B4000086049E043F60400C4F202000168C1F302
:100B500080510291006800F03F000190029888B136
:100B6000FFE7019947F64000C0F27D10B0FBF1F0BD
:100B700043F60401C4F202010968C1F38811484335
:100B8000049010E0019942F20040C0F2F400B0FB82
:100B9000F1F043F60401C4F202010968C1F38811BF
:100BA00048430490FFE743F60400C4F202000068E3
:100BB00000F44031022000EBD130039004980399F7
:100BC000B0FBF1F00799086006E0079942F2004097
:100BD000C0F2F4000860FFE743F60801C4F2020126
:100BE000086800F0F0000690069800090690069A42
:100BF00042F27600C0F60000825C0592079B1A68FC
:100C0000DDF814C022FA0CF25A600A6802F4E052CD
:100C10000692069A920A0692069A825C0592079BB1
:100C20005A68DDF814C022FA0CF29A60096801F4DF
:100C3000604106910699490B06910699405C059022
:100C400007994868059AD040C86008B0704700000E
:100C50007047000083B000200290019043F600012D
:100C6000C4F20201086840F480300860FFE743F6F0
:100C70000000C4F20200006800F400300190029805
:100C800001300290FFE701990020009039B9FFE799
:100C90000298B0F5A04018BF01200090FFE700982F
:100CA000C0070028E3D1FFE743F60000C4F20200CA
:100CB00000688003002803D5FFE70120019002E0CF
:100CC00000200190FFE70198012840F08180FFE7B4
:100CD00043F64001C4F20201086840F08050086009
:100CE00047F20001C4F20001086840F44040086087
:100CF00043F60801C4F2020108680860086840F47D
:100D000000400860086840F4A050086043F6040101
:100D1000C4F2020145F61920C0F24070086043F6A3
:100D20000001C4F20201086840F080700860FFE72B
:100D300043F60000C4F2020000688001002801D4DC
:100D4000FFE7F5E747F20001C4F20001086840F44C
:100D500080300860FFE747F20400C4F2000000683A
:100D6000C003002801D4FFE7F5E747F20001C4F211
:100D70000001086840F400300860FFE747F2040013
:100D8000C4F2000000688003002801D4FFE7F5E703
:100D900043F60041C4F2020140F20570086043F6D8
:100DA0000801C4F20201086820F003000860086826
:100DB00040F002000860FFE743F60800C4F20200BA
:100DC000006800F00C00082801D0FFE7F4E700E01D
:100DD000FFE703B0704700007047000080B543F69E
:100DE0000002C4F20202106840F00100106043F6F5
:100DF0000801C4F202010020086011684FF6FF7379
:100E0000CFF6F6631940116043F60403C4F20203FF
:100E100043F21001C2F200411960116821F48021EF
:100E2000116043F60C01C4F202010860FFF712FFE3
:100E30004EF60851CEF200014FF00060086080BD10
:100E400082B001908DF803109DF8030030B1FFE7E8
:100E50000199888940F40050888105E001998889CA
:100E600020F400508881FFE702B0704782B0019003
:100E7000ADF8021000208DF80100BDF80200B0F5B9
:100E8000007F01D1FFE7FFE701980088BDF802105D
:100E90000840000420B1FFE701208DF8010003E0C5
:100EA00000208DF80100FFE79DF8010002B07047B7
:100EB00080B58AB0099008910020079006900590AF
:100EC00004900898808908B1FFE7FFE70998008A35
:100ED0000790079820F4405007900898C188079819
:100EE0000843079007980999088209988089079014
:100EF000079841F20C6188430790089988880A890D
:100F000010434989014307980843079007980999B6
:100F100088810998808A0790079820F4407007908C
:100F2000089881890798084307900798099988824B
:100F30006846FFF7DBFD099841F20001C4F20101A8
:100F4000884208D0FFE7099841F20041C4F201014C
:100F5000884203D1FFE70398069002E002980690CA
:100F6000FFE709988089000400280AD5FFE7069862
:100F700019214843089909684900B0FBF1F0059030
:100F800009E0069819214843089909688900B0FBCF
:100F9000F1F00590FFE7059848F21F51C5F2EB11FB
:100FA000A0FB01016FF00F0000EA51000790059AC5
:100FB00007980009642100FB11200490099880899A
:100FC0000004002810D5FFE70499322000EBC1008F
:100FD00048F21F51C5F2EB11A0FB0110C0F3421102
:100FE0000798084307900FE00499322000EB0110A6
:100FF00048F21F51C5F2EB11A0FB0110C0F34311E1
:10100000079808430790FFE70798099908810AB0F5
:1010100080BD000082B00190ADF80210BDF8020062
:101020006FF35F200199888002B07047FFE7FEE709
:1010300080B582B0A02000F0F7F920B9FFE70120C9
:101040008DF8070005E000F0E3FA00208DF80700B6
:10105000FFE79DF8070002B080BD000081B000905E
:10106000FFE70098411E009110B1FFE700BFF8E7CD
:1010700001B0704780B584B00290ADF80610ADF8AD
:10108000042000F0A5FAA02000F050FA00F0D8FAF1
:1010900008B1FFE73EE09DF8060000F047FA00F0D7
:1010A000CFFA08B1FFE735E000F092FAA12000F096
:1010B0003DFA00F0C5FA08B1FFE72BE00020ADF8DB
:1010C0000200FFE7BDF80200BDF8041088421BDAF9
:1010D000FFE700F0EFF90299BDF802208854BDF84F
:1010E0000200BDF804100139884203D0FFE700F088
:1010F0005BF902E000F0C2F9FFE7FFE7BDF802008C
:101100000130ADF80200DDE700F082FA01208DF831
:101110000F0005E000F07CFA00208DF80F00FFE7DB
:101120009DF80F0004B080BD80B5ADF5027DFFF7DE
:101130007FFF50B9FFE742F2D800C0F6000000F090
:1011400021FB00208DF807029AE00020ADF8040290
:10115000FFE7BDF80402FF280BDCFFE7BDF804023F
:1011600041A90854FFE7BDF804020130ADF80402BC
:10117000EFE741A800214FF4807200F087F850B9E2
:10118000FFE742F21410C0F6000000F0FBFA002066
:101190008DF8070274E042F2F000C0F6000000F0A3
:1011A000F1FAFFE74FF6FF70C0F20F00FFF756FFAE
:1011B00001A800214FF48072FFF75CFF50B9FFE7F0
:1011C00042F22510C0F6000000F0DCFA00208DF895
:1011D000070255E042F25E10C0F6000000F0D2FABD
:1011E000FFE70020ADF80402FFE7BDF80402FF2886
:1011F0003CDCFFE7BDF8042201A8805C41A9895CC2
:10120000884214D0FFE7BDF8041201A8415C42F205
:101210007910C0F6000000F0B5FA42F28710C0F66F
:10122000000000F0AFFA00208DF8070228E0BDF8BA
:10123000041201A8415C42F28110C0F6000000F0E7
:10124000A1FABDF8040200F00F000F2807D1FFE754
:1012500042F27610C0F6000000F094FAFFE7FFE7D4
:10126000BDF804020130ADF80402BEE742F24910B5
:10127000C0F6000000F086FA01208DF80702FFE7B3
:101280009DF807020DF5027D80BD000080B586B097
:101290000490ADF80E10ADF80C20BDF80E00ADF8BE
:1012A00006000020ADF80A00FFE7BDF80A00BDF80F
:1012B0000C1088424EDAFFE7BDF80A0028B1FFE7BC
:1012C000BDF80600400770BBFFE700F0A1F9002061
:1012D000ADF80800FFE7BDF80800B0F57A7F11DA35
:1012E000FFE700F075F9A02000F020F900F0A8F960
:1012F00008B9FFE706E0FFE7BDF808000130ADF8E8
:101300000800E8E7BDF80800B0F57A7F01D1FFE7F3
:1013100026E09DF8060000F009F900F091F908B107
:10132000FFE71DE0FFE70498BDF80A10405C00F0FD
:10133000FDF800F085F908B1FFE711E0BDF80600FF
:101340000130ADF80600FFE7BDF80A000130ADF846
:101350000A00AAE700F05CF901208DF8170005E00B
:1013600000F056F900208DF81700FFE79DF81700F0
:1013700006B080BD80B582B0019000919DF8041048
:1013800041F20000C4F20100FFF744FEFFE741F222
:101390000000C4F201008021FFF768FD08B9FFE7F3
:1013A000F5E7019802B080BD80B584B040F20040FE
:1013B000C4F20200029080210391FFF7E3FA00F0EB
:1013C00049F8029840210191FFF7E8FA00F042F84D
:1013D00001990298FFF7D6FA00F03CF802980399B9
:1013E000FFF7DCFA04B080BD80B584B00220009025
:1013F00001210191FFF742FB00990198C02202925E
:101400008DF80D108DF80C008DF80E0000208DF871
:101410000F0040F20040C4F2020002A9FFF7E2F917
:1014200000F0F6F804B080BD80B582B08DF80700FA
:10143000FFF7DAFF00F0CCF89DF8070000F076F82F
:1014400000F0FEF88DF8060000F0E2F89DF80600C6
:1014500002B080BD81B000208DF80300FFE79DF849
:1014600003001D2807DCFFE7FFE79DF803000130BC
:101470008DF80300F3E701B07047000080B582B03B
:1014800040F20040C4F2020000908021FFF786FA8B
:10149000FFF7E0FF009840210191FFF77FFAFFF787
:1014A000D9FF00980199FFF76DFAFFF7D3FF02B05B
:1014B00080BD000080B582B000208DF806008DF858
:1014C0000700FFE79DF8070007282BDCFFE79DF8E2
:1014D000060040008DF8060040F20040C4F2020011
:1014E00000904021FFF75AFAFFF7B4FF00988021DF
:1014F000FFF72EFA30B1FFE79DF8060001308DF8B6
:101500000600FFE740F20040C4F202004021FFF76E
:1015100039FAFFF79FFFFFE79DF8070001308DF8CC
:101520000700CFE79DF8060002B080BD80B584B00B
:101530008DF80F0000208DF80E00FFE79DF80E00DB
:10154000072842DCFFE79DF80F000006002808D5B9
:10155000FFE740F20040C4F202008021FFF71EFACC
:1015600007E040F20040C4F202008021FFF70AFACF
:10157000FFE7FFF76FFF40F20040C4F20200019066
:1015800040210291FFF70AFAFFF764FF01980299E0
:10159000FFF7F8F99DF80E00072808D1FFE740F2A1
:1015A0000040C4F202008021FFF7F8F9FFE79DF840
:1015B0000F0040008DF80F00FFF74CFFFFE79DF88C
:1015C0000E0001308DF80E00B8E704B080BD0000B9
:1015D00080B584B040F20040C4F202000290802145
:1015E0000191FFF7DBF9029840210391FFF7D6F94B
:1015F000FFF730FF01990298FFF7C4F9FFF72AFFC0
:1016000002980399FFF7BEF9FFF724FF04B080BDED
:1016100080B582B040F20040C4F202000090802108
:101620000191FFF7AFF900984021FFF7B7F9FFF7F5
:1016300011FF00980199FFF7B1F902B080BD0000D9
:1016400080B584B040F20040C4F2020001908021D5
:101650000291FFF7A3F9FFF7FDFE01984021FFF784
:101660009DF9FFF7F7FE01980299FFF771F920B194
:10167000FFE701208DF80F0003E000208DF80F0038
:10168000FFE740F20040C4F202004021FFF77AF980
:10169000FFF7E0FE9DF80F0004B080BD80B582B07A
:1016A00000200190FFF786F9FFE7FFE741F61841B8
:1016B000C4F202014FF480600860FFE7FFE741F6E3
:1016C0001841C4F202014FF400600860FFE7FFE731
:1016D00041F61841C4F202014FF080500860FFE764
:1016E000FFE7FFF729F842F2B100C0F6000000F072
:1016F00049F842F28600C0F6000000F043F8FFF718
:1017000013FD01281ED1FFE7FFE7FFE741F618416F
:10171000C4F202014FF480600860FFE7FFE741F682
:101720001841C4F202014FF000600860FFE7FFE7D4
:1017300041F61841C4F202014FF480500860FFE7FF
:10174000FFE71DE0FFE7FFE741F61841C4F20201A1
:101750004FF080600860FFE7FFE741F61841C4F2F0
:1017600002014FF400600860FFE7FFE741F618410F
:10177000C4F202014FF480500860FFE7FFE7FFE783
:10178000FFE7FEE70FB4054B10B503A9044A029822
:1017900000F0DAF810BC5DF814FB000075130008C7
:1017A0000000002002E008C8121F08C1002AFAD178
:1017B00070477047002001E001C1121F002AFBD1D1
:1017C000704700002DE9FF5F82B00021DDE90430A1
:1017D000020DDDF840B0034318D044F61050A2F2D9
:1017E000FF3242431514119801281FD0A5EB0B00BE
:1017F000401C5FEA000A4FF000064E4FDFF83891B8
:10180000B046504615D5CAF1000413E011980124E2
:101810004AA3012801D16FEA0B010298119AC0E98D
:101820000031C0E9024206B0BDE8F09FCBF10000F4
:10183000DFE704460021404A491842EB0450CDE955
:10184000001012E0E00707D032463B4640464946CA
:10185000FEF7B6FD8046894632463B46104619469D
:10186000FEF7AEFD06460F466410002CEAD1DDE916
:101870000401DDE90023BAF1000F06DAFEF7A0FD4E
:1018800042464B46FEF79CFD05E0FEF70BFE424646
:101890004B46FEF707FE04460E460022284BFEF795
:1018A00089FE03D84FF0FF30014607E00022254BA8
:1018B00020463146FEF7DDFCFEF763FE102409E00A
:1018C000002C0ADB0A220023FEF7A2FC039B303225
:1018D0001A55641E50EA0102F2D1641C039AC4F145
:1018E00011031444119A012A03D0012208430DD197
:1018F0000AE0084304D000204FF0110B119072E76A
:10190000A3EB0B056D1E0DE05B4504DD4FF00002FF
:1019100005F1010504E003DA4FF00002A5F101052D
:10192000002AECD002981199C0E90231C0E90045C3
:1019300079E70000000014400000F03F3000000094
:101940000000F0430000E03F2DE9FF4F95B09B46BB
:101950008946064600250FE2252877D10024274630
:10196000F84A0121059400E0044316F8013F203BAA
:1019700001FA03F01042F7D130782A2811D06FF025
:101980002F033078A0F13002092A16D8059A44F0C6
:10199000020402EB820203EB42021044761C059023
:1019A000EFE759F8042B0592002A03DA504244F479
:1019B0000054059044F00204761C30782E2816D18D
:1019C00016F8010F44F004042A280DD06FF02F02FE
:1019D0003078A0F13003092B09D807EB870302EB1D
:1019E0004303C718761CF3E759F8047B761C30785C
:1019F0006C280FD006DC4C2817D068280DD06A2838
:101A000014D104E0742810D07A280FD10DE044F4EA
:101A100000140AE044F4801401E044F440147278A5
:101A2000824202D104F58014761C761C3078662838
:101A30000BD013DC582877D009DC002875D0452856
:101A4000F6D04628F4D047281AD19DE118E0632843
:101A500035D0642879D0652812D195E1702873D0EB
:101A600008DC6728F1D069286FD06E280DD06F2868
:101A700006D1B5E073282CD0752875D0782874D09D
:101A80005A46179990476D1C75E1C4F3025002281D
:101A900009D003280DD0D9F8001004280DD00D600E
:101AA00009F1040967E1D9F80010EA17C1E9005209
:101AB000F6E7D9F800100D80F2E70D70F0E719F89D
:101AC000041B8DF8001000208DF80100EA4601206B
:101AD00003E059F804AB4FF0FF3061074FF000010D
:101AE00002D40DE008F101018846B9420FDA8045C1
:101AF000F8DB1AF808100029F4D108E008F1010118
:101B000088468142FADB1AF808100029F6D10598B8
:101B10005B46A0EB080721463846179A00F094FA76
:101B2000284400EB080507E04DE029E10DE01AF834
:101B3000010B5A4617999047B8F10108F7D25B4656
:101B400021463846179A13E142E00A220092C4F374
:101B500002524FF0000A022A08D059F804CB032A97
:101B60004FEAEC710AD00DE029E02AE009F1070103
:101B700021F00702F2E802C1914609E00FFA8CFC5D
:101B80004FEAEC71042A03D14FFA8CFC4FEAEC7156
:101B9000002907DA0A460021DCF1000C61EB0201A2
:101BA0002D2202E0220504D52B228DF804200122EB
:101BB00003E0E20701D02022F7E7904659E00A212E
:101BC00002E010220DE010214FF0000A00910BE01E
:101BD00010224FF0000A44F004040827009203E0AA
:101BE00008224FF0000A0092C4F30252022A05D0E4
:101BF00059F804CB0021032A08D009E009F10701B4
:101C000021F00702F2E802C1914605E01FFA8CFCC0
:101C1000042A01D10CF0FF0C4FF00008220728D550
:101C2000702806D0009B83F0100353EA0A0305D006
:101C30000EE040228DF80420012208E05CEA010257
:101C400006D030228DF804208DF80500022290463F
:101C5000009B83F0080353EA0A030AD15CEA0102FD
:101C600001D1620705D530228DF804204FF001081C
:101C70007F1E582804D034A003900EA802900DE0D7
:101C800036A0F9E753466046009AFEF7C1FA84464B
:101C90000398825C0298401E029002705CEA010088
:101CA000F0D1029806A9081A00F1200A600702D5AF
:101CB00024F4803400E00127574502DDA7EB0A0039
:101CC00000E0002000EB0A01009005984144401A12
:101CD0000590E00306D45B462146179A059800F06C
:101CE000B3F90544002706E001A85A46C05D1799DC
:101CF00090476D1C7F1C4745F6DBE0030CD55B4627
:101D00002146179A059800F09FF9054404E0302019
:101D10005A46179990476D1C0099481E009000295B
:101D2000F5DC08E0029802995A460078491C0291B5
:101D3000179990476D1CBAF10001AAF1010AF1DC74
:101D400065E100000928010030313233343536377F
:101D500038396162636465660000000030313233F7
:101D60003435363738394142434445460000000097
:101D700000F058F90544761C307800287FF4ECAD6B
:101D800019B02846BDE8F08F620700D4062709F194
:101D9000070222F0070CFCE80223E14603F00048AA
:101DA0005FEA080C02D00FF2702C0DE05FEA045CD1
:101DB00002D50FF2682C07E05FEAC47C02D00FF274
:101DC000602C01E0AFF2700C4FF0FF3823F00043BD
:101DD000CDF850C065280CD006DC452809D046282F
:101DE0001DD047283DD13DE0662818D067287ED118
:101DF00038E00021112F01DB112000E0781CCDE933
:101E0000000106A90EA8FFF7DDFCDDE90F010E9A1F
:101E100003910021009207F1010A04914DE04FF077
:101E200000400097CDE9011006A90EA8FFF7CAFCF3
:101E3000DDE90F0203920E9B11990022DDF80CA040
:101E40000093049211B9791C00EB010AB7EB0A0068
:101E500004D4C0F1FF3007F1010A0490AAEB070097
:101E6000019044E0012F00DA01270021112F01DD4C
:101E7000112000E03846CDE9000106A90EA8FFF7C1
:101E8000A1FCDDE90F010E9A03910021049100925B
:101E9000BA4621070CD40399514500DA8A46BAF1B3
:101EA000010F05DD009AAAF10101515C302908D02B
:101EB000B84202DA10F1040F06DA0121CDE901106F
:101EC00015E0AAF10101E9E7002805DC04990144C5
:101ED0000491AAEB000102E0411C514500DD8A4655
:101EE0000499401A401C01904FF0004002902007D6
:101EF00004D40198504501DBCDF8048000208DF812
:101F00004F0002980DF14F07B0F1004F25D02B2064
:101F10000E9002984FF0020800280CDA404202901E
:101F20002D200E9007E00A210298FEF75BF9303170
:101F3000029007F8011DB8F10001A8F10108F2DCD8
:101F400002980028EFD1791E0E980870307800F0C2
:101F5000200040F0450007F8020D12A8C01B00F158
:101F600007081498007800B1012000EB0A010198DD
:101F700001EBE07105984144401A401E0590E003D2
:101F800006D45B462146179A059800F05DF8054493
:101F90001498007818B15A46179990476D1CE003C1
:101FA00024D55B462146179A059800F04DF8054464
:101FB0001CE00498002807DBDDE90301884203DD0B
:101FC0000098405C179901E0179930205A469047D5
:101FD000049805F10105401C04900198401E0190F1
:101FE00004D12E205A46179990476D1CBAF1000172
:101FF000AAF1010ADDDC05E017F8010B5A46179932
:1020000090476D1CB8F10001A8F10108F4DC5B46B3
:102010002146179A0598ABE62D0000002B00000022
:10202000200000002DE9F041044600251E46174619
:10203000880404D405E039462020B0476D1C641E96
:10204000F9D52846BDE8F0812DE9F0410446002588
:102050001E469046C80301D5302700E0202788049B
:1020600004D505E041463846B0476D1C641EF9D5DD
:102070002846BDE8F08100000000010203040102CF
:102080000304060708090D0A20D5E2CAC7D2BBB867
:10209000F6493243CDE2C9E8284154323443303264
:1020A00029B6C1D0B4B2E2CAD4C0FDB3CC200D0A67
:1020B000000D0A20BBB6D3ADCAB9D3C3D2B0BBF0B2
:1020C000202053544D3332204634323920BFAAB732
:1020D000A2B0E5A1A30D0A00C3BBD3D0BCECB2E211
:1020E000B5BDB4AED0D0454550524F4D210D0A007C
:1020F000D0B4656570726F6DB3C9B9A6A3A10D0A9E
:1021000000B2C1B3FD656570726F6DB3C9B9A6A3A6
:10211000A10D0A00D0B4656570726F6DB3F6B4EDB1
:10212000A3A10D0A00B6C1656570726F6DB3F6B4F8
:10213000EDA3A10D0A00B2C1B3FD656570726F6DAC
:10214000B3F6B4EDA3A10D0A00656570726F6DB6AC
:10215000C1D0B4B2E2CAD4B3C9B9A60D0A00B6C19F
:10216000656570726F6DB3C9B9A6A3ACCAFDBEDD5B
:10217000C8E7CFC2A3BA0D0A003078253032582004
:1021800000202530325800B4EDCEF33A4545505288
:102190004F4DB6C1B3F6D3EBD0B4C8EBB5C4CAFD4E
:1021A000BEDDB2BBD2BBD6C200000000D021000809
:1021B0000000002008000000A4170008D821000833
:1021C0000800002000040000B41700080000000010
:0821D000000000000000000007
:04000005080001AD41
:00000001FF
