:020000040800F2
:1000000000990120C5010008ED0D0008690B0008EA
:10001000E90D00080F030008312A00080000000065
:100020000000000000000000000000009127000810
:1000300035080008000000007D0E0008B528000803
:10004000DF010008DF010008DF010008DF01000810
:10005000DF010008DF010008DF010008DF01000800
:10006000DF010008DF010008DF010008DF010008F0
:10007000DF010008DF010008DF010008DF010008E0
:10008000DF010008DF010008DF010008DF010008D0
:10009000DF010008DF010008DF010008DF010008C0
:1000A000DF010008DF010008DF010008DF010008B0
:1000B000DF010008DF010008DF010008DF010008A0
:1000C000DF010008DF010008DF010008DF01000890
:1000D000DF010008DF010008DF010008DF01000880
:1000E000DF010008DF010008DF010008DF01000870
:1000F000DF010008DF010008DF010008DF01000860
:10010000DF010008C5110008DF010008DF01000859
:10011000DF010008DF010008DF010008DF0100083F
:10012000DF010008DF010008DF010008E105000829
:10013000DF010008DF010008DF010008DF0100081F
:10014000DF010008DF010008DF010008DF0100080F
:10015000DF010008DF010008DF010008DF010008FF
:10016000DF010008DF010008DF010008DF010008EF
:10017000DF010008DF010008DF010008DF010008DF
:10018000DF010008DF010008DF010008DF010008CF
:10019000DF010008DF010008DF010008DF010008BF
:1001A000DF010008DF010008DF010008DFF810D0E0
:1001B00000F06AF800480047C92A0008AFF3008041
:1001C000009901200648804706480047FEE7FEE701
:1001D000FEE7FEE7FEE7FEE7FEE7FEE7FEE7FEE7F7
:1001E000B9280008AD0100082DE9F05F05460020A0
:1001F00092469B4688460646814640241BE0284698
:1002000041464746224600F02FF853465A46C01A48
:10021000914110D311461846224600F016F82D1AC7
:1002200067EB01084F4622460120002100F00DF83F
:1002300017EB00094E41201EA4F10104DFDC484603
:1002400031462A464346BDE8F09F202A04DB203A87
:1002500000FA02F1002070479140C2F1200320FA19
:1002600003F3194390407047202A04DB203A21FA17
:1002700002F00021704721FA02F3D040C2F12002BF
:100280009140084319467047064C074D06E0E06868
:1002900040F0010394E8070098471034AC42F6D3CD
:1002A000FFF788FFA42D0008C42D00081CB501210C
:1002B000022000F0E5FD4FF40050009001208DF881
:1002C000040000208DF8060002208DF807000020B1
:1002D0008DF805006946044800F0D0FB4FF400514A
:1002E000014800F03FFC1CBD0004024010B503466D
:1002F00007E018780C78A04201D0002010BD5B1CEC
:10030000491C101EA2F10102F3D10120F6E700BF43
:10031000FEE770B500254FF4803400E0641E24B180
:10032000802000F023FF0028F8D014B903252846C8
:1003300070BD40F2FF5000F0D5FE2846F8E70000FF
:100340002DE9F041064600274848056801E0474886
:10035000056805F045000028F9D005F0040030B12B
:100360000327042000F0BEFE3846BDE8F08105F00A
:10037000010028B10127012000F0B4FE3846F4E75F
:1003800000F0EEFEB04202D010273846EDE740F212
:10039000FF5000F0A7FE002000F008FF044634489C
:1003A000204008B93846E0E704F0004008B11C20BE
:1003B000DBE704F0804008B10920D6E704F00050E4
:1003C00008B10A20D1E704F0805008B10B20CCE737
:1003D00004F0006008B10C20C7E704F0806008B1A9
:1003E0000D20C2E704F0807008B10E20BDE704F4D0
:1003F000000008B10F20B8E704F4800008B1102015
:10040000B3E704F4001008B11120AEE704F4801043
:1004100008B11220A9E704F4002008B11320A4E7D2
:1004200004F4802008B114209FE704F4003008B1E0
:1004300015209AE704F4803008B1162095E704F4FB
:10044000004008B1172090E704F4804008B118205C
:100450008BE704F4005008B1192086E704F0080087
:1004600008B11A2081E738467FE70000342C0140AC
:1004700008E0FFFD70B500251048046801E00F4852
:10048000046804F045000028F9D004F0040028B105
:100490000325042000F026FE284670BD04F001006C
:1004A00028B10125012000F01DFE2846F5E740F2A5
:1004B000FF5000F017FE2846EFE70000342C014003
:1004C00070B500250B48046801E00A48046804F090
:1004D00045000028F9D004F0040028B103250420C9
:1004E00000F000FE284670BD40F2FF5000F0FAFD1B
:1004F0002846F8E7342C01402DE9F04106460F4626
:100500004FF000082248056801E02148056805F021
:1005100045000028F9D005F0040038B14FF0030879
:10052000042000F0DFFD4046BDE8F08105F0010049
:1005300030B14FF00108012000F0D4FD4046F3E750
:1005400000F00EFEB04203D04FF010084046EBE73B
:1005500040F2FF5000F0C6FD002000F027FE0446E8
:1005600004F4604018B9200C38804046DCE704F4FD
:10057000005008B11320D7E704F4804008B11020E0
:10058000D2E704F4004008B10F20CDE74046CBE7A6
:10059000342C014070B500264FF480350F480468B4
:1005A00002E06D1E0D48046804F0450008B9002DF6
:1005B000F7D115B104F0040028B10326042000F09F
:1005C00091FD304670BD04F0400028B10026402067
:1005D00000F088FD3046F5E73046F3E7342C014063
:1005E00010B501F089FC10BD0246094B9A4201D2B8
:1005F000084801E00648103801F000531BB1064BD3
:100600000B40C36002E0044B0B4083607047000066
:1006100010640240006002407D0F7D0F21B102682E
:1006200042F00102026003E0026822F0010202606F
:1006300070470000016821F00101016000210160A4
:1006400041608160C1600161212141614A49884264
:1006500004D13D21484A103A91608CE04649183156
:10066000884205D14FF47461434A103A916082E0A8
:1006700041493031884205D14FF474113E4A103A55
:10068000916078E03C494831884205D14FF074616F
:10069000394A103A91606EE037496031884204D19E
:1006A0003649354A103AD16065E03349783188429D
:1006B00004D13349304A103AD1605CE02E49903180
:1006C000884204D12F492C4A103AD16053E02A497C
:1006D000A831884205D14FF03D51274A103AD160E8
:1006E00049E02949884204D13D21274A083A11604E
:1006F00041E025491831884205D14FF47461224AFE
:10070000083A116037E020493031884205D14FF472
:1007100074111D4A083A11602DE01B494831884286
:1007200005D14FF07461184A083A116023E0164968
:100730006031884204D11149134A121F11601AE036
:1007400011497831884204D10D490F4A121F1160B6
:1007500011E00D499031884204D10A490A4A121F1A
:10076000116008E00849A831884204D14FF03D519A
:10077000054A121F11607047106002403D000020C2
:10078000400F002000003D201064024021B10268AB
:1007900042F02002026003E0026822F020020260C0
:1007A000704710B501F080034BB122B1436943F0AB
:1007B0008003436103E0436923F0800343618029A0
:1007C0000BD02AB1036801F01E042343036004E048
:1007D000036801F01E04A343036010BD10B500229E
:1007E0000268134B1A40CC680B6823434C692343BF
:1007F0008C692343CC6923430C6A23434C6A23430B
:100800008C6A23434C6B23438C6B23431A43026053
:10081000426922F00702D1E90B3423431A434261B3
:100820000B6943604B6883608B68C36010BD000038
:100830003F801CF07047000000B587B001210846DA
:1008400000F01EFB0121102000F02AFB00208DF893
:100850001A0001208DF81B0002208DF819008DF878
:1008600018000002059005A9174800F007F90220BA
:100870008DF818004002059005A9134800F0FEF815
:1008800007220A21104800F041F9072209210E48E9
:1008900000F03CF94FF4E13001900020ADF8080081
:1008A000ADF80A00ADF80C00ADF810000C20ADF862
:1008B0000E0001A9054802F04DF80121034802F09D
:1008C0002FF807B000BD00000000024000100140FA
:1008D00010B50346002000BF03E084181C54441CDC
:1008E000A0B28842F9D310BD2DE9FC4107460D4660
:1008F0000026002400200090019008205B49086039
:1009000010204860402088600020C8604FF480605C
:100910000861084600F088FC1020FFF711FD04462E
:1009200014B12046BDE8FC815148008800044F49BD
:10093000086037204860402088600020C8604FF47D
:1009400080600861084600F06FFC3720FFF7F8FC74
:1009500004460CB12046E5E74FF0FF3045490860FA
:1009600008204860302088600220C86000200861AC
:1009700001204861084600F0CDFB00203B4908609B
:1009800033204860402088600020C8604FF48060B9
:100990000861084600F048FC3320FFF7D1FC04460C
:1009A0000CB12046BEE709E04FF4001000F0DEFB7A
:1009B00020B100F033FC4DF82600761C2E4800686C
:1009C00040F22A6108400028EED0082000F0CEFB5B
:1009D00028B1082000F086FB04242046A2E702206C
:1009E00000F0C4FB28B1022000F07CFB022420466A
:1009F00098E7202000F0BAFB28B1202000F072FB1D
:100A0000062420468EE74FF4007000F0AFFB30B1B3
:100A10004FF4007000F066FB0724204682E740F2A6
:100A2000FF5000F05FFB00980006009901F47F4141
:100A300040EA0120009901F47F0140EA1120009969
:100A400040EA1160686001980006019901F47F4155
:100A500040EA0120019901F47F0140EA1120019947
:100A600040EA1160286020465CE70000D0000020CA
:100A700014000020E4000020342C0140F0B50A46A8
:100A800000210023002400BF3DE0012505FA01F309
:100A9000156805EA03049C4234D105684F0003261B
:100AA000BE40B543056015794E00B5400668354334
:100AB00005601579012D02D01579022D16D18568B2
:100AC0004F000326BE40B543856055794E00B540C2
:100AD000866835438560456801268E40B54345608C
:100AE000456896798E40B6B235434560C5684F007B
:100AF0000326BE40B543C560D5794E00B540C668F3
:100B00003543C560491C1029BFD3F0BDF0B50023A3
:100B100000244D07ED0E02FA05F3CE1000F120057A
:100B200055F826504E07F70E0F26BE40B543CF109E
:100B300000F1200646F82750CE1000F1200555F8A8
:100B4000265045EA0304CE1000F1200545F8264062
:100B5000F0BD0246002013690B400BB1012000E0FC
:100B6000002070474183704700BFFEE77CB5044614
:100B700000250020019000905F48008800045F4934
:100B800008600D204860402088600020C8604FF455
:100B900080600861084600F047FB594800680090F3
:100BA00002E0574800680090009800F045000028D7
:100BB000F7D0009800F0040028B10325042000F0CD
:100BC00091FA28467CBD009800F0010028B101256B
:100BD000012000F087FA2846F4E700F0C1FA0090FF
:100BE00000980D2802D010252846EBE740F2FF5070
:100BF00000F078FA002000F0D9FA01900198C0F3D3
:100C0000432020703F490198084008B92846D9E799
:100C1000019800F0004008B11C20D3E7019800F0D3
:100C2000804008B10920CDE7019800F0005008B1DC
:100C30000A20C7E7019800F0805008B10B20C1E7F7
:100C4000019800F0006008B10C20BBE7019800F0AB
:100C5000806008B10D20B5E7019800F0807008B100
:100C60000E20AFE7019800F4000008B10F20A9E7BB
:100C7000019800F4800008B11020A3E7019800F467
:100C8000001008B111209DE7019800F4801008B110
:100C9000122097E7019800F4002008B1132091E793
:100CA000019800F4802008B114208BE7019800F42B
:100CB000003008B1152085E7019800F4803008B1B4
:100CC00016207FE7019800F4004008B1172079E76B
:100CD000019800F4804008B1182073E7019800F4EF
:100CE000005008B119206DE7019800F0080008B124
:100CF0001A2067E7284665E714000020D00000208E
:100D0000342C014008E0FFFD1CB50121052000F056
:100D1000B7F80120009000208DF804008DF807003E
:100D200069460548FFF7AAFE4FF400500090694657
:100D30000248FFF7A3FE1CBD00000240000802406D
:100D400070B504460D4629462046FFF702FF0128EC
:100D500008D100BF29462046FFF7FBFE0128F9D045
:100D6000012070BD0020FCE71CB50121882000F0A7
:100D700087F84FF48060009001208DF80400002077
:100D80008DF8060001208DF8070000208DF8050081
:100D900069461348FFF772FE4FF400600090694601
:100DA0000F48FFF76BFE4FF48050009069460C48E7
:100DB000FFF764FE4FF40060009069460948FFF7B2
:100DC0005DFE4FF4806006491831088040000880BD
:100DD0004000088041100348FFF7C4FE1CBD00001E
:100DE000001C0240000C024000BFFEE770470000FC
:100DF00070B5002100230F22C4781CB3174C24685F
:100E000004F4E064C4F5E064C4F30721C1F1040410
:100E1000E3B20A4144789C40E1B284781440214313
:100E20000C07210E0E4C05786155047804F01F055F
:100E30000124AC4005786D11AD0005F1E025C5F841
:100E4000004109E0047804F01F050124AC40054D81
:100E50000678761145F8264070BD00000CED00E0E4
:100E600000E400E080E100E002490143024A116031
:100E7000704700000000FA050CED00E0704700002C
:100E800029B1064A12680243044B1A6004E0034A7F
:100E900012688243014B1A607047000030380240EC
:100EA00029B1064A12680243044B1A6004E0034A5F
:100EB00012688243014B1A607047000044380240B8
:100EC00029B1064A12680243044B1A6004E0034A3F
:100ED00012688243014B1A607047000024380240B8
:100EE000F0B5002100220024022500260223324F03
:100EF0003F6807F00C0121B1042905D0082937D13A
:100F000005E02E4F076036E02D4F076033E02A4F93
:100F10003F1F3F68C7F38056274F3F1F3F6807F0CA
:100F20003F036EB1264FB7FBF3F7DFF88CC0ACF18F
:100F3000040CDCF800C0CCF3881C07FB0CF40CE0BC
:100F40001E4FB7FBF3F7DFF870C0ACF1040CDCF810
:100F500000C0CCF3881C07FB0CF4174F3F1F3F6801
:100F6000C7F301477F1C7D00B4FBF5F7076002E083
:100F7000124F076000BF00BF0F4F3F6807F0F0013E
:100F80000909104F7A5C0768D74047600A4F3F68ED
:100F900007F4E051890A0B4F7A5C4768D7408760B5
:100FA000054F3F6807F46041490B064F7A5C47687C
:100FB000D740C760F0BD0000083802400024F400AC
:100FC00040787D01000000207CB50546002400200B
:100FD0000090019000F0EAF800F0007010B10E24CB
:100FE00020467CBD3D49098888B26946FFF77CFCF4
:100FF00004460CB12046F4E7012D36D1019800F4E7
:10100000802000282ED0354800880004344908602C
:1010100037204860402088600020C860A80208612E
:10102000084600F001F93720FFF78AF904460CB1B1
:101030002046D6E702202A49086006204860402062
:1010400088600020C8604FF480600861084600F0A6
:10105000EBF80620FFF774F904460CB12046C0E710
:101060002046BEE725242046BBE7019800F48030E7
:1010700078B31A480088000419490860372048608E
:10108000402088600020C8604FF4806008610846F6
:1010900000F0CAF83720FFF753F904460CB1204698
:1010A0009FE700200E4908600620486040208860C5
:1010B0000020C8604FF480600861084600F0B4F872
:1010C0000620FFF73DF904460CB1204689E720468B
:1010D00087E7FFE72524204683E70000140000206F
:1010E000D00000200149086070470000382C014002
:1010F0000149086070470000382C01400149086030
:1011000070470000A0802542014908607047000038
:101110008C85254200210B4B02681A601B1D42681A
:101120001A601A1D116821F0F701D0E902231A4351
:1011300003691A4343691A431143024A0832116092
:1011400070470000242C014010B50121C802FFF7B0
:10115000B7FE00214FF40060FFF7B2FE10BD0000A3
:1011600001480068C0B27047102C014001460020C1
:10117000034A12680A400AB1012000E000207047CB
:10118000342C014001460020034A12680A400AB18B
:10119000012000E000207047342C01400248006824
:1011A00000F0030070470000002C014008B5014624
:1011B000002000900248084400900098006808BD94
:1011C000142C014010B500F0ABFE10BD29B1064A49
:1011D00012680243044B1A6004E0034A1268824317
:1011E000014B1A60704700003C2C014000210A4A64
:1011F000116847F6FF629143027D83681A43436892
:101200001A43C3681A4303681A4303691A43114314
:10121000014A116070470000042C01400148006839
:1012200070470000802C01400021094B02681A60C1
:101230001A1D11686FF30A01D0E901231A43C3682C
:101240001A4303691A431143014A121D1160704782
:10125000082C01400149086070470000002C014043
:1012600008B5012000909DF8000008BD70B5044647
:10127000002520480068032802D12725284670BD94
:101280001C48006838B11B480068012803D0194881
:10129000006802282CD1B4F5805F02D127252846AA
:1012A000EDE7B4F5006F13D10120FFF78DFE054681
:1012B000F5B90020104908750860486088604FF44F
:1012C0000060C860002008610846FFF78FFF0FE04C
:1012D0000020FFF779FE054655B90020064908753C
:1012E000086048608860C86008610846FFF77EFFB4
:1012F0002846C4E710000020B80000202DE9FC4774
:1013000005460E46174698460024A1460020019047
:10131000009050484068202101EA105018B9252457
:101320002046BDE8FC874C480068C0B2801C4B4991
:10133000B1FBF0F001900020FFF738FF00F00070E3
:1013400010B10E242046ECE745480068022810D171
:101350000202002328463146FEF746FF05460E46A8
:101360004FF40072002338464146FEF73DFF074622
:1013700088463B48006838B139480068012803D0E6
:101380003748006802282BD13648056020203549AF
:101390004860402088600020C8604FF48060086189
:1013A0000846FFF741FF2020FEF7CAFF04460CB1B4
:1013B0002046B6E72B48076021202A494860402094
:1013C00088600020C8604FF4806008610846FFF71D
:1013D0002BFF2120FEF7B4FF04460CB12046A0E706
:1013E00000202049086026204860402088600020B6
:1013F000C8604FF4806008610846FFF715FF26209B
:10140000FEF79EFF04460CB120468AE74FF0000924
:1014100001E009F1010901988145FAD36846FFF717
:10142000A5FB04464FF0FF3905E06846FFF79EFB39
:101430000446A9F10109B9F1000F08D03CB99DF8A3
:1014400000000728F1D09DF800000628EDD02046C6
:1014500067E7000030000020042C0140C0D40100E8
:1014600010000020D00000201CB52748007840B9AB
:101470004FF44842002318461946FFF73FFF224920
:10148000087021480078A0B964204FF40071002250
:101490001346CDE900101D4800F010FE1A490870EF
:1014A00000F0D4FF1849087000BF00F0ECF90028E4
:1014B000FBD11548007830B94FF44841134801F08A
:1014C000E1FA134908701248007801280CD1800213
:1014D000104908804000891C08804000891E08804F
:1014E0000DA001F0A7FA0EE04FF4806009490880D2
:1014F000400008804000891C08800CA001F09AFA86
:101500000F4801F097FA1CBD2B000020FCCC0020F6
:1015100028000020181C02405344BFA8B2C1B3FDEC
:10152000B2E2CAD4B3C9B9A6A3A10A005344BFA862
:10153000B2C1B3FDB2E2CAD4CAA7B0DCA3A10A000B
:10154000002D0008F0B5014600200022C04B1B789A
:1015500081F85630BF4B1B88A1F85430BE4B1B6836
:101560001A0E93090B70C2F383034B7002F003034E
:101570008B70B94B1B68C3F30742CA70B64B1B880C
:10158000C3F307220A71B44B1A784A715B681A0ECA
:101590001301CB80B04B5B68C3F30742CB8843EAAF
:1015A0001213CB8002F00F030B72AB4B9B88C3F37B
:1015B0000722D3094B72C2F380138B72C2F340131C
:1015C000CB72C2F300130B7300234B73A04B1B6849
:1015D0001BB19F4B1B68012B4FD193071B0D0B6158
:1015E0009D4B1A790B6943EA82030B619A4B9B6806
:1015F0001A0E0B6943EA92130B61C2F3C2030B7517
:1016000002F007034B75944B9B68C3F307425309E1
:101610008B75C2F38203CB7593075B0F0B768E4BF2
:101620001B89C3F307220B7E43EAD2130B760B69A7
:101630005B1C0024C1E912340B7ED1E912649B1CAF
:10164000012505FA03F3DD17A6FB037C04FB03C3A6
:1016500006FB0533C1E912730C7A0123A3400B6525
:101660000027D1E912560B6DA5FB034C06FB03C303
:1016700005FB0733C1E9124336E0754B1B68022BAB
:1016800032D1754B1A7993069B0A0B61724B9B689A
:101690001A0E0B6943EA02230B616F4B9B68C3F37D
:1016A00007420B6913430B616B4B1B89C3F3072282
:1016B0000B6900245B1C64414FF400770026A3FBF8
:1016C000075C04FB07C403FB06474FF48066002455
:1016D0002B463D46A3FB067C05FB06C503FB0453D6
:1016E000C1E9127373100B65C2F3801301F8193F3F
:1016F00093065B0E4B70584B1A7A4B7843EAD21321
:101700004B7002F07F038B70534BDB681A0ED309CA
:10171000CB70C2F341130B71C2F382034B71930779
:101720001B0F8B714C4BDB68C3F307428B7943EA89
:1017300092138B71C2F34013CB7100230B7202F032
:1017400001034B72444B9B89C3F30722D3098B726D
:10175000C2F38013CB72C2F340130B73C2F30013B6
:101760004B73C2F381038B7302F00303CB733A4BC9
:101770001A7B53080B7401234B74384B1B681A0EE9
:10178000CA741939354B1B68C3F307421402CC8560
:10179000324B1B88C3F30722CB8D1343CB852F4BD2
:1017A0001A7814060C635B681A0E0B6B43EA02444A
:1017B0000C632A4B5B68C3F307420B6B43EA0224BA
:1017C0000C63264B9B88C3F307220B6B13430B63FD
:1017D000224B1A7934235A54204B9B681A0E352316
:1017E0005A541E4B9B68C3F3074214068C631B4B71
:1017F0001B89C3F307228B6B43EA02448C63174BAC
:101800001A7A8B6B43EA02248C63144BDB681A0E42
:101810008B6B13438B63114BDB68C3F307423C2391
:101820005B5C43EA12143C235C5413071C0DCC8709
:101830000A4B9B89C3F30722CB8F1343CB87074BFC
:101840001A7B540840235C54012441235C54F0BDAE
:101850001000002014000020300000204000002074
:1018600008B500200090FFF7FBFC012809D168466D
:1018700000F0BCFC08B1FF2008BD0098C0F3432075
:10188000FAE7FF20F8E710B50424FFF7E9FF044664
:10189000042C01D1002010BDFF2C01D10220FAE759
:1018A0000120F8E71CB5002001904FF4C060FFF75D
:1018B000DBFA31208DF8000001208DF801000020B6
:1018C0008DF8020001208DF803006846FFF790FABA
:1018D0003B208DF8000001208DF801006846FFF7DD
:1018E00087FA00F06DF9FFF72FFC00F035FA019050
:1018F0009DF8040010B19DF804001CBD00F032F802
:1019000001909DF8040010B19DF80400F5E7002057
:1019100012490875086048608860C8600861084618
:10192000FFF764FC0E48FFF70DFE01909DF80400E0
:1019300040B90B48B0F8540002041046002100F0F2
:1019400039FC01909DF8040020B94FF40060FFF7C6
:101950008DFC01909DF80400CFE70000B800002046
:101960006000002038B5002401200090FFF716FC2D
:1019700010B92524204638BD44480068042828D0E2
:1019800000204349086002204860C0208860002091
:10199000C8604FF4806008610846FFF745FCFEF719
:1019A00069FD04460CB12046E5E70020FFF7FEFB89
:1019B000384908600420FFF7F9FB364948600820E1
:1019C000FFF7F4FB334988600C20FFF7EFFB314948
:1019D000C8602E48006858B12C480068012807D01C
:1019E0002A480068062803D028480068022816D133
:1019F00000202749086003204860402088600020BC
:101A0000C8604FF4806008610846FFF70DFC694626
:101A10000320FEF771FD04460CB12046ABE71B48DE
:101A2000006804282ED0BDF800001B490860BDF8EE
:101A3000000000041649086009204860C020886042
:101A40000020C8604FF4806008610846FFF7ECFB97
:101A5000FEF710FD04460CB120468CE70020FFF78E
:101A6000A5FB0E4908600420FFF7A0FB0B49486066
:101A70000820FFF79BFB094988600C20FFF796FBC5
:101A80000649C8600024204675E7000010000020C9
:101A9000D000002040000020140000203000002072
:101AA00030B58FB004460D464FF0FA511E48FEF790
:101AB0009BFD00211C48FEF7B1FD1B48FEF7BAFD57
:101AC0004FF00060009019480190029400200390AC
:101AD00001200490002005904FF480600690800063
:101AE000079080000890002009904FF440300A9041
:101AF00004200B9003200C904FF400000D908010F8
:101B00000E9069460848FEF769FE0122102106483A
:101B1000FEF747FE20210448FEF738FE0121024867
:101B2000FEF77CFD0FB030BD58640240802C0140B0
:101B300030B58FB004460D464FF0FA511E48FEF7FF
:101B400053FD00211C48FEF769FD1B48FEF772FD9E
:101B50004FF00060009019480190029440200390DB
:101B600001200490002005904FF4806006908000D2
:101B7000079080000890002009904FF440300A90B0
:101B800004200B9003200C904FF400000D90801067
:101B90000E9069460848FEF721FE012210210648F2
:101BA000FEF7FFFD20210448FEF7F0FD0121024869
:101BB000FEF734FD0FB030BD58640240802C014068
:101BC0001CB501210C20FFF75BF90C2208212348EA
:101BD000FEF79CFF0C2209212048FEF797FF0C22FC
:101BE0000A211E48FEF792FF0C220B211B48FEF72C
:101BF0008DFF0C2211461948FEF788FF0C220221A6
:101C00001748FEF783FF4FF47060009002208DF8B4
:101C100005008DF8040000208DF8060001208DF8E5
:101C2000070069460D48FEF729FF04200090694629
:101C30000B48FEF723FF4FF48050009000208DF8F2
:101C4000070069460548FEF719FF0121C802FFF7A2
:101C500027F901218805FFF713F91CBD0008024090
:101C6000000C02401CB500224FF448412E48FEF7FC
:101C70002FFE2E480078A0B964204FF40071002296
:101C80001346CDE90010284800F0D6FC274908701B
:101C900000F01CFC2549087000BFFFF7F4FD002888
:101CA000FBD122480078A0B964204FF400710022D3
:101CB0001346CDE900101E4800F000FA1B490870D9
:101CC00000F0C4FB1949087000BFFFF7DCFD0028D5
:101CD000FBD11648007838B94FF4484214491248ED
:101CE000FEF704FB134908701248007801280CD154
:101CF0008002114908804000891C08804000891E2C
:101D000008800EA000F096FE0CE04FF480600A49B7
:101D1000891C08804000891E0880400008800D480A
:101D200000F088FE1CBD0000FC0400202B000020F9
:101D3000FCCC00202A000020181C02404D756C7459
:101D40006920626C6F636B20B2E2CAD4B3C9B9A6D2
:101D5000A3A10000602D0008F8B500200090002528
:101D600000240026002776205F49087500200860BF
:101D700048608860C86008610846FFF737FA0320AA
:101D8000FFF768FA0120FFF7B9F90020574908600A
:101D900048608860C8604FF4806008610846FFF7BB
:101DA00043FAFEF7B6FA00909DF8000010B19DF8D6
:101DB0000000F8BD4FF4D5704C4908600820486019
:101DC000402088600020C8604FF4806008610846A9
:101DD000FFF72AFAFEF7DEFB00909DF8000020B91D
:101DE000012043490860870712E000203F4908604E
:101DF00037204860402088600020C8604FF4806031
:101E000008610846FFF710FA3720FEF799FA0090AC
:101E10000020364908603720486040208860002054
:101E2000C8604FF4806008610846FFF7FDF937206D
:101E3000FEF786FA00909DF80000002851D13BE0A3
:101E400000202A4908603720486040208860002030
:101E5000C8604FF4806008610846FFF7E5F9372055
:101E6000FEF76EFA00909DF8000010B19DF800009A
:101E70009FE7204838431D490860292048604020DA
:101E800088600020C8604FF4806008610846FFF752
:101E9000CBF9FEF715FB00909DF8000010B19DF8FE
:101EA000000086E70020FFF781F90546012080EA5F
:101EB000D57080F00106641C1EB94FF6FF70844295
:101EC000BED34FF6FF70844204D31B2000909DF8D0
:101ED00000006EE705F08040051E02D00220044994
:101EE00008609DF8000064E7B8000020D0000020E2
:101EF000100000200000108010B50748006800F0B6
:101F0000C05040B10120054908604FF0C25102485D
:101F10005830FEF769FB10BD006402402400002029
:101F200010B54FF48070FFF72DF950B1002025490E
:101F300008704FF48070FFF7DBF801202249086039
:101F400037E00220FFF71EF930B10220FFF7D0F88A
:101F500002201C4908702CE00820FFF713F930B16B
:101F60000820FFF7C5F804201649087021E020205A
:101F7000FFF708F930B12020FFF7BAF80620114921
:101F8000087016E01020FFF7FDF830B11020FFF7C1
:101F9000AFF805200B4908700BE04FF40070FFF715
:101FA000F1F830B14FF40070FFF7A2F807200549AF
:101FB000087000214CF23A30FFF708F90148007828
:101FC00010BD00001C000020200000202DE9F04181
:101FD000804614461D46069E0027002030490870A2
:101FE000304908603049086030490860012140F2FA
:101FF0002A30FFF7EBF80120FFF786F8314640461C
:10200000FFF74EFD2A480068022808D106020202A6
:10201000002320462946FEF7E7F804460D462548EA
:102020000660102023494860402088600020C86076
:102030004FF4806008610846FFF7F6F81020FEF7BD
:102040007FF9074617B13846BDE8F0814FF0FF3001
:102050001949086008464660902088600220C860E0
:1020600000200861012048610846FFF753F8114835
:10207000046011200F494860402088600020C8603B
:102080004FF4806008610846FFF7CEF81120FEF794
:1020900057F907460FB13846D6E73846D4E700006F
:1020A0001C00002020000020180000202C2C0140E3
:1020B00010000020D0000020E40000202DE9F047AF
:1020C000814614461D46DDE9086800270020324994
:1020D0000870324908600120314908600020314908
:1020E0000860012140F22A30FFF770F808FB06F182
:1020F0004846FFF7D5FC0120FFF706F82A4800689C
:10210000022808D106020202002320462946FEF7D3
:102110006BF804460D4625480660102023494860A8
:10212000402088600020C8604FF480600861084645
:10213000FFF77AF81020FEF703F9074617B1384683
:10214000BDE8F0874FF0FF301949086008FB06F042
:102150004860902088600220C8600020086101204B
:1021600048610846FEF7D6FF1048046012200F4968
:102170004860402088600020C8604FF4806008619B
:102180000846FFF751F81220FEF7DAF807460FB1BC
:102190003846D5E73846D3E71C0000202000002051
:1021A000180000202C2C014010000020D00000203E
:1021B000E400002070B504460D4600260A4804607D
:1021C000072009494860402088600020C8604FF41B
:1021D000806008610846FFF727F80720FEF7B0F88F
:1021E0000646304670BD0000D000002070B50446A1
:1021F000002514B92625284670BD0F480088000424
:102200000E4908600D204860402088600020C860AA
:102210004FF4806008610846FFF706F80D20FEF7CE
:102220008FF805460DB12846E6E70020FEF7BEFF11
:1022300020602846E0E7000014000020D0000020C5
:1022400008B543F20F224FF400712C48FEF740FB13
:102250002B48007890B94FF400700022134600908C
:10226000264800F073F92649087000F02FF9244938
:10227000087000BFFFF707FB0028FBD1204800785B
:1022800090B94FF400700022134600901D48FFF7EC
:102290009DFE1B49087000F0D9F81949087000BF6D
:1022A000FFF7F1FA0028FBD11548007838B94FF450
:1022B000007214491148FEF719F8134908701248C2
:1022C000007801280CD18002104908804000891C48
:1022D00008804000891E08800DA000F0ABFB0CE0D8
:1022E0004FF480600949891C08804000891E0880DD
:1022F000400008800D4800F09DFB08BDFC00002058
:102300002B000020FC02002029000020181C0240A5
:1023100053696E676C6520626C6F636B20B2E2CAB2
:10232000D4B3C9B9A6A3A10A00000000B82C0008C4
:1023300010B5002400200A4908600C2048604020A5
:1023400088600020C8604FF4806008610846FEF78E
:102350006BFF0C20FDF7F4FF0446204610BD000083
:10236000D000002010B54FF4806021490880400063
:1023700008804000891C0880FFF794FA1D49087006
:1023800068B14FF480601A49891C08804000891E9A
:1023900008804000088018A000F04CFB02E026A056
:1023A00000F048FB1348007800BB4FF480601049F0
:1023B0000880400008804000891C0880FFF754F81E
:1023C0004FF480600A490880400008804000891C62
:1023D0000880FFF735FF4FF4806005490880400012
:1023E00008804000891C0880FFF73CFC10BD0000FD
:1023F000181C02402B0000205344BFA8B3F5CABCF0
:10240000BBAFCAA7B0DCA3ACC7EBC8B7B1A35344FA
:10241000BFA8D2D1D5FDC8B7BDD3C8EBBFAAB7A25C
:10242000B0E5A3ACBBF2BBBBD2BBD5C55344BFA880
:10243000B2E2CAD4A3A10A005344BFA8B3F5CABCF0
:10244000BBAFB3C9B9A6A3A10A00000070B50025AF
:102450006C1E00E0641E1848006838B91748006810
:1024600020B91748007808B9002CF3D10020124990
:102470000860441E00E0641E1248006800F400502A
:1024800008B1002CF7D110480068012805D1FFF7EA
:102490004FFF054600200C4908600CB905B904251A
:1024A00040F2FF50FEF71EFE0548007810B10448C8
:1024B000007870BD2846FCE72400002020000020A2
:1024C0001C000020342C01401800002070B50025AD
:1024D0006C1E00E0641E1848006838B91748006890
:1024E00020B91748007808B9002CF3D10020124910
:1024F0000860441E00E0641E1248006800F480502A
:1025000008B1002CF7D110480068012805D1FFF769
:102510000FFF054600200C4908600CB905B90425D9
:1025200040F2FF50FEF7DEFD0548007810B1044888
:10253000007870BD2846FCE7240000202000002021
:102540001C000020342C0140180000202DE9F0412F
:10255000804614461D46069E002700202F4908701D
:102560002F4908602F4908602F490860012140F277
:102570002A30FEF72BFE31464046FFF7D9FA0120FC
:10258000FEF7C2FD29480068022808D106020202AF
:10259000002320462946FDF727FE04460D46244821
:1025A0000660102022494860402088600020C860F2
:1025B0004FF4806008610846FEF736FE1020FDF7F4
:1025C000BFFE074617B13846BDE8F08118480460E1
:1025D000182017494860402088600020C8604FF4E8
:1025E000806008610846FEF71FFE1820FDF7A8FE70
:1025F00007460FB13846E7E74FF0FF300D49086056
:1026000008464660902088600020C860086101206C
:1026100048610846FEF77EFD3846D5E71C000020DD
:1026200020000020180000202C2C01401000002069
:10263000D0000020E40000202DE9F0478146154637
:102640001E46DDE908780024002049490870494900
:1026500008600120484908600020484908600121BD
:1026600040F21A30FEF7B2FD08FB07F14846FFF7CB
:102670005FFA0120FEF748FD41480068022808D1B2
:1026800007020202002328463146FDF7ADFD05464C
:102690000E463C48076010203A4948604020886058
:1026A0000020C8604FF4806008610846FEF7BCFD5A
:1026B0001020FDF745FE044614B12046BDE8F08722
:1026C0003148008800042F490860372048604020C6
:1026D00088600020C8604FF4806008610846FEF7FB
:1026E000A3FD3720FDF72CFE04460CB12046E5E79C
:1026F0002448C0F8008017202249486040208860A4
:102700000020C8604FF4806008610846FEF78CFD29
:102710001720FDF715FE04460CB12046CEE71948F8
:102720000560192017494860402088600020C86073
:102730004FF4806008610846FEF776FD1920FDF72A
:10274000FFFD04460CB12046B8E74FF0FF300F49BB
:10275000086008FB07F04860902088600020C8608F
:102760000861012048610846FEF7D4FC2046A5E731
:102770001C00002020000020180000202C2C01400C
:1027800010000020D000002014000020E4000020F1
:10279000704700000CB5002001900090414800688F
:1027A00040F480303F49086000BF3E48006800F4B4
:1027B000003000900198401C0190009818B90198D1
:1027C000B0F5A04FF1D13748006800F4003010B1E7
:1027D0000120009001E0002000900098012860D1C5
:1027E00030484030006840F080502E494031086049
:1027F0002D48006840F440402B49086029480830C3
:1028000000682849083108600846006840F4004024
:1028100008600846006840F4A05008602348091F7B
:102820000860081F006840F08070091F086000BF42
:102830001C48006800F000700028F9D01A480068B1
:1028400040F480301849086000BF1748406800F421
:1028500080300028F9D01448006840F40030124954
:10286000086000BF1048406800F400300028F9D02C
:1028700040F205700E4908600A480830006820F0F0
:1028800003000849083108600846006840F002006B
:10289000086000BF03480830006800F00C000828FA
:1028A000F8D10CBD0038024000700040195A4007B2
:1028B000003C02407047000010B51548006840F425
:1028C0007000134908601348006840F00100114986
:1028D000086000200F49083108600E4800680E4962
:1028E00008400C4908600D48091D0860081F006871
:1028F00020F48020091F0860002006490C31086080
:10290000FFF748FF4FF0006001498039086010BDB3
:1029100088ED00E000380240FFFFF6FE1030002492
:1029200021B1828942F40052828104E082894DF60D
:10293000FF731A408281704702460020B1F5007F84
:1029400000D100BF13880B400BB1012000E0002034
:10295000704700002DE9FF4705460E460024A146BA
:1029600000BFA046B08900B100BF2C8A24F44054B7
:10297000F08804432C82AC8941F20C608443B08817
:1029800031890843718908430443AC81AC8A24F43B
:102990004074B0890443AC826846FEF7A1FA20482F
:1029A000854202D01F48854202D1DDF80C9001E03B
:1029B000DDF80890A88900F4004040B109EBC90097
:1029C00000EB091031684900B0FBF1F707E009EBB3
:1029D000C90000EB091031688900B0FBF1F76420F1
:1029E000B7FBF0F004012009642101FB1078A889ED
:1029F00000F4004040B1322000EBC800B0FBF1F021
:102A000000F00700044308E0322000EB08106421C6
:102A1000B0FBF1F000F00F0004432C81BDE8FF870C
:102A20000010014000140140C1F308028280704789
:102A300000BFFEE7014A024900F013B8A52A0008CA
:102A40002C00002002E008C8121F08C1002AFAD199
:102A500070477047002001E001C1121F002AFBD11E
:102A600070472DE9F04116460F460446002503E065
:102A70003946B047641C6D1C20780028F8D12846E0
:102A8000BDE8F081024607E01078FF2803D01078F7
:102A900008B100207047521C081EA1F10101F3D1BA
:102AA0000120F7E770B504460D46E1B20548FFF78F
:102AB000BBFF00BF80210348FFF73EFF0028F9D08D
:102AC000204670BD00100140FDF7F0FBFEF74CF909
:102AD0004FF4806014490880400008804000891C41
:102AE0000880FEF711F9FDF7A7FE10A0FFF7A2FF7F
:102AF00018A0FFF79FFF25A0FFF79CFF3348FFF7C3
:102B000099FF3348FFF796FF32A0FFF793FF0AE0E3
:102B100001213F48FEF714F9012804D13DA0FFF739
:102B200089FFFFF71FFCF3E7181C02400D0ABBB634
:102B3000D3ADCAB9D3C3D2B0BBF0202053544D3368
:102B400032204634323920BFAAB7A2B0E5A1A30D86
:102B50000A000000D4DABFAACABCBDF8D0D05344E2
:102B6000BFA8BBF9B1BEB2E2CAD4C7B0A3ACC7EB31
:102B7000B8F8BFAAB7A2B0E5B2E5C8EB333247D286
:102B8000D4C4DAB5C45344BFA80D0A00B1BEB3CC57
:102B9000D0F2BBE1B6D45344BFA8BDF8D0D020B723
:102BA000C7CEC4BCFECFB5CDB320B7BDCABDB6C17C
:102BB000D0B4A3ACBBE1C9BEB3FD5344BFA8B5C4F8
:102BC000CEC4BCFECFB5CDB30D0A0000742C0008F6
:102BD000302C00080D0A20C8F4D2D1C8B7C8CFA342
:102BE000ACC7EBB0B4BFAAB7A2B0E5B5C44B45596A
:102BF00031B0B4BCFCA3ACBFAACABC5344BFA8B29A
:102C0000E2CAD4CAB5D1E92E2E2E2E0D0A0000003C
:102C1000000002400D0ABFAACABCBDF8D0D0534480
:102C2000BFA8B6C1D0B4CAB5D1E90D0A00000000F2
:102C30000D0A20B5AB7364BFA8C4DAB5C4D4ADCE59
:102C4000C4BCFEB2BBBFC9BBD6B8B4A3ACCAB5D175
:102C5000E9C7B0CEF1B1D8B1B8B7DD5344BFA8C40D
:102C6000DAB5C4D4ADCEC4BCFEA3A1A3A1A3A10D6B
:102C70000A000000CAB5D1E9BAF3BFC9CDA8B9FDB1
:102C8000B5E7C4D4B8F1CABDBBAFBBF2CAB9D3C3B0
:102C90005344BFA8CEC4BCFECFB5CDB3B5C4C0FDB0
:102CA000B3CCBBD6B8B45344BFA8CEC4BCFECFB5DA
:102CB000CDB30D0A0000000053696E676C65206299
:102CC0006C6F636B20B2E2CAD4CAA7B0DCA3ACC7F6
:102CD000EBC8B7B1A35344BFA8D5FDC8B7BDD3C88F
:102CE000EBBFAAB7A2B0E5A3ACBBF2BBBBD2BBD5CE
:102CF000C55344BFA8B2E2CAD4A3A10A0000000091
:102D0000CEC2DCB0CCE1CABEA3BAB2BFB7D6534480
:102D1000BFA8B2BBD6A7B3D6B2C1B3FDB2E2CAD484
:102D2000A3ACC8F45344BFA8C4DCCDA8B9FDCFC23E
:102D3000C3E6B5C473696E676C65B6C1D0B4B2E260
:102D4000CAD4A3ACBCB4B1EDCABE5344BFA8C4DC62
:102D5000B9BBD5FDB3A3CAB9D3C3A1A30A00000070
:102D60004D756C746920626C6F636B20B2E2CAD4DB
:102D7000CAA7B0DCA3ACC7EBC8B7B1A35344BFA884
:102D8000D5FDC8B7BDD3C8EBBFAAB7A2B0E5A3AC09
:102D9000BBF2BBBBD2BBD5C55344BFA8B2E2CAD4B9
:102DA000A3A10000C42D0008000000203000000096
:102DB000442A0008F42D000830000020D0980100BB
:102DC000542A000800000000010203040102030469
:102DD00006070809000000000000000000000000D5
:102DE00000000000000000000000000000000000E3
:042DF00000000000DF
:04000005080001AD41
:00000001FF
