:020000040800F2
:1000000028040020C5010008B91F0008BB1F000814
:10001000BF1F0008C31F0008C71F00080000000022
:10002000000000000000000000000000CD1F0008DC
:10003000CB1F000800000000CF1F0008D11F0008E0
:10004000DF010008DF010008DF010008DF01000810
:10005000DF010008DF010008DF010008DF01000800
:10006000DF010008DF010008DF010008DF010008F0
:10007000DF010008DF010008DF010008DF010008E0
:10008000DF010008DF010008DF010008DF010008D0
:10009000DF010008DF010008DF010008DF010008C0
:1000A000DF010008DF010008DF010008DF010008B0
:1000B000DF010008DF010008DF010008DF010008A0
:1000C000DF010008DF010008DF010008DF01000890
:1000D000DF010008DF010008DF010008DF01000880
:1000E000DF010008DF010008DF010008DF01000870
:1000F000DF010008DF010008DF010008DF01000860
:10010000DF010008DF010008DF010008DF0100084F
:10011000DF010008DF010008DF010008DF0100083F
:10012000DF010008DF010008DF010008DF0100082F
:10013000DF010008DF010008DF010008DF0100081F
:10014000DF010008DF010008DF010008DF0100080F
:10015000DF010008DF010008DF010008DF010008FF
:10016000DF010008DF010008DF010008DF010008EF
:10017000DF010008DF010008DF010008DF010008DF
:10018000DF010008DF010008DF010008DF010008CF
:10019000DF010008DF010008DF010008DF010008BF
:1001A000DF010008DF010008DF010008DFF810D0E0
:1001B00002F056F800480047CB1E0008AFF300805D
:1001C000280400200648804706480047FEE7FEE76F
:1001D000FEE7FEE7FEE7FEE7FEE7FEE7FEE7FEE7F7
:1001E000F9020008AD0100080CB500200190009054
:1001F0008348006840F480308149086000BF80482F
:10020000006800F4003000900198401C01900098B4
:1002100018B90198B0F5A04FF1D17948006800F401
:10022000003010B10120009001E000200090009803
:10023000012860D172484030006840F08050704919
:10024000403108606F48006840F440406D490860E4
:100250006B48083000686A49083108600846006841
:1002600040F4004008600846006840F4A050086070
:100270006548091F0860081F006840F08070091F6A
:10028000086000BF5E48006800F000700028F9D0E8
:100290005C48006840F480305A49086000BF594803
:1002A000406800F480300028F9D05648006840F4D7
:1002B00000305449086000BF5248406800F40030E4
:1002C0000028F9D040F20570504908604C480830C9
:1002D000006820F003004A490831086008460068B9
:1002E00040F00200086000BF45480830006800F098
:1002F0000C000828F8D10CBD10B54548006840F442
:100300007000434908603E48006840F001003C49E5
:10031000086000203A4908310860394800683D49C2
:100320000840374908603C48091D0860081F0068FC
:1003300020F48020091F0860002031490C3108603A
:10034000FFF752FF4FF0006031498039086010BD5F
:1003500070B500200022022300240221284D083518
:100360002D6805F00C0020B1042806D0082834D1EF
:1003700007E02A4D2A4E356033E02A4D284E35607D
:100380002FE01F4D2D1D2D68C5F380541C4D2D1DD4
:100390002D6805F03F0154B1224DB5FBF1F5184E23
:1003A000361D3668C6F3881605FB06F209E01B4DBC
:1003B000B5FBF1F5124E361D3668C6F3881605FBFF
:1003C00006F20F4D2D1D2D68C5F301456D1C6B0008
:1003D000B2FBF3F5124E356003E0104D104E356060
:1003E00000BF00BF064D08352D68C5F303150E4E3E
:1003F000705D0B4D2D68C540094E356070BD000025
:100400000038024000700040195A4007003C02408A
:1004100088ED00E0FFFFF6FE103000240024F40019
:100420000000002040787D010400002010B5044643
:100430009848844208D10121084600F087FB00213A
:10044000012000F083FB76E09348844208D101212B
:10045000022000F07BFB0021022000F077FB6AE025
:100460008E48844208D10121042000F06FFB002156
:10047000042000F06BFB5EE08948844208D1012132
:10048000082000F063FB0021082000F05FFB52E031
:100490008448844208D10121102000F057FB00213C
:1004A000102000F053FB46E07F48844208D1012130
:1004B000202000F04BFB0021202000F047FB3AE019
:1004C0007A48844208D10121402000F03FFB0021FE
:1004D000402000F03BFB2EE07548844208D101210A
:1004E000802000F033FB0021802000F02FFB22E071
:1004F0007048844208D10121801500F027FB0021BB
:10050000A01500F023FB16E06B48844208D10121BE
:10051000401500F01BFB0021601500F017FB0AE0FE
:100520006648844207D10121001500F00FFB00212D
:10053000201500F00BFB10BDF0B50A46002100238A
:10054000002400BF3DE0012505FA01F3156805EA26
:1005500003049C4234D105684F000326BE40B543D6
:10056000056015794E00B54006683543056015797C
:10057000012D02D01579022D16D185684F00032672
:10058000BE40B543856055794E00B5408668354319
:100590008560456801268E40B5434560456896797B
:1005A0008E40B6B235434560C5684F000326BE4055
:1005B000B543C560D5794E00B540C6683543C560C2
:1005C000491C1029BFD3F0BD4FF6FF710160002117
:1005D000017141718171C171704708B54FF480326A
:1005E0000092009A0A430092009AC261C161009A87
:1005F000C261C2690092C269009208BD0246002031
:1006000013690B400BB1012000E000207047014648
:10061000086980B270470246002053690B400BB155
:10062000012000E0002070470146486980B2704711
:1006300001837047418370470AB1018300E0418321
:1006400070474161704742694A4042617047F0B566
:10065000002300244D07ED0E02FA05F3CE1000F141
:10066000200555F826504E07F70E0F26BE40B5431D
:10067000CF1000F1200646F82750CE1000F12005DB
:1006800055F8265045EA0304CE1000F1200545F840
:100690002640F0BD00000240000402400008024075
:1006A000000C0240001002400014024000180240FA
:1006B000001C0240002002400024024000280240AA
:1006C000F648006840F00100F44908600020F34952
:1006D00008310860F1480068F1490840EF490860B6
:1006E000F048091D0860F048EC4984310860ED4885
:1006F0001038091D0860E948006820F48020E749A7
:1007000008600020E5490C310860E4498C3108603C
:1007100070470021E14A921C117011460870704721
:1007200010B501460022002300204A11012A02D1FF
:10073000DA4C236808E0022A03D1D84C70342368CD
:1007400002E0D64C7434236801F01F020124944067
:100750001C400CB1012000E0002010BD38B5002085
:1007600000900024002500BF3120FFF7D9FF054687
:100770000098401C00900098B0F5A04F01D0002DCB
:10078000F2D03120FFF7CCFF08B1012400E00024B3
:10079000204638BD01460020C04A106820F0F8000D
:1007A00040EAC10010607047C049086070470021EE
:1007B000BA4A703211701170012802D004280AD18F
:1007C00004E00121B54A7032117005E00521B34AF9
:1007D0007032117000E000BF00BF7047B44908607C
:1007E000704770B5049C41EA82150126C6EB53069A
:1007F00045EA0645054345EA0465A84E361D3560C1
:1008000070BDAA490866704710B5830143EA0163C9
:1008100043EA0273A14C8434236010BDA349886667
:10082000704710B5830143EA016343EA02739B4CAE
:100830008834236010BD9D49086770479B49C86490
:10084000704702460020954B0833186820F0EC6092
:1008500042EA01031843914B08331860704702467F
:1008600000208E4B0833186820F0784042EA0103DC
:1008700018438A4B08331860704701460020874AA6
:100880000832106820F00300084310607047834866
:100890000830006800F00C007047014600207F4AD5
:1008A0000832106820F0F0000843106070470146DD
:1008B00000207A4A0832106820F4E05008431060A3
:1008C000704701460020754A0832106820F46040E5
:1008D00040EAC10010607047F0B5002100220024FA
:1008E0000225002602236D4F08373F6807F00C01F0
:1008F00021B1042905D0082937D105E06D4F0760E3
:1009000036E06D4F076033E0644F3F1D3F68C7F32B
:100910008056624F3F1D3F6807F03F036EB1664F40
:10092000B7FBF3F7DFF874C10CF1040CDCF800C07E
:10093000CCF3881C07FB0CF40CE05E4FB7FBF3F71D
:10094000DFF858C10CF1040CDCF800C0CCF3881CB3
:1009500007FB0CF4514F3F1D3F68C7F301477F1C55
:100960007D00B4FBF5F7076002E0524F076000BF5F
:1009700000BF4A4F08373F6807F0F00109094F4FA1
:100980007A5C0768D7404760444F08373F6807F4F0
:10099000E051890A494F7A5C4768D74087603F4FEA
:1009A00008373F6807F46041490B444F7A5C476859
:1009B000D740C760F0BD002100F44072B2F5407F1F
:1009C0000AD1364A0832116821F4F8113C4A024033
:1009D0001143324A08321160304A70321268C0F353
:1009E0000B031A432D4B70331A607047304944395A
:1009F000086070472E4940390860704731490860E7
:100A0000704701460020254A8C32106820F44010BF
:100A100008431060704701460020204A8C3210685D
:100A200020F44000084310607047014600201B4A34
:100A30008C32106820F01F004A1E1043174A8C3277
:100A40001060704701460020144A8C32106820F470
:100A5000F8504A1E40EA0220104A8C32106070475B
:100A6000014600200D4A8C32106820F440300843C3
:100A70001060704714490860704739B1074A303236
:100A800012680243054B30331A6006E0034A3032E5
:100A900012688243014B30331A60704700380240BD
:100AA000FFFFF6EA1030002400300020000047422B
:100AB000800E47420024F40040787D01140000209D
:100AC000FFFCFF0F5C014742E011474229B1934A06
:100AD00012680243914B1A6004E0904A1268824304
:100AE0008E4B1A60704739B18C4A121D126802434E
:100AF0008A4B1B1D1A6006E0884A121D1268824349
:100B0000864B1B1D1A60704739B1844A0C3212683B
:100B10000243824B0C331A6006E0804A0C321268A2
:100B200082437E4B0C331A60704739B17B4A1032D6
:100B300012680243794B10331A6006E0774A10328C
:100B400012688243754B10331A60704739B1734A8B
:100B5000243A12680243714B243B1A6006E06F4A44
:100B6000243A126882436D4B243B1A60704739B1B6
:100B70006A4A203A12680243684B203B1A6006E03A
:100B8000664A203A12688243644B203B1A607047E1
:100B900039B1624A1C3A12680243604B1C3B1A602E
:100BA00006E05E4A1C3A126882435C4B1C3B1A60AA
:100BB000704739B1594A143A12680243574B143BF3
:100BC0001A6006E0554A143A12688243534B143BAC
:100BD0001A60704739B1514A103A126802434F4BBC
:100BE000103B1A6006E04D4A103A126882434B4BA4
:100BF000103B1A60704739B1484A1C3212680243F0
:100C0000464B1C331A6006E0444A1C321268824389
:100C1000424B1C331A60704739B1404A2032126887
:100C200002433E4B20331A6006E03C4A20321268F1
:100C300082433A4B20331A60704739B1374A243225
:100C400012680243354B24331A6006E0334A2432DB
:100C500012688243314B24331A60704739B12F4AEE
:100C60002C32126802432D4B2C331A6006E02B4ABB
:100C70002C3212688243294B2C331A60704739B1E9
:100C8000264A303212680243244B30331A6006E0A1
:100C9000224A303212688243204B30331A60704748
:100CA000012808D11D493C31096841F008011B4A5F
:100CB0003C32116007E019493C31096821F0080114
:100CC000164A3C321160704739B1144A273A1278FB
:100CD0000243124B273B1A7006E0104A273A12785B
:100CE00082430E4B273B1A7070470C484030006817
:100CF00040F080700949403108607047014600208B
:100D0000064A283A12680A400AB1012000E0002091
:100D10007047024926390870704700003438024095
:100D200010B501214020FFF722FF00214020FFF7EE
:100D30001EFF10BD30B12149096841F004011F4A6E
:100D4000116005E01D49096821F004011B4A11608A
:100D500070471A4808300068704730B11749096871
:100D600041F00801154A116005E01449096821F0B5
:100D70000801124A11607047014600200F4A121DF7
:100D800012680A400AB1012000E0002070476FEAB3
:100D900000110A4A121D1160704701460020074ADF
:100DA000121D12680A400AB1012000E000207047BD
:100DB000C143C9B2014A121D1160704700080650B4
:100DC00010B50446FE48844208D101210846FFF7C9
:100DD00001FF00210120FFF7FDFE9DE0B4F1804FEF
:100DE00008D101210846FFF7E4FE00210120FFF7AA
:100DF000E0FE91E0F348844208D101210220FFF790
:100E0000D8FE00210220FFF7D4FE85E0EE488442A0
:100E100008D101210420FFF7CCFE00210420FFF7B8
:100E2000C8FE79E0E948844208D101210820FFF793
:100E3000C0FE00210820FFF7BCFE6DE0E4488442BC
:100E400008D101211020FFF7B4FE00211020FFF788
:100E5000B0FE61E0DF48844208D101212020FFF785
:100E6000A8FE00212020FFF7A4FE55E0DA488442C6
:100E700008D101210220FFF7ADFE00210220FFF77B
:100E8000A9FE49E0D548844209D101210804FFF7B1
:100E9000A1FE00214FF48030FFF79CFE3CE0D048DB
:100EA000844209D101214804FFF794FE00214FF448
:100EB0000030FFF78FFE2FE0CA48844209D101219C
:100EC0008804FFF787FE00214FF48020FFF782FEA1
:100ED00022E0C548844208D101214020FFF769FE85
:100EE00000214020FFF765FE16E0C048844208D18B
:100EF00001218020FFF75DFE00218020FFF759FED1
:100F00000AE0BB48844207D101218015FFF751FE5A
:100F10000021A015FFF74DFE10BD00220288A84B4E
:100F200098420ED0AC4B98420BD0B0F1804F08D015
:100F3000A44B984205D0A44B984202D0A34B9842B0
:100F400004D14FF68F731A404B881A43A04B984236
:100F500007D0A04B984204D04FF6FF431A400B89AC
:100F60001A4302804B68C3620B880385944B9842F6
:100F700002D0994B984201D18B7A03860123838258
:100F800070474FF0FF3141600021018001814180B5
:100F9000817270470185828270470A46002101886C
:100FA0004FF68F73194011430180704741627047BB
:100FB000C16270470146486A70470146088D704714
:100FC00021B1028842F00202028004E002884FF65A
:100FD000FD731A400280704721B1028842F004027A
:100FE000028004E002884FF6FB731A4002807047CB
:100FF00021B1028842F08002028004E002884FF6AC
:101000007F731A400280704702884FF6F7731A40C8
:10101000028002880A430280704702884FF6FF432D
:101020001A40028002880A430280704721B1028878
:1010300042F00102028004E002884FF6FE731A407B
:101040000280704770B5002400220023058C4FF603
:10105000FE7635400584028C8388048B4FF68F75AD
:101060002C40B51E2C400D882C43751E2A408D89BE
:101070002A434D882A43524DA84202D0564DA842D9
:1010800013D14FF6F7752A40CD892A434FF6FB75E9
:101090002A408D882A434FF6FF652B404FF6FF55B7
:1010A0002B400D8A2B434D8A2B43838004838D680C
:1010B0004563028470BD70B5002400220023058CB6
:1010C0004FF6EF7635400584028C8388048B48F612
:1010D000FF752C404FF6FF452C400D884FF6FF76EC
:1010E00006EA05252C434FF6DF752A408D8906EA6E
:1010F00005152A434D8806EA05152A43304DA842B6
:1011000002D0354DA8421DD14FF67F752A40CD89BA
:101110004FF6FF7606EA05152A434FF6BF752A40BB
:101120008D8806EA05152A434FF6FF352B404FF20E
:10113000FF752B400D8A06EA85052B434D8A06EA8A
:1011400085052B43838004838D688563028470BD8D
:1011500070B5002400220023058C4FF6FF66354051
:101160000584028C8388848B4FF68F752C404FF654
:10117000FC752C400D882C434FF6FF552A408D8975
:101180004FF6FF7606EA05252A434D8806EA05252F
:101190002A430B4DA84202D00F4DA84238D14FF23E
:1011A000FF752A40CD894FF6FF7606EA05252A43CA
:1011B0004FF6FF352A408D8806EA05252A4319E0B7
:1011C000000001400004004000080040000C004006
:1011D00000100040001400400004014000400140A5
:1011E000004401400048014000180040001C00403D
:1011F000002000404EF6FF752B404DF6FF752B404A
:101200000D8A06EA05152B434D8A06EA05152B4380
:10121000838084838D68C563028470BD70B50022AD
:1012200000230024058C4EF6FF7635400584038CA0
:101230008488828B48F6FF752A404FF6FF452A4086
:101240000D884FF6FF7606EA05252A434DF6FF7511
:101250002B408D8906EA05352B434D8806EA053576
:101260002B43FE4DA84202D0FD4DA84208D14BF6BB
:10127000FF752C400D8A4FF6FF7606EA85152C4344
:10128000848082838D680564038470BD00210180A1
:101290004180818081608181C1810182418270476A
:1012A00070B50346002000241846183001258D40F3
:1012B000ACB21D8CA5431D8409B108290AD100EBED
:1012C000610005684FF68F76354005600568154367
:1012D00005600FE00D1FC5F34E052844056848F66C
:1012E000FF763540056005684FF6FF7606EA022670
:1012F0003543056070BD4163704781637047C163CA
:101300007047016470470A460021018B4FF68F73C6
:1013100019401143018370470A460021018B48F6AA
:10132000FF7319404FF6FF7303EA02231943018349
:1013300070470A460021818B4FF68F731940114385
:10134000818370470A460021818B48F6FF7319405C
:101350004FF6FF7303EA02231943818370470A465D
:101360000021018B4FF6F773194011430183704739
:101370000A460021018B4FF2FF7319404FF6FF73AD
:1013800003EA02231943018370470A460021818B37
:101390004FF6F77319401143818370470A460021C5
:1013A000818B4FF2FF7319404FF6FF7303EA02235C
:1013B0001943818370470A460021018B4FF6FB7366
:1013C00019401143018370470A460021018B4FF6F3
:1013D000FF3319404FF6FF7303EA022319430183D9
:1013E00070470A460021818B4FF6FB731940114369
:1013F000818370470A460021818B4FF6FF331940E5
:101400004FF6FF7303EA02231943818370470A46AC
:101410000021018B4FF67F73194011430183704700
:101420000A460021018BC1F30E014FF6FF7303EA58
:1014300002231943018370470A460021818B4FF62E
:101440007F7319401143818370470A460021818BC5
:10145000C1F30E014FF6FF7303EA022319438183A0
:1014600070470A460021018C4FF6FD731940114365
:10147000018470470A460021018C4FF6F77319402A
:101480001143018470470A460021018C4FF6DF7337
:1014900019404FF6FF7303EA0213194301847047A2
:1014A0000A460021018C4FF67F7319404FF6FF73F7
:1014B00003EA02131943018470470A460021018C94
:1014C0004FF6FF5319404FF6FF7303EA0223194307
:1014D000018470470A460021018C4FF2FF731940C6
:1014E0004FF6FF7303EA02231943018470470A464B
:1014F0000021018C4DF6FF7319404FF6FF7303EA8C
:10150000023319430184704730B5002301248C4015
:10151000A3B2048C9C430484048C02FA01F5ADB29E
:101520002C43048430BD30B5002304248C40A3B286
:10153000048C9C430484048C02FA01F5ADB22C4364
:10154000048430BD828B4FF2FF331A408283828B3A
:101550004FF6FF7303EA01231A4382837047F0B505
:101560000C461546002100220026078C4EF6FF7C13
:1015700007EA0C070784818B028C4FF6FF7707EA96
:10158000043640F6FF4739404FF6FF7707EA052754
:1015900039434FF6FF7707EA0337394345F6FF77BC
:1015A0003A4046F480573A4381830284F0BD828BEF
:1015B0004FF6F3731A408283828B0A43828370470B
:1015C000F0B50C461546002100220026078C4FF688
:1015D000FF6C07EA0C070784818B028C4FF6FF77BC
:1015E00007EA04264FF60C7739404FF6FF7707EAF3
:1015F00003172F4339434FF2FF573A4046F48077A1
:101600003A4381830284F0BD028B4FF2FF331A40CC
:101610000283028B4FF6FF7303EA01231A4302830E
:101620007047F0B50C461546002100220026078CB5
:101630004FF6EF7C07EA0C070784018B028C4FF60C
:10164000FF7707EA041640F6FF4739404FF6FF7769
:1016500007EA033739434FF6FF7703E00000014004
:101660000004014007EA052739434FF65F773A4007
:1016700046F010073A4301830284F0BD028B4FF617
:10168000F3731A400283028B0A4302837047F0B55A
:101690000C46154600210022068C4FF6FE773E4090
:1016A0000684018B028C4FF60C7631407E1C06EAD4
:1016B00003162E4331434FF6F576324044F00106CF
:1016C000324301830284F0BD70B505460C46208884
:1016D00050B92389A28861882846FFF7D8FFE1889E
:1016E0002846FFF7CBFF25E0208804280AD123896C
:1016F000A28861882846FFF794FFE1882846FFF713
:1017000083FF17E0208808280AD12389A2886188EE
:101710002846FFF755FFE1882846FFF748FF09E014
:101720002389A28861882846FFF719FFE1882846A7
:10173000FFF708FF70BD00210180418001218180F9
:101740000021C180018170472DE9F04105460C461A
:1017500000260127608808B9022600E00026A0883C
:10176000012801D1022700E001272088A0B92389A0
:10177000A28861882846FFF78AFFE1882846FFF79C
:101780007DFF23893A4631462846FFF74AFFE18824
:101790002846FFF739FF13E02389A288618828468D
:1017A000FFF73FFFE1882846FFF72EFF23893A46DF
:1017B00031462846FFF76BFFE1882846FFF75EFFBA
:1017C000BDE8F0810146486B70470146886B704761
:1017D0000146C86B70470146086C70470A884B8801
:1017E0001A438B881A43CB881A430B891A434B89B7
:1017F0001A438B891A43A0F84420704700210180C6
:1018000041808180C180018141818181704731B1F6
:10181000B0F8442042F40042A0F8442005E0B0F8BB
:101820004420C2F30E02A0F84420704721B1828800
:1018300042F00402828004E082884FF6FB731A4073
:101840008280704721B1828842F00102828004E0E8
:1018500082884FF6FE731A40828070471AB18389DE
:101860000B43838102E083898B43838170478182AC
:10187000704702460020138A0B400BB1012000E0A4
:1018800000207047CA430282704730B502460020EC
:1018900000230024158A05EA0103958905EA01045D
:1018A00013B10CB1012000E0002030BDCA43028218
:1018B000704741EA0203A0F8483070471AB18389A3
:1018C0000B43838102E083898B438381704721B17D
:1018D000828842F00802828004E082884FF6F77323
:1018E0001A408280704701894FF6F87211400181D9
:1018F00070470A46002101894FF68F731940114342
:101900000181704730B504460D4629462046FFF751
:10191000F0FF208940F00700208130BD2DE9F04123
:1019200004460D4616461F46602D06D13B46012251
:1019300031462046FFF775FE05E03B460122314661
:101940002046FFF7A4FE29462046FFF7D2FF208954
:1019500040F007002081BDE8F08130B50C46002141
:101960000189C9B24FF6FF7505EA032515432543E2
:101970002943018130BD2DE9F04105460E46174649
:101980009846002443463A4631462846FFF7E5FF8D
:101990002C894FF6F870044044F007044FF68F701E
:1019A000044044F070042C81BDE8F081F0B5044699
:1019B0000D4616461F463B46324629462046FFF74F
:1019C000CCFF208940F480402081F0BD82884FF612
:1019D0008F731A40828082880A438280704702890E
:1019E0004FF6F8731A40028102890A430281704758
:1019F00002894FF67F731A40028102890A430281ED
:101A00007047F0B50C4615461E4600210022002303
:101A10000189028B038C4FF6F877394021434FF64A
:101A2000FC473A4040F201173A434FF6DD773B401E
:101A30004FF6FF7707EA06172F433B4301810283E6
:101A40000384F0BD21B1828842F08002828004E0EC
:101A500082884FF67F731A4082807047A0F850103A
:101A60007047000010B50446FA48844208D10121AD
:101A70001020FFF7AFF800211020FFF7ABF857E078
:101A8000F548844209D101214804FFF792F800216A
:101A90004FF40030FFF78DF84AE0F048844209D156
:101AA00001218804FFF785F800214FF48020FFF71B
:101AB00080F83DE0EA48844209D10121C804FFF7DB
:101AC00078F800214FF40020FFF773F830E0E54884
:101AD000844209D101210805FFF76BF800214FF47A
:101AE0008010FFF766F823E0DF48844208D1012127
:101AF0002020FFF76FF800212020FFF76BF817E098
:101B0000DA48844209D101218807FFF752F8002101
:101B10004FF08040FFF74DF80AE0D548844207D1E6
:101B200001214005FFF745F800216005FFF741F866
:101B300010BD2DE9FF4705460E460024A14600BF13
:101B4000A046B08900B100BF2C8A24F44054F0882C
:101B500004432C82AC8941F20C608443B088318903
:101B60000843718908430443AC81AC8A24F440746F
:101B7000B0890443AC826846FEF7AEFEB5488542A4
:101B800002D0B948854202D1DDF80C9001E0DDF8C1
:101B90000890A88900F4004040B109EBC90000EBAF
:101BA000091031684900B0FBF1F707E009EBC90003
:101BB00000EB091031688900B0FBF1F76420B7FB36
:101BC000F0F004012009642101FB1078A88900F4D9
:101BD000004040B1322000EBC800B0FBF1F000F053
:101BE0000700044308E0322000EB08106421B0FB3A
:101BF000F1F000F00F0004432C81BDE8FF874FF4A3
:101C00001651016000218180C18001810C21418138
:101C100000218181704710B502460020108A20F40F
:101C200070600B884C8823438C882343CC882343E3
:101C30001843108210BD0021018041808180C18045
:101C4000704721B1828942F40052828104E0828986
:101C50004DF6FF731A4082817047028B02F47F4277
:101C60000283028B0A430283704721B1828942F4C6
:101C70000042828103E08289C2F30E0282817047B2
:101C800021B1828A42F40062828204E0828A4FF2A9
:101C9000FF731A4082827047C1F308028280704746
:101CA00001468888C0F308007047028A4FF6F07337
:101CB0001A400282028A0A430282704721B1828955
:101CC00042F00202828104E082894FF6FD731A40DD
:101CD0008281704782894FF2FF731A408281828924
:101CE0000A4382817047028A4FF6DF731A400282EC
:101CF000028A0A430282704721B1028A42F480427A
:101D0000028204E0028A4BF6FF731A400282704797
:101D1000818941F001018181704721B1828A42F0BD
:101D20000802828204E0828A4FF6F7731A408282A8
:101D30007047028BD2B20283028B42EA01220283F5
:101D4000704721B1828A42F02002828204E0828AB6
:101D50004FF6DF731A408282704721B1828A42F0C7
:101D60001002828204E0828A4FF6EF731A40828268
:101D70007047828A4FF6FB731A408282828A0A4336
:101D80008282704721B1828A42F00202828204E09C
:101D9000828A4FF6FD731A40828270471AB1838A95
:101DA0000B43838202E0838A8B4383827047F0B5C2
:101DB0000346002400260025002040F66A17B94299
:101DC00000D100BF1846C1F3421401F01F060127DD
:101DD00007FA06F5012C01D10C3004E0022C01D1E8
:101DE000103000E014301AB107682F43076002E09A
:101DF0000768AF430760F0BD02460020B1F5007FE1
:101E000000D100BF13880B400BB1012000E000207F
:101E1000704701F40072B2F5007F00D100BFCA43E1
:101E20000280704770B50246002400230025002080
:101E300040F66A16B14200D100BFC1F3421501F06D
:101E40001F03012606FA03F3012D13D196893340AF
:101E500017E000000010014000440040004800402E
:101E6000004C004000500040001401400078004049
:101E7000007C0040022D02D1168A334001E0968A90
:101E800033400C12012606FA04F41688344013B1CC
:101E90000CB1012000E0002070BD10B5002200232D
:101EA00040F66A14A14200D100BF0A1201249440F6
:101EB000A3B2DC43048010BD01B502E00098401ECF
:101EC000009000980028F9D108BD002400F082F9A4
:101ED00000F080F801214020FEF7F8FD0120FEF718
:101EE00029FF14A000F0EEF91CA000F0EBF920A0EF
:101EF00000F0E8F91CE0294800F057F96FF07F4046
:101F0000FFF7DAFF00BF0120FEF736FF0028FAD006
:101F1000FEF71FFF044624F07F4121A000F0D2F914
:101F200024F07F4000F041F96FF07D40FFF7C4FFDF
:101F3000E1E700000D0A20BBB6D3ADCAB9D3C3D2C6
:101F4000B0BBF0202053544D333220463432392078
:101F5000BFAAB7A2B0E5A1A30D0A00000D0A20C8D0
:101F6000ABB2CA4C4544B5C6C0FDB3CC0D0A0000A7
:101F70000D0A20CAB9D3C350574DBFD8D6C6524751
:101F800042B5C6A3ACBFC9BFD8D6C6CAE4B3F6B87B
:101F9000F7D6D6D1D5C9AB0D0A20000000FFFF004F
:101FA0000D0A20CBE6BBFAD1D5C9ABD6B5A3BA3062
:101FB0007825303678000000704700BFFEE700BF8C
:101FC000FEE700BFFEE700BFFEE7704770477047BF
:101FD0007047000000B587B001210846FEF74DFDAF
:101FE00001211020FEF7A1FD07220A212C48FEF74F
:101FF0002EFB072209212A48FEF729FB00208DF835
:102000001A0001208DF81B0002208DF81800000234
:10201000059002208DF8190005A92148FEF78CFAD9
:1020200002208DF818004002059005A91C48FEF713
:1020300083FA4FF4E13001900020ADF80800ADF8CC
:102040000A00ADF80C00ADF810000C20ADF80E0041
:1020500001A91448FFF76DFD01211248FFF7F1FDBA
:1020600007B000BD70B504460D46E1B20D48FFF75C
:1020700013FE00BF80210B48FFF7BEFE0028F9D0F9
:10208000204670BD10B5044600BF20210548FFF76B
:10209000B3FE0028F9D00348FFF702FE10BD000090
:1020A00000000240001001401CB501218020FEF715
:1020B000E4FC02220A214D48FEF7C9FA02220B2154
:1020C0004A48FEF7C4FA02220C214848FEF7BFFA3C
:1020D0004FF48060009002208DF8040000208DF8FD
:1020E00006008DF8070003208DF8050069463F487B
:1020F000FEF722FA4FF40060009069463B48FEF775
:102100001BFA4FF48050009069463848FEF714FAE5
:102110001CBD00B589B001210820FEF7F5FCFF20A9
:1021200007903348006840083249B0FBF1F0C0EB3B
:1021300000100121C1EB400080B2ADF81800002072
:10214000ADF82000ADF81A0006A92B48FEF7E5FE11
:102150006020ADF804000120ADF8060000200390D7
:102160000220ADF8100001A92348FEF76BFF0821FB
:102170002148FFF7F4F801A91F48FEF79CFF08214A
:102180001D48FFF7F5F801A91B48FEF7E1FF0821FC
:102190001948FFF7FAF801211748FEF729FF012136
:1021A0001548FEF743FF09B000BDC0F30741124ACE
:1021B00034321160C0F30721121D1160C1B2121D2B
:1021C000116070470C4B343318601B1D19601B1DC8
:1021D0001A60704710B5FFF767FFFFF79AFFFF22FD
:1021E00011461046FFF7EEFF10BD0000001C024034
:1021F0000000002040420F00000C00402DE9F05F7D
:102200000546002092469B46884606468146402465
:102210001BE0284641464746224600F042F8534616
:102220005A46C01A914110D311461846224600F072
:1022300029F82D1A67EB01084F462246012000219C
:1022400000F020F817EB00094E41201EA4F1010414
:10225000DFDC484631462A464346BDE8F09F000091
:10226000064C074D06E0E06840F0010394E80700E3
:1022700098471034AC42F6D3FDF79CFF5C2700086A
:102280007C270008202A04DB203A00FA02F1002013
:1022900070479140C2F1200320FA03F319439040A4
:1022A0007047202A04DB203A21FA02F0002170470F
:1022B00021FA02F3D040C2F12002914008431946AE
:1022C000704700000FB4054B10B503A9044A0298EB
:1022D00000F018F810BC5DF814FB00006520000841
:1022E0002400002002E008C8121F08C1002AFAD109
:1022F00070477047002001E001C1121F002AFBD186
:10230000704700002DE9FF4F8DB00F4605460026AF
:1023100006E025280BD0DDE90F1290476D1C761CD6
:1023200028780028F5D111B03046BDE8F08F0024A0
:10233000A246A1460122E94900E0044315F8013F05
:10234000203B02FA03F00842F7D128782A2810D05F
:102350006FF02F022878A0F13001092914D80AEB78
:102360008A0102EB410144F0020400EB010A6D1CFA
:10237000F0E701CF5FEA000A03D544F40054CAF144
:10238000000A44F002046D1C28782E2817D115F895
:10239000010F44F004042A280ED06FF02F02287891
:1023A000A0F1300109290AD809EB890102EB4101AA
:1023B00000EB01096D1CF2E757F8049B6D1C2878AF
:1023C0006C280FD006DC4C2817D068280DD06A285E
:1023D00014D104E0742810D07A280FD10DE044F411
:1023E00000140AE044F4801401E044F440146978D5
:1023F000814202D104F580146D1C6D1C28786E2872
:102400001ED00CDC632830D004DC00288BD0582888
:1024100011D19FE0642867D069280CD164E073284B
:102420002DD004DC6F2872D0702804D194E0752878
:102430006ED078286DD0DDE90F129047761C4BE105
:10244000C4F30250022806D0032809D0042801CF83
:1024500009D0066040E101CFF117C0E900613BE11E
:1024600001CF068038E1067036E117F8040B8DF8CD
:10247000000000208DF80100EB46012003E057F832
:1024800004BB4FF0FF3061074FF0000102D40DE0B4
:1024900008F10101884649450FDA8045F8DB1BF851
:1024A00008100029F4D108E008F1010188468142B2
:1024B000FADB1BF808100029F6D1DDE90F23AAEB9F
:1024C00008008146214600F031F9304400EB08064F
:1024D00004E0DDE90F121BF8010B9047B8F1010889
:1024E000F7D221464846F2E00A21C4F302524FF0E7
:1024F000000B0891022A04D001CFC117032A09D08A
:102500000AE0FF1D27F00707F7E8020108E02CE0CA
:102510001EE01FE000B2C117042A01D140B2C1176A
:10252000021E71F1000206DA0023D0EB030063EB18
:1025300001012D2202E0220504D52B228DF8242052
:10254000012203E0E20701D02022F7E7904653E0A2
:102550000A210BE0102109E010214FF0000B44F09C
:1025600004044FF00809089103E008214FF0000B24
:102570000891C4F30252022A04D001CF0021032A99
:1025800006D006E0FF1D27F00707F7E8020103E089
:1025900080B2042A00D1C0B24FF0000822072BD528
:1025A0002A78702A07D0DDF820C08CF0100C5CEA85
:1025B0000B0C05D00EE040228DF82420012208E00B
:1025C00050EA010306D030238DF824308DF8252001
:1025D00002229046089B83F0080353EA0B030BD1B9
:1025E00050EA010201D1620706D530228DF824207D
:1025F0004FF00108A9F101092A78582A04D038A21D
:102600000B9208AA0A920BE03AA2F9E75B46089AF5
:10261000FFF7F4FD0B9B9B5C0A9A521E0A92137003
:1026200050EA0102F2D10A98ADEB000000F1200B54
:10263000600702D524F4803401E04FF00109D94548
:1026400002DDA9EB0B0000E0002000EB0B01414490
:102650000890AAEB010AE00306D4DDE90F23214626
:10266000504600F063F806444FF0000908E009A95D
:1026700011F80900DDE90F12904709F10109761CF4
:10268000C145F4DBE0030CD5DDE90F2321465046BC
:1026900000F04CF8064404E0DDE90F1230209047CA
:1026A000761C0899481E08900029F5DC08E00A9875
:1026B0000A990078491C0A91DDE90F129047761CAF
:1026C000BBF10001ABF1010BF1DC21465046DDE925
:1026D0000F2300F019F806446D1C21E609280100BB
:1026E0003031323334353637383961626364656688
:1026F000000000003031323334353637383941424A
:1027000043444546000000002DE9F0410446002501
:102710001E461746880404D405E039462020B047F9
:102720006D1C641EF9D52846BDE8F0812DE9F04105
:10273000044600251E469046C80301D5302700E018
:102740002027880404D505E041463846B0476D1C73
:10275000641EF9D52846BDE8F08100007C270008FA
:102760000000002028000000E4220008A427000840
:102770002800002000040000F42200080095BA0A96
:102780000000000000000000010203040607080921
:102790000000000001020304010203040607080907
:0427A0000000000035
:04000005080001AD41
:00000001FF
