:020000040800F2
:1000000008040020C1010008050400081D030008C1
:100010000104000851020008B907000800000000B0
:100020000000000000000000000000003D04000887
:1000300055020008000000000904000841040008FF
:10004000DB010008DB010008DB010008DB01000820
:10005000DB010008DB010008DB010008DB01000810
:10006000DB010008DB010008DB010008DB01000800
:10007000DB010008DB010008DB010008DB010008F0
:10008000DB010008DB010008DB010008DB010008E0
:10009000DB010008DB010008DB010008DB010008D0
:1000A000DB010008DB010008DB010008DB010008C0
:1000B000DB010008DB010008DB010008DB010008B0
:1000C000DB010008DB010008DB010008DB010008A0
:1000D000DB010008DB010008DB010008DB01000890
:1000E000DB010008DB010008DB010008DB01000880
:1000F000DB010008DB010008DB010008DB01000870
:10010000DB010008DB010008DB010008DB0100085F
:10011000DB010008DB010008DB010008DB0100084F
:10012000DB010008DB010008DB010008DB0100083F
:10013000DB010008DB010008DB010008DB0100082F
:10014000DB010008DB010008DB010008DB0100081F
:10015000DB010008DB010008DB010008DB0100080F
:10016000DB010008DB010008DB010008DB010008FF
:10017000DB010008DB010008DB010008DB010008EF
:10018000DB010008DB010008DB010008DB010008DF
:10019000DB010008DB010008DB010008DB010008CF
:1001A000DB010008DB010008DB010008DFF80CD0F0
:1001B00000F018F800480047BD07000808040020B8
:1001C0000648804706480047FEE7FEE7FEE7FEE7F1
:1001D000FEE7FEE7FEE7FEE7FEE7FEE74504000870
:1001E000AD0100081CB5094800900948019005467A
:1001F000009C06E0E06840F0010394E8070098479F
:100200001034AC42F6D3FFF7D5FF00004C080008CD
:100210006C08000810B582B04FF48070012100F026
:10022000F5F84FF40060009040F2012042F2000423
:10023000C0F20020C4F2020401906946204600F09A
:100240000BF820464FF4006100F066F802B010BDD4
:10025000FEE70000704700002DE9F043D1F8008070
:1002600000234FF0010C4FF0030E002410E000BFFC
:10027000C26802EA0902C260CA79C5689A402A4384
:10028000C2600134102C03F1020308BFBDE8F08303
:100290000CFA04F618EA060FF3D002680EFA03F718
:1002A000BA4302600A796FEA0709076802FA03F5A0
:1002B000013A3D43012A0560DAD8826802EA090260
:1002C00082604A798D7987689A403A4382604268B1
:1002D000B243426005FA04F2456892B22A43426092
:1002E000C6E700001C2303EA810C6FF0030303EA56
:1002F000510108440F23016A03FA0CF39943016288
:10030000016A02FA0CF21143016270470069084069
:1003100018BF01207047000041837047FEE70000CE
:10032000B0B582B005200121012400F06FF80094DF
:1003300000240020C4F202046D468DF804008DF8FC
:10034000070020462946FFF787FF4FF40050009032
:1003500004F500602946FFF77FFF02B0B0BD000042
:10036000B0B50C460546FFF7D1FF01281CBF0020A1
:10037000B0BD00BF28462146FFF7C8FF0128F9D0CD
:100380000120B0BD2DE9F04182B08820012100F0AC
:100390003DF8012041F60044C0F20010C4F202040E
:1003A0006D464FF48068019020462946CDF80080C4
:1003B000FFF752FF4FF40067204629460097FFF7EA
:1003C0004BFF4FF48056204629460096FFF744FF26
:1003D000A4F58054204629460097FFF73DFF41F6DB
:1003E0001840C4F20200A0F8008007800680204672
:1003F0004FF40061FFF790FF02B0BDE8F08100000C
:10040000FEE700007047000070470000002943F637
:100410003001C4F202010A680CBF22EA0000104356
:1004200008607047002943F64401C4F202010A68DB
:100430000CBF22EA000010430860704770470000BC
:100440007047000082B043F60000C4F20200016869
:100450004FF6FF7341F001010160002181600268E5
:10046000CFF6F6631A40026043F21002C2F2004275
:100470004260026822F480220260C1600191009112
:10048000016841F480310160016801F4003100919C
:10049000019901310191009919B90199B1F5A04F64
:1004A000F2D10168890354BF002101210091009914
:1004B000012944D1026C47F2000142F08052C4F29B
:1004C000000102640A6842F440420A608268826065
:1004D000826842F400428260826842F4A0528260E4
:1004E00045F61922C0F240724260026842F0807202
:1004F000026000BF02689201FCD50A6842F48032B3
:100500000A6000BF4A68D203FCD50A6842F4003290
:100510000A6000BF4A689203FCD540F20571C0F83A
:100520000014816821F003018160816841F00201BB
:10053000816000BF816801F00C010829FAD14EF6F4
:100540000850CEF200004FF00061016002B0704729
:10055000B1F800C04B888A8843EA0C0343EA020CD6
:10056000CB880A8943EA0C031A434B8989891A43C9
:100570001143A0F8441070470288002918BF0121D8
:1005800022F001021144018070470000B0F84420BD
:10059000002918BF01216FF3DF3242EAC131A0F810
:1005A00044107047B0B5028C40F2004522F00102C1
:1005B0000284038C40F48064C4F201058288B0F8A0
:1005C00018C0AC428C8923F002034D88B1F800E0DA
:1005D00043EA040343EA05030DD1CC8923F00C035D
:1005E00024F004048D8823430C8A2B4322F44072A8
:1005F0004D8A22432A432CF0730545EA0E0582807A
:100600000583896841630384B0BD0000028B22F03A
:1006100008021143018370474163704710B540F6EB
:10062000FF32B0F800E0C4F2000240F2004C904209
:10063000C4F2010C0FDCB0F1804F19D040F200423F
:10064000C4F20002904213D040F60002C4F200024D
:1006500090420DD011E040F60042C4F200029042F8
:1006600006D0604504D00022C4F20102904204D1B9
:100670004A882EF0700342EA030E41F2004340F430
:100680008062C4F200039A4204D00C892EF44073B5
:1006900044EA030EA0F800E04B686245C3620B8891
:1006A000038504BF897A01860121818210BD000083
:1006B0002DE9F0418CB005200121FFF7A7FE40F2A3
:1006C0000048C4F2010808F58236304606210322AC
:1006D000FFF708FE08F57C45284605210322FFF7B1
:1006E00001FE284606210322FFF7FCFD40F20230FE
:1006F00004AF40240590304639460494FFF7ACFD22
:100700002020049028463946FFF7A6FD28463946A2
:100710000494FFF7A1FD02200121FFF783FE40F2C0
:10072000FF300A9040F207700990002409A9404662
:10073000ADF82C408DF82E40FFF770FF6020C0F21E
:10074000010004900420ADF8140040F20000C2F251
:100750000000008804A9CDE906044FF480700890D9
:100760004046FFF71FFF40460821FFF74FFF40F6C6
:100770000000C0F20040CDF8020040F20010C0F2CC
:100780000B00CDF806004FF48050CDF80A004FF46E
:100790008040ADF80E000DF102014046FFF7D8FE93
:1007A00040460121FFF7E8FE40460121FFF7EEFE3B
:1007B0000CB0BDE8F0810000FEE7000040F200440C
:1007C000C4F20104FFF7ACFDFFF724FDFFF7DAFDEB
:1007D000FFF76EFF40F2000604F57C45C2F200060A
:1007E00028460121FFF7BCFD01280CD13088800983
:1007F0000E289ABF308840304FF4806030803188B6
:100800002046FFF709FF28464FF40051FFF7A8FDE7
:100810000128E5D13088402826BF308840380020A4
:10082000308031882046FFF7F7FED9E702E008C89C
:10083000121F08C1002AFAD170477047002001E05A
:1008400001C1121F002AFBD1704700007008000888
:1008500000000020080000002C08000878080008AC
:1008600008000020000400003C0800080000000010
:0808700000020000000000007E
:04000005080001AD41
:00000001FF
