:020000040800F2
:1000000000040020C1010008250200081D020008AC
:10001000210200081502000841030008000000004A
:100020000000000000000000000000002D02000899
:10003000190200080000000029020008310200082F
:10004000DB010008DB010008DB010008DB01000820
:10005000DB010008DB010008DB010008DB01000810
:10006000DB010008DB010008DB010008DB01000800
:10007000DB010008DB010008DB010008DB010008F0
:10008000DB010008DB010008DB010008DB010008E0
:10009000DB010008DB010008DB010008DB010008D0
:1000A000DB010008DB010008DB010008DB010008C0
:1000B000DB010008DB010008DB010008DB010008B0
:1000C000DB010008DB010008DB010008DB010008A0
:1000D000DB010008DB010008DB010008DB01000890
:1000E000DB010008DB010008DB010008DB01000880
:1000F000DB010008DB010008DB010008DB01000870
:10010000DB010008DB010008DB010008DB0100085F
:10011000DB010008DB010008DB010008DB0100084F
:10012000DB010008DB010008DB010008DB0100083F
:10013000DB010008DB010008DB010008DB0100082F
:10014000DB010008DB010008DB010008DB0100081F
:10015000DB010008DB010008DB010008DB0100080F
:10016000DB010008DB010008DB010008DB010008FF
:10017000DB010008DB010008DB010008DB010008EF
:10018000DB010008DB010008DB010008DB010008DF
:10019000DB010008DB010008DB010008DB010008CF
:1001A000DB010008DB010008DB010008DFF80CD0F0
:1001B00000F018F80048004745030008000400203C
:1001C0000648804706480047FEE7FEE7FEE7FEE7F1
:1001D000FEE7FEE7FEE7FEE7FEE7FEE73502000882
:1001E000AD0100081CB5094800900948019005467A
:1001F000009C06E0E06840F0010394E8070098479F
:100200001034AC42F6D3FFF7D5FF000064030008BA
:1002100074030008FEE7000070470000FEE70000DE
:10022000FEE70000704700007047000070470000C4
:100230007047000082B043F60000C4F2020001687B
:100240004FF6FF7341F001010160002181600268F7
:10025000CFF6F6631A40026043F21002C2F2004287
:100260004260026822F480220260C1600191009124
:10027000016841F480310160016801F400310091AE
:10028000019901310191009919B90199B1F5A04F76
:10029000F2D10168890354BF002101210091009926
:1002A000012944D1026C47F2000142F08052C4F2AD
:1002B000000102640A6842F440420A608268826077
:1002C000826842F400428260826842F4A0528260F6
:1002D00045F61922C0F240724260026842F0807214
:1002E000026000BF02689201FCD50A6842F48032C5
:1002F0000A6000BF4A68D203FCD50A6842F40032A3
:100300000A6000BF4A689203FCD540F20571C0F84C
:100310000014816821F003018160816841F00201CD
:10032000816000BF816801F00C010829FAD14EF606
:100330000850CEF200004FF00061016002B070473B
:10034000FEE70000FEE702E008C8121F08C1002A0D
:10035000FAD170477047002001E001C1121F002A46
:10036000FBD1704774030008000000200004000067
:040370005603000828
:04000005080001AD41
:00000001FF
