:020000040800F2
:1000000038040020C1010008650900087D080008C7
:1000100061090008B9020008D50C000800000000C2
:10002000000000000000000000000000E10A0008DD
:100030002507000800000000E1090008E50A0008A3
:10004000DB010008DB010008DB010008DB01000820
:10005000DB010008DB010008DB010008DB01000810
:10006000DB010008DB010008DB010008DB01000800
:10007000DB010008DB010008DB010008DB010008F0
:10008000DB010008DB010008DB010008DB010008E0
:10009000BD020008DB010008DB010008DB010008ED
:1000A000DB010008DB010008DB010008DB010008C0
:1000B000DB010008DB010008DB010008DB010008B0
:1000C000DB010008DB010008DB010008DB010008A0
:1000D000DB010008DB010008DB010008DB01000890
:1000E000DB010008DB010008DB010008DB01000880
:1000F000DB010008DB010008DB010008DB01000870
:10010000DB010008DB010008DB010008DB0100085F
:10011000DB010008DB010008DB010008DB0100084F
:10012000DB010008DB010008DB010008DB0100083F
:10013000DB010008DB010008DB010008DB0100082F
:10014000DB010008DB010008DB010008DB0100081F
:10015000DB010008DB010008DB010008DB0100080F
:10016000DB010008DB010008DB010008DB010008FF
:10017000DB010008DB010008DB010008DB010008EF
:10018000DB010008DB010008DB010008DB010008DF
:10019000DB010008DB010008DB010008DB010008CF
:1001A000DB010008DB010008DB010008DFF80CD0F0
:1001B00000F04AF800480047FD0C00083804002011
:1001C0000648804706480047FEE7FEE7FEE7FEE7F1
:1001D000FEE7FEE7FEE7FEE7FEE7FEE7E90A0008C6
:1001E000AD0100082DE9F05F0546002092469B46D0
:1001F00088460646814640241BE02846414647463D
:10020000224600F048F853465A46C01A914110D38E
:1002100011461846224600F02FF82D1A67EB010808
:100220004F4622460120002100F026F817EB000976
:100230004E41201EA4F10104DFDC484631462A4627
:100240004346BDE8F09F00001CB5094800900948EE
:1002500001900546009C06E0E06840F0010394E848
:10026000070098471034AC42F6D3FFF7A3FF000015
:100270006415000884150008202A04DB203A00FADF
:1002800002F1002070479140C2F1200320FA03F3ED
:10029000194390407047202A04DB203A21FA02F0EB
:1002A0000021704721FA02F3D040C2F120029140B0
:1002B0000843194670470000FEE7000010B540F201
:1002C0000804C2F2000446F20040C4F2000000211B
:1002D000224600F06DF96068227A41F214314840FC
:1002E00082F00401A27A084382F008010843B0FAC0
:1002F00080F040F230014009C2F20001086010BDF8
:1003000070B584B002200121022600F06BFB40F2A0
:100310000044C4F2020420460821092200F090FAA9
:1003200020460921092200F08BFA4FF4007000905A
:1003300040F20220C0F200106D460190204629468E
:1003400000F038FA4FF480700090204629468DF86E
:10035000046000F02FFA4FF4C06000F037FB142067
:10036000C0F200100090684600F0FEFA4FF00070F6
:10037000012100F043FBA4F5D034204600F032F810
:100380006D46284600F074F940F20010C0F20100FA
:10039000CDF8060040F20110C0F20420CDF80200B2
:1003A00005200026ADF8000020462946ADF80A6079
:1003B00000F08CF80020C0F20110CDF80A000020F7
:1003C000C9F6A40000904FF0FF3001906846ADF8E8
:1003D000086000F01DF820460221012200F06EF8AE
:1003E00004B070BD10B546F20041C4F200014FF0F8
:1003F0008064884208BF4FF000742046012100F05D
:1004000009FB20460021BDE8104000F003BB0000BE
:10041000B0B546F20061C4F2000190F80AE0037B37
:100420000A68012442F001020A60CA6904FA0EF562
:100430006FEA050CAA43012BCA610DD0F3B9CA6853
:1004400002EA0C02CA60C288438843EA024201EB16
:10045000CE031A6403460AE0CA682A43CA600288C7
:10046000438843EA024201EBCE031A64831D82886B
:100470001B8843EA024201EBCE035A64C27A4B68FE
:10048000002A43EA050408BF03EA0C044C60038910
:10049000012B04D03BB94A6902EA0C0302E04A6925
:1004A00042EA05034B61407B012802D1C869284319
:1004B000C861086820F001000860B0BD002A4269E8
:1004C0000CBF22EA010111434161704710B5026877
:1004D0004FF0000C22F002020260026842F00102BA
:1004E00002604FF6FF7200BFD0F804E0013A4CF111
:1004F00000045FEACE7301D1002CF5D14268D20727
:100500004FF0000252D08B790468012B24F0800454
:1005100008BF80340460CB790468012B24F04004C8
:1005200008BF403404600B7A0468012B24F02004D7
:1005300008BF203404604B7A0468012B24F01004B7
:1005400008BF103404608B7A0468012B24F008047F
:1005500008BF08340460CB7A0468012B24F004043B
:1005600008BF04340460CC7891F802C00B792406EB
:1005700091F805E044EA8C74098844EA034343EAAD
:100580000E5301391943C161016821F00101016075
:100590004FF6FF714468013942F10003E40718BFC8
:1005A000002BF7D14068012121EA0002104610BD5E
:1005B00080B500EB011EDEF8B0C11CF0040313721D
:1005C000DEF8B0C10EF5D87E19BF4FEADC035360E8
:1005D0004FEA5C531360DEF80030002903F0020399
:1005E0005372DEF804304FF0200103F00F039372D2
:1005F000DEF804304FEA1323D374DEF80830D372E8
:10060000DEF808304FEA13231373DEF808304FEAA0
:1006100013435373DEF808304FEA13639373DEF825
:100620000C30D373DEF80C304FEA13231374DEF86A
:100630000C304FEA13435374DEF80C304FEA136367
:1006400093744FF0100208BF0C22815080BD00004F
:1006500041F21431416004210181082181720A2193
:10066000A1F10A024318013112295A70F8D17047DA
:100670000021C0F80610418140F203218180012150
:10068000016070470246806840010ED49068000106
:100690004FF001000CD4936813F0805380EA137379
:1006A0004FF0020008BF042003E00023002000E018
:1006B0000023002B18BF704702EB0012D2F88031E4
:1006C00003F00103C2F8803191F808C002F5C0724E
:1006D000BCF1000F03D04B684CEAC30C02E00B687E
:1006E0004FEA435C10B54B7A91F80AE0146843EA8C
:1006F0000C03234313600EF00F038B72546824F035
:100700000F045460546823435360D1F80B30936056
:10071000D1F80F10D160116841F001011160BDE8FE
:10072000104070477047000070B586B0012001216D
:10073000012500F057F91020012100F077F900247D
:10074000C4F2020420460A21072200F079F820466C
:100750000921072200F074F88DF817504FF400704B
:1007600004AD02260490204629468DF81460ADF8A9
:10077000156000F01FF84FF4806004902046294671
:100780008DF8146000F016F84FF4E130009000206E
:100790004FF44021A4F5704401900291ADF80C0093
:1007A0006946204600F036FA2046012100F022FA80
:1007B00006B070BD2DE9F043D1F8008000234FF062
:1007C000010C4FF0030E002410E000BFC26802EAE3
:1007D0000902C260CA79C5689A402A43C2600134DE
:1007E000102C03F1020308BFBDE8F0830CFA04F6F5
:1007F00018EA060FF3D002680EFA03F7BA43026054
:100800000A796FEA0709076802FA03F5013A3D43DE
:10081000012A0560DAD8826802EA090282604A7910
:100820008D7987689A403A4382604268B243426059
:1008300005FA04F2456892B22A434260C6E7000016
:100840001C2303EA810C6FF0030303EA51010844FF
:100850000F23016A03FA0CF399430162016A02FA59
:100860000CF21143016270470069084018BF012073
:10087000704700000904816170470000FEE7000036
:10088000B0B582B005200121012400F0ABF800943E
:1008900000240020C4F202046D468DF804008DF897
:1008A000070020462946FFF785FF4FF400500090CF
:1008B00004F500602946FFF77DFF02B0B0BD0000DF
:1008C000B0B50C460546FFF7CFFF01281CBF00203E
:1008D000B0BD00BF28462146FFF7C6FF0128F9D06A
:1008E0000120B0BD2DE9F04182B08820012100F047
:1008F00079F8012041F60044C0F20010C4F202046D
:100900006D464FF48068019020462946CDF800805E
:10091000FFF750FF4FF40067204629460097FFF786
:1009200049FF4FF48056204629460096FFF742FFC4
:10093000A4F58054204629460097FFF73BFF41F677
:100940001840C4F20200C0F800800760066020462C
:100950004FF40061FFF78EFF02B0BDE8F0810000A8
:10096000FEE700007047000010B5C17800294EF284
:100970000011CEF200011CD04EF60C52CEF2000255
:100980001268072323EA12220F23C2F1040C23FA70
:1009900002FE427884785FFA8CF390F800C09A40A7
:1009A00004EA0E031A43120101EB0C0383F800233F
:1009B00000E080310078012300F01F0203FA02F208
:1009C000C0F3421041F8202010BD000040F08060CC
:1009D0004EF60C5140F0FD70CEF2000108607047F9
:1009E00070470000002943F63001C4F202010A6892
:1009F0000CBF22EA0000104308607047002943F64C
:100A00004001C4F202010A680CBF22EA0000104350
:100A100008607047002943F62001C4F202010A6809
:100A20000CBF22EA0000104308607047002943F61B
:100A30004401C4F202010A680CBF22EA000010431C
:100A40000860704710B543F60401C4F202014A6819
:100A500002F00C0342F20042082BC0F2F40206D06E
:100A6000042B20D147F64002C0F27D121BE0D1F8E2
:100A700000C0D1F800E00B680EF03F0EC3F38814FD
:100A80005FEA4C2347F64003C0F27D1358BF13467C
:100A9000B3FBFEF20B686243C3F30143022404EB91
:100AA0004303B2FBF3F202604A6841F2F833C2F347
:100AB0000312C0F600039A5C046824FA02F2426052
:100AC0004C68C4F382241C5D22FA04F484604968F3
:100AD000C1F34231595C22FA01F1C16010BD00003E
:100AE000704700007047000082B043F60000C4F277
:100AF000020001684FF6FF7341F00101016000211F
:100B000081600268CFF6F6631A40026043F2100279
:100B1000C2F200424260026822F480220260C16098
:100B200001910091016841F480310160016801F494
:100B300000310091019901310191009919B9019990
:100B4000B1F5A04FF2D10168890354BF0021012102
:100B500000910099012944D1026C47F2000142F052
:100B60008052C4F2000102640A6842F440420A6002
:100B700082688260826842F400428260826842F445
:100B8000A052826045F61922C0F2407242600268AB
:100B900042F08072026000BF02689201FCD50A68D0
:100BA00042F480320A6000BF4A68D203FCD50A686A
:100BB00042F400320A6000BF4A689203FCD540F25A
:100BC0000571C0F80014816821F00301816081681B
:100BD00041F00201816000BF816801F00C01082929
:100BE000FAD14EF60850CEF200004FF000610160DD
:100BF00002B070478289002918BF012122F40052F7
:100C000042EA4131818170470088084018BF0120C5
:100C10007047000070B584B00446008A0D46C9884C
:100C200020F4405008432082A0894EF6F31108407A
:100C3000A9882A896B89084310431843A081A08A98
:100C4000A98920F4407008436E46A0823046FFF721
:100C5000F9FE41F2000124F48060C4F2010108228F
:100C6000884208BF0C22B058B4F90C100122B1F12F
:100C7000FF3FC8BF02222B681921484303FA02F143
:100C8000B0FBF1F048F21F51C5F2EB11A0FB0123BC
:100C90005A096FF0630302FB0300B4F90C3003261A
:100CA000B3F1FF3FC8BF042600FA06F000F132009E
:100CB000A0FB01014FF00700C8BF0F2000EA511050
:100CC00040EA0210208104B070BD00006FF35F2184
:100CD00081807047FEE70000B0B541F20005C4F224
:100CE00001050446C1B22846FFF7F0FF28468021DF
:100CF000FFF78AFF0028F9D02046B0BD84B041F646
:100D0000184946F20044C4F20209C4F20004FFF795
:100D1000E9FDFFF709FDFFF7B3FDFFF7F1FA41F237
:100D2000D640C0F6000000F055FB41F22550C0F659
:100D3000000000F04FFB58A000F04CFB5AA000F060
:100D400049FB41F25140C0F6000000F043FB41F284
:100D50000840C0F6000000F03DFB5DA000F03AFB4B
:100D600040F21C05C2F2000505F10A00029040F2B3
:100D7000080041F24657C2F2000004F5CE384FF4A5
:100D800080644FF0006B4FF4805AC0F600070A30C1
:100D9000019000BF40460121FFF792FD01284BD191
:100DA0004FF40060C9F80040C9F800004FF08050CF
:100DB000C9F800002846FFF74BFC46F20040C4F299
:100DC00000002946FFF75EFC42F210700390039882
:100DD00010B103980138F9E741F2BD40C0F60000B8
:100DE000C9F80040C9F800B0C9F800A000F0F2FA54
:100DF00041F2FC40C0F6000000F0ECFA696842A045
:100E0000AA4600F08FF841F24E50C0F6000000F004
:100E1000E1FA029E4FF0080B16F8011F384600F069
:100E200081F8BBF1010BF7D10A2000F0CDFA4FF0A9
:100E3000006B55464FF4805A40F23000C2F2000079
:100E400000680128A6D141F21250C0F60000C9F88E
:100E50000040C9F800B0C9F800A000F0BBFA41F2A8
:100E60004E50C0F6000000F0B5FA019C082600BF05
:100E700014F8011F384600F055F8013EF8D10A2059
:100E800000F0A2FA40F23000C2F20000002101603E
:100E90004FF480647EE700BF0D0A20CAB5D1E9B2E5
:100EA000BDD6E8A3BA0D00000D0A20312ECAB9D371
:100EB000C3BBD8BBB7C4A3CABDA3ACB2BBD0E8D236
:100EC000AAC1ACBDD3CDE2B2BFD0BEC6AC0D00004E
:100ED0000D0A20342EB1BEC0FDD6D0B5C463616EFC
:100EE000B2A8CCD8C2CACEAA314D427073A3ACCE40
:100EF000AA73746D3332B5C463616ED7EEB8DFCBBD
:100F0000D9C2CAA1A3200D000D0A20C0A9D5B94994
:100F100044BAC54578744964A3BA30782578200D61
:100F20000A0000000FB4054B10B503A9044A02984B
:100F300000F018F810BC5DF814FB0000D90C000894
:100F40000000002002E008C8121F08C1002AFAD1E0
:100F500070477047002001E001C1121F002AFBD139
:100F6000704700002DE9FF4F8DB00F460546002663
:100F700006E025280BD0DDE90F1290476D1C761C8A
:100F800028780028F5D111B03046BDE8F08F002454
:100F9000A246A1460122EC4900E0044315F8013FB6
:100FA000203B02FA03F00842F7D128782A2810D013
:100FB0006FF02F022878A0F13001092914D80AEB2C
:100FC0008A0102EB410144F0020400EB010A6D1CAE
:100FD000F0E701CF5FEA000A03D544F40054CAF1F8
:100FE000000A44F002046D1C28782E2817D115F849
:100FF000010F44F004042A280ED06FF02F02287845
:10100000A0F1300109290AD809EB890102EB41015D
:1010100000EB01096D1CF2E757F8049B6D1C287862
:101020006C280FD006DC4C2817D068280DD06A2811
:1010300014D104E0742810D07A280FD10DE044F4C4
:1010400000140AE044F4801401E044F44014697888
:10105000814202D104F580146D1C6D1C2A786E2A21
:101060001FD00CDC632A31D004DC002A8BD0582A34
:1010700011D1A3E0642A68D0692A0CD165E0732AF3
:101080002ED004DC6F2A73D0702A04D19BE0752A1D
:101090006FD0782A6ED01046DDE90F129047761C8B
:1010A00050E1C4F30250022806D0032809D00428D6
:1010B00001CF09D0066045E101CFF117C0E9006119
:1010C00040E101CF06803DE106703BE117F8040BDB
:1010D0008DF8000000208DF80100EB46012003E0B0
:1010E00057F804BB4FF0FF3061074FF0000102D406
:1010F0000DE008F10101884649450FDA8045F8DB2B
:101100001BF808100029F4D108E008F10101884615
:101110008142FADB1BF808100029F6D1DDE90F2324
:10112000AAEB08008146214600F036F9304400EB76
:10113000080604E0DDE90F121BF8010B9047B8F137
:101140000108F7D221464846F7E00A21C4F30253CA
:101150004FF0000B0891022B04D001CFC117032BD5
:1011600009D00AE0FF1D27F00707F7E8020108E0B1
:1011700032E01FE020E000B2C117042B01D140B2E1
:10118000C117031E71F1000307DA4FF0000CD0EB1A
:101190000C006CEB01012D2302E0230504D52B2369
:1011A0008DF82430012303E0E30701D02023F7E783
:1011B000984658E00A2110E010210EE010204FF070
:1011C000000B08900CE010214FF0000B44F00404D9
:1011D0004FF00809089103E008214FF0000B089137
:1011E000C4F30253022B04D001CF0021032B06D0FD
:1011F00006E0FF1D27F00707F7E8020103E080B2D1
:10120000042B00D1C0B24FF0000823072BD5702A61
:1012100007D0DDF820C08CF0100C5CEA0B0C05D078
:101220000EE040238DF82430012308E050EA01034A
:1012300006D030238DF824308DF8252002239846DF
:10124000DDF820C08CF0080C5CEA0B0C0BD150EAE6
:10125000010301D1630706D530238DF824304FF008
:101260000108A9F10109582A04D038A20B9208AA52
:101270000A920BE03AA2F9E75B46089AFEF7B2FF42
:101280000B9B9B5C0A9A521E0A92137050EA010251
:10129000F2D10A98ADEB000000F1200B600702D5F7
:1012A00024F4803401E04FF00109D94502DDA9EBB7
:1012B0000B0000E0002000EB0B0141440890AAEB7A
:1012C000010AE00306D4DDE90F232146504600F071
:1012D00063F806444FF0000908E009A911F8090075
:1012E000DDE90F12904709F10109761CC145F4DBD5
:1012F000E0030CD5DDE90F232146504600F04CF801
:10130000064404E0DDE90F1230209047761C08996E
:10131000481E08900029F5DC08E00A980A99007830
:10132000491C0A91DDE90F129047761CBBF10001C0
:10133000ABF1010BF1DC21465046DDE90F2300F053
:1013400019F806446D1C1BE60928010030313233C0
:1013500034353637383961626364656600000000F1
:1013600030313233343536373839414243444546DB
:10137000000000002DE9F041044600251E461746F6
:10138000880404D405E039462020B0476D1C641E53
:10139000F9D52846BDE8F0812DE9F0410446002545
:1013A0001E469046C80301D5302700E02027880458
:1013B00004D505E041463846B0476D1C641EF9D59A
:1013C0002846BDE8F08100000149FFF785BC000018
:1013D0000000002010B5044601E0FFF77DFC14F882
:1013E000010B04490028F8D1BDE810400A20FFF79E
:1013F00073BC000000000020000000000102030494
:1014000001020304060708090D0A20332EC8F4BFA1
:10141000AAB7A2B0E5B5C443414EBDD3CAD5B5BD48
:10142000C0A9D5B94944CEAA307831333134B5C4D6
:10143000CAFDBEDDB0FCA3ACBBE1B0D1CAFDBEDDD0
:10144000D2D4B4F2D3A1B5BDB4AEBFDAA1A3200DFE
:10145000000D0A20322EB0B4CFC2BFAAB7A2B0E5A9
:10146000B5C44B455931BCFCA3ACBBE1CAB9D3C32D
:1014700043414ECFF2CDE2B7A2CBCD302D37B5C42C
:10148000CAFDBEDDB0FCA3ACB0FCB5C4C0A9D5B9E3
:101490004944CEAA3078313331342028D3C9D3DA45
:1014A000BBD8BBB7C4A3CABDA3ACCAC7D7D4BCBA48
:1014B000B7A2CBCDB8F8D7D4BCBA290D000D0AD24B
:1014C000D1CAB9D3C343414EB7A2CBCDCAFDBEDD0D
:1014D000B0FCA3A10D000D0A20BBB6D3ADCAB9D391
:1014E000C3D2B0BBF0202053544D333220463432A7
:1014F0003920BFAAB7A2B0E5A1A30D000D0AB7A27B
:10150000CBCDB5C4B1A8CEC4C4DAC8DDCEAAA3BAC7
:101510000D000D0A43414EBDD3CAD5B5BDCAFDBEAF
:10152000DDA3BA0D000D0A20D2B0BBF0463432392B
:101530002043414ECDA8D1B6BBD8BBB7CAB5D1E97F
:10154000C0FDB3CC0D0025303278202020003C3C7B
:101550002D43414E2D44454255472D41525241594C
:101560002D3E3E0088150008000000200800000005
:10157000440F000890150008080000203004000007
:10158000540F0008000000000000000000000000F0
:04000005080001AD41
:00000001FF
