:020000040800F2
:1000000040040020C50100084B2000081D0900081D
:1000100049200008AF020008AD29000800000000D8
:10002000000000000000000000000000F1260008B1
:10003000A5030008000000004D200008C9270008A3
:10004000DF010008DF010008DF010008DF01000810
:10005000DF010008DF010008DF010008DF01000800
:10006000DF010008DF010008DF010008DF010008F0
:10007000DF010008DF010008DF010008DF010008E0
:10008000DF010008DF010008DF010008DF010008D0
:10009000DF010008DF010008DF010008DF010008C0
:1000A000DF010008DF010008DF010008DF010008B0
:1000B000DF010008DF010008DF010008DF010008A0
:1000C000DF010008DF010008DF010008DF01000890
:1000D000DF010008DF010008DF010008DF01000880
:1000E000DF010008DF010008DF010008DF01000870
:1000F000DF010008DF010008DF010008DF01000860
:10010000DF010008DF010008DF010008DF0100084F
:10011000DF010008DF010008DF010008DF0100083F
:10012000DF010008DF010008DF010008DF0100082F
:10013000DF010008DF010008DF010008DF0100081F
:10014000DF010008DF010008DF010008DF0100080F
:10015000DF010008DF010008DF010008DF010008FF
:10016000DF010008DF010008DF010008DF010008EF
:10017000DF010008DF010008DF010008DF010008DF
:10018000DF010008DF010008DF010008DF010008CF
:10019000DF010008DF010008DF010008DF010008BF
:1001A000DF010008DF010008DF010008DFF810D0E0
:1001B00000F04CF8004800479D2E0008AFF3008087
:1001C000400400200648804706480047FEE7FEE757
:1001D000FEE7FEE7FEE7FEE7FEE7FEE7FEE7FEE7F7
:1001E000CD270008AD0100082DE9F05F054600208D
:1001F00092469B4688460646814640241BE0284698
:1002000041464746224600F042F853465A46C01A35
:10021000914110D311461846224600F029F82D1AB4
:1002200067EB01084F4622460120002100F020F82C
:1002300017EB00094E41201EA4F10104DFDC484603
:1002400031462A464346BDE8F09F0000064C074D64
:1002500006E0E06840F0010394E807009847103496
:10026000AC42F6D3FFF7A6FF2C4200084C42000830
:10027000202A04DB203A00FA02F100207047914066
:10028000C2F1200320FA03F3194390407047202A5B
:1002900004DB203A21FA02F00021704721FA02F330
:1002A000D040C2F120029140084319467047FEE752
:1002B00010B50121CC05204601F0FAFE2046BDE82C
:1002C0001040002101F0F4BE01460020024A5268AD
:1002D0000A4200D00120704700B0024030B500242F
:1002E0002A4B19682A4A114019601968026811439B
:1002F0001960596B21F007015963596B426811432A
:1003000059634168002928D001292DD0022930D015
:10031000032933D0C1680A01016909024469240331
:100320008568214315430D43996B0D439D63816996
:10033000D963196C6FF30D011964196CC26911430B
:100340001964818C09045A6C02F040425A645A6C58
:10035000006A02430A435A6430BDC1680A02018A36
:100360000904047D2406DBE7C1680A02018A090446
:10037000D6E7C1684A010169C902D1E7C1684A01EB
:10038000016989024469E403CAE7000000B0024041
:10039000FCE0FCFF0248016841F001010160704788
:1003A00000B00240704701B502E00098401E009086
:1003B00000980028F9D108BD01B502E00098401E60
:1003C000009000980028F9D108BD00224FF020438A
:1003D00010280AD0B0F5807F09D0B0F5805F09D031
:1003E000D3F85801814309D107E0586EFAE7D3F8F2
:1003F0008400F7E7D3F8A400F4E701221046704721
:10040000D0E9001211438268C068521E520142EACC
:10041000402001430148016070470000500100A0E6
:1004200070B50468A100A1F1C041D1F84011CE0B14
:10043000F603D0E901121143D0E903231A43114313
:100440004269C36911438269056A11431943426ACB
:100450002943114331434FF02046002C3CD0D6F8BD
:1004600040416FF30E042B4322431343C6F840313F
:1004700002689200A2F1C042C2F84011016871B353
:100480008900A1F1C041D1F8481101F07043816A9F
:100490000A684C68521E641E42EA04148A68521E9E
:1004A00044EA02240A8A521E44EA02421A43D6F857
:1004B000483103F07043CC68898A641E2403491EC6
:1004C00044EA01511943C6F8481100688000A0F1C0
:1004D000C040C0F8482170BDC6F84011CEE7FFE724
:1004E000D6F8481101F07041806A02684368521ED4
:1004F0005B1E42EA03138268521E43EA0223C2686B
:10050000521E43EA0233028A521E43EA0243828A9F
:10051000007E521E43EA0252401E42EA0060084337
:10052000C6F8480170BD000002490A6842EA40006E
:1005300008607047540100A02DE9F0410022012716
:100540004FF0030C07FA02F50B682B40AB422CD19D
:10055000066853000CFA03F4A64306600E79D0F83F
:1005600000809E4046EA080606600E79012E01D002
:10057000022E12D18668A64386604E79D0F8088094
:100580009E4046EA080686604668AE434660456877
:100590008E799640B6B235434560C568A543C560BF
:1005A000CC799C40C3681C43C460521C102AC9D338
:1005B000BDE8F08110B54B07DB0E9A40C90800EB8F
:1005C0008100016A0F249C40A1430162016A11432A
:1005D000016210BD4183704701837047FEB5002062
:1005E000009001900290224C224F207800EB4000B6
:1005F00007EB40008088401C010A8DF800108DF840
:1006000001000A226946282000F054F8002801DA87
:100610000020FEBD9DF802009DF8031000EB0120B4
:1006200085B29DF804009DF8051000EB012086B20C
:10063000207800EB400007EB40008088801D010A15
:100640008DF800108DF8010003226946282000F083
:1006500031F8002801DA0020FEBD9DF8020000F00C
:1006600003033246294604A002F0A2F90120FEBD90
:1006700038000020004100083C3C2D4754502D49D3
:100680004E464F2D3E3E20585F4D4158203D20257F
:10069000642C20595F4D4158203D2025642C205466
:1006A000524947474552203D203078253032780A5C
:1006B00000000000F0B587B00E4617464FF0FF353A
:1006C00000240021ADF806108DF804000221ADF8D9
:1006D000081003960121ADF812108DF81000B81E15
:1006E000ADF81400B01C069007E0022101A800F04C
:1006F00028FB0546022D02D0641C052CF5DB052CD9
:1007000008DB707831782B4640EA0121BA1E034895
:1007100002F04EF907B02846F0BD0000DC410008A9
:1007200038B5002000901248007800EB40011148D5
:1007300000EB41008088010A8DF800108DF801005F
:100740000024651E0DE0032269462820FFF7B2FF52
:1007500045B2002D01DD284638BD214606A002F035
:1007600027F92046641CE4B20528ECD3284638BD9E
:1007700038000020004100083C3C2D4754502D45D6
:1007800052524F522D3E3E20475450206932632032
:1007900074657374206661696C65642074696D6545
:1007A0002025642E0A00000010B500F0C1FAFFF702
:1007B000B7FF0446002C04DA05A002F0F9F8204641
:1007C00010BD00F01BF8FFF709FF002010BD00006E
:1007D0003C3C2D4754502D4552524F522D3E3E2009
:1007E00049324320636F6D6D756E69636174696F23
:1007F0006E204552524F52210A00000030B585B09C
:100800001F4803C8CDE90301082203A92820FFF7E8
:1008100051FF0446200005D51AA002F0C9F8204671
:1008200005B030BD9DF80E10312907D19DF80F207D
:10083000312A03D19DF81030352B11D09DF81320AB
:100840009DF81130CDE900329DF8120002909DF81C
:1008500010309DF80F2016A002F0AAF82046DFE71E
:100860009DF812009DF81350CDE900501EA002F033
:100870009FF8284905200870274900200870EDE7F7
:10088000F84000083C3C2D4754502D4552524F52E1
:100890002D3E3E204754502072656164207665727B
:1008A00073696F6E206661696C65640A0000000000
:1008B0003C3C2D4754502D494E464F2D3E3E205531
:1008C0006E6B6E6F776E2049432056657273696F49
:1008D0006E3A2025632563256325635F25303278D2
:1008E000253032780A0000003C3C2D4754502D49F9
:1008F0004E464F2D3E3E2049432056657273696F28
:100900006E3A202563256325635F253032782530D4
:1009100032780A003800002014000020FEE7002989
:1009200004D0018841F4806101807047018821F47E
:10093000806101807047034600209A8A1B8B1B044C
:100940001A4322F07F42914300D1012070470029D1
:1009500004D0018841F0010101807047018821F035
:1009600001010180704700002DE9FC41012188054B
:1009700001F0BAFB01214FF4C47001F08BFB01219F
:10098000880301F0BFFB204F042211463846FFF7D1
:1009900011FE042205213846FFF70CFE10200090BE
:1009A00002248DF804408DF8054001258DF806508D
:1009B00000268DF8076069463846FFF7BDFD202008
:1009C000009069463846FFF7B7FDE00100908DF8CA
:1009D00004508DF805408DF806608DF80740694693
:1009E0000A48FFF7A9FD200300908DF804508DF808
:1009F00005408DF806608DF8074069460448FFF70A
:100A00009BFDBDE8FC810000001C0240002002406C
:100A1000000C0240002904D0018841F4807101805B
:100A20007047018821F4807101807047002904D04B
:100A3000018841F4007101807047018821F4007140
:100A4000018070470CB50246002000920A0F019207
:100A500021F07F41019A002A03D0009A14320092BB
:100A600003E0090C009A18320092009A12680A42B8
:100A700000D001200CBD00007FB504460D46A088C3
:100A800020F03F06684601F04BFB02982749B0FB77
:100A9000F1F189B20E43A680228822F00102228061
:100AA000234B2A689A4209D85200B0FBF2F080B278
:100AB000042800D20420491C218423E0EB88A3F5FC
:100AC0003F46FF3E0BD002EBC20303EB0212B0FB2A
:100AD000F2F080B240F48040020506D007E002EB5D
:100AE0004202B0FBF2F080B2F6E740F0010040F4C1
:100AF00000404FF4967251434FF47A72B1FBF2F119
:100B0000491C2184A083208840F001002080208897
:100B10004FF6F5310840A9886A89114301432180C5
:100B2000A8892989084320817FBD000040420F0029
:100B3000A08601001FB50020ADF804004BF6FF7041
:100B4000ADF806000A20ADF808004FF48060ADF85B
:100B50000A000001ADF80C0007480090074C6946F8
:100B60002046FFF789FF01212046FFF7F0FE012113
:100B70002046FFF7D4FE1FBD801A06000058004033
:100B80002DE9F04780460D461446344E4FF4204080
:100B900030604FF40037DFF8C89007E03168481E36
:100BA000306003D2BDE8F04700F0AAB839464846A5
:100BB000FFF748FF0028F1D101214846FFF72AFF3F
:100BC0004FF480573760DFF89CA007E03168481E7B
:100BD000306003D2BDE8F04700F092B85146484675
:100BE000FFF7A9FE0028F1D001224146484600F057
:100BF0007BF837601B4F7F1C07E03168481E306070
:100C000003D2BDE8F04700F07BB839464846FFF70D
:100C100092FE0028F1D0134E3F3615E0012C07D18B
:100C200000214846FFF77BFE01214846FFF7FEFE04
:100C300031464846FFF77FFE30B1484600F014F8D1
:100C400005F8010B641EA4B2002CE7D1012148462F
:100C5000FFF765FE0020BDE8F087000034000020AB
:100C60000058004001000300008AC0B27047000035
:100C70002DE9FC474FF40056009601208DF8040042
:100C800002248DF8054000258DF806508DF80740A8
:100C9000124F69463846FFF74FFCDFF844904FF497
:100CA000807841464846FFF795FCDFF838A050466B
:100CB000FFF782FB41464846FFF78EFC5046FFF7A0
:100CC0007BFB00968DF804508DF805408DF8075099
:100CD00069463846FFF730FCBDE8FC87000C02404F
:100CE00000200240FFFF0F00002A02D041F0010166
:100CF00001E001F0FE0101827047018270470000AF
:100D000010B502A001F054FEFF2010BD3C3C2D4761
:100D100054502D4552524F522D3E3E2049324320D1
:100D200054696D656F7574206572726F72210A0067
:100D300010B5FFF719FEFFF7FDFEBDE81040FFF705
:100D400097BF70B505460E460024002014E004EB62
:100D5000440005EB80039978C90706D09A8815F8F6
:100D600020009968FFF70CFF05E01A7915F82000BC
:100D7000996800F009F8641C08B9B442E7D100286A
:100D800000D1204670BD00002DE9F04780460D4699
:100D90001446364E4FF4204030604FF40039344F43
:100DA00007E03068411E316003D2BDE8F047FFF72D
:100DB000A7BF49463846FFF745FE0028F1D101217B
:100DC0003846FFF727FE4FF48059C6F80090DFF849
:100DD000A4A007E03068411E316003D2BDE8F047AF
:100DE000FFF78EBF51463846FFF7A5FD0028F1D02A
:100DF000002241463846FFF777FFC6F80090DFF83B
:100E0000788007E03168481E306003D2BDE8F047C3
:100E1000FFF776BF41463846FFF78DFD0028F1D039
:100E2000DFF8548008F1020815E029783846FFF70A
:100E300064FF6D1CC6F8009007E03068401E30600B
:100E400003D2BDE8F047FFF75BBF41463846FFF7E6
:100E500072FD0028F1D0641EE4B2E6D201213846CA
:100E6000FFF7E4FD0020BDE8F0870000340000201B
:100E700000580040010003008200070070B58AB0EE
:100E8000C0F30744C0F30725C6B2FFF711FA4FF4C9
:100E900040300090012001900494039502960F20A9
:100EA00005900D48C168069100210791007800EB7C
:100EB00040010A4800EB81004189089100890990AE
:100EC0006846FFF70BFAFFF765FA0220FFF7FCF917
:100ED0000028FAD00AB070BD14000020042F0008CA
:100EE000F0B5074600240D4D0D4E08E020222146A6
:100EF000384600F017F868698088204484B2297861
:100F000001EB410006EB80000089A04205D9686929
:100F10008188081980B28842E8D2F0BD1400002010
:100F2000042F000810B4203AD3B2054A526914685D
:100F3000D2885A4304EB420210BC00F02BB80000E8
:100F4000140000202DE9F04180460D4600240F4E8C
:100F50000F4F08E021464046FFF7E4FF70698088A4
:100F6000204484B26D1C317801EB410007EB800016
:100F70000089A04208D92A78002A05D070698188A2
:100F8000081980B28842E5D2BDE8F0811400002043
:100F9000042F00082DE9F0430025DFF8B4C02D4FE1
:100FA00000EB40009CF8003003EB430307EB8303A6
:100FB0001B8943436046D0F8148042E0002030E0B3
:100FC0000C26B4FBF6F6F6004FF0800909FA06F994
:100FD00032F8156049FA00F919EA060F01D10C2C14
:100FE00008D94FF0010909FA00F916EA090F0BD1E7
:100FF0000C2C09D9DCE9024901EB41064E44F452BC
:101000001E44240CB4700AE0DCF80C9001EB41069D
:101010004E44DCF80440F4521E44240CB470491CC5
:10102000401CB8F804408442CAD89CF80000B8F8C4
:10103000044000EB400007EB80000089001B0144E6
:101040006D1CB8F80600A842B8D8BDE8F0830000CF
:1010500014000020042F00082DE9F04F5242002414
:10106000022303EB4205DFF83CC1DFF83C81DCF8EA
:101070000430C3F307469FB2DCF80C309CF800A0A4
:10108000A0EB02090AEB4A0A08EB8A0ABAF808B090
:1010900001EB040A0BFB0A9B0BEB4B0B23F80B70C9
:1010A0009CF800B00BEB4B0B08EB8B0BBBF808B0BC
:1010B0000BFB0A9B0BEB4B0B9B448BF802609CF8E1
:1010C00000E000EB020B0EEB4E0E08EB8E0EBEF8AE
:1010D00008E00EFB0ABE0EEB4E0E23F80E709CF8D5
:1010E00000E00EEB4E0E08EB8E0EBEF808E00EFB95
:1010F0000ABA0AEB4A0A9A448AF802609CF800A0ED
:101100000AEB4A0A08EB8A0ABAF808E0A1EB040ADB
:101110000EFB0ABE0EEB4E0E23F80E709CF800E09C
:101120000EEB4E0E08EB8E0EBEF808E00EFB0ABB6F
:101130000BEB4B0B9B448BF802609CF800B00BEB65
:101140004B0B08EB8B0BBBF808B00BFB0A9B0BEBB4
:101150004B0B23F80B709CF800B00BEB4B0B08EB20
:101160008B0BBBF808B00BFB0A9909EB49099944B2
:1011700089F80260A946A14509DC641C05EB440519
:101180006D1CE24203D1914501DC4FF0000991450D
:1011900003DD521C05EB42056D1C002A7FF76EAF84
:1011A000BDE8F08F14000020042F00082DE9F74F50
:1011B0000746884602980321A1EB40060024029DC1
:1011C0004FF6FF7935E09DB109EA4502A8EB050A23
:1011D000381B93461FFA8AF180B2012300F082F88F
:1011E00038195A461FFA8AF180B2012300F07AF8C2
:1011F0009CB109EA4402A8EB040A781B93461FFA43
:101200008AF180B2012300F06DF878195A461FFA6E
:101210008AF180B2012300F065F8002E03DA06EBB4
:101220008406B61D04E0601B06EB80060A366D1EC0
:10123000641CAC42C7D9029A03B041463846BDE8A7
:10124000F04FFFF709BF00002DE9F04F8BB01446B7
:101250009B46DFF88890D9F80420C2F3074602F0D5
:10126000FF08C2F3072799F80020DFF874A002EB0B
:1012700042020AEB8202128902FB0100D9F80C102B
:1012800000EB40004518FFF713F84FF44030019091
:10129000012002900497CDF80C8005960F2006904F
:1012A000079599F8000000EB40000AEB80000089E8
:1012B000001B0890CDF824B00A9401A8FFF70EF89F
:1012C000FFF768F80220FEF7FFFF0028FAD0D9F8F0
:1012D000040000F033FB0BB0BDE8F08F14000020D9
:1012E000042F00082DE9F04F8BB014469A46DFF822
:1012F0008C80DFF88C9098F8002002EB420209EB1A
:101300008202128902FB0100D8F80C1000EB4000A9
:101310004518D8F80400C0F30746C7B2C0F3072B3E
:10132000FEF7C6FF4FF44030019001210291CDF845
:1013300010B0039705960F2006900795BAF1000F9D
:1013400017D098F8000000EB400009EB80000089FE
:10135000401E089009940A9101A8FEF7BFFFFFF70D
:1013600019F80220FEF7B0FF0028FAD00BB0BDE854
:10137000F08F0020089009910A94EDE714000020F6
:10138000042F00082DE9F04106460D4617461C467D
:1013900000233A4629463046FFF7A4FF281981B2B8
:1013A00000233A463046FFF79DFF01232246294697
:1013B0003046FFF797FFF01922462946BDE8F04175
:1013C00080B20123FFF78EBF2DE9FC4F84460C4607
:1013D0000027A2EB0C00002801DCACEB020000B2FD
:1013E000191B002900DCE11A09B20FFA8CF526B2AC
:1013F0004FF0FF3B624503D34FF00109CA4601E0BD
:10140000D946DA46A34204D34FF0010B01220192E0
:1014100001E0CDF804B088420ADB4FF00009002259
:10142000019200EBD072521014B20091804623E07A
:101430004FF0000AD34601EBD172521014B2009063
:10144000884619E03146284600F002FE0098204404
:1014500004B2444508DBA4EB080004B205EB090024
:1014600005B206EB0B0006B205EB0A0005B20198C7
:10147000304406B27F1C3FB24745E3DDBDE8FC8F38
:101480002DE9FC5F012140F2FF1000F003FE4FF058
:101490000408CDF8008002208DF805008DF80400C6
:1014A00000208DF806008DF807006946AA48FFF76E
:1014B00043F80E220221A848FFF77CF84FF00809F4
:1014C000CDF800906946A448FFF736F80E220321B4
:1014D000A148FFF76FF84FF4807ACDF800A0694675
:1014E0009D48FFF729F80E2208219B48FFF762F874
:1014F0000124009469469948FFF71EF8092200214B
:101500009648FFF757F84FF4006BCDF800B06946E6
:101510009348FFF711F80E220B219148FFF74AF884
:101520002003009069468E48FFF706F80E220C2132
:101530008B48FFF73FF80220009069468748FEF786
:10154000FBFF092201218548FFF734F8402500956B
:1015500069468448FEF7F0FF0E2206218148FFF716
:1015600029F82020009069467F48FEF7E5FF0E220B
:1015700005217D48FFF71EF8009569467A48FEF779
:10158000DBFF0E2206217848FFF714F86003009075
:1015900069467148FEF7D0FF0E220D216E48FFF715
:1015A00009F8A602009669466E48FEF7C5FF0922B3
:1015B0000A216C48FEF7FEFFE0030090694666488A
:1015C000FEF7BAFF0E220F216348FEF7F3FF0094E7
:1015D00069466648FEF7B0FF0E2200216348FEF719
:1015E000E9FF8027009769466148FEF7A5FF0E22B4
:1015F00007215F48FEF7DEFFCDF8008069465B48B3
:10160000FEF79AFF0E2202215848FEF7D3FF4FF053
:101610001008CDF8008069465348FEF78DFF0E2272
:1016200004215148FEF7C6FF2003009069464D484B
:10163000FEF782FF0E220C214A48FEF7BBFF009501
:101640004C4D69462846FEF777FF0E2206212846B4
:10165000FEF7B0FFCDF800B069464248FEF76CFFD8
:101660000E220B213F48FEF7A5FFCDF8008069460A
:101670003E48FEF761FF0E2204213C48FEF79AFF28
:10168000CDF8009069463648FEF756FF0E2203213A
:101690003348FEF78FFFCDF800A069462F48FEF7CC
:1016A0004BFF0E2208212D48FEF784FF4FF40079EE
:1016B000CDF8009069462948FEF73EFF0E22092129
:1016C0002648FEF777FF009769462648FEF734FF65
:1016D0000E2207212348FEF76DFF00966946234836
:1016E000FEF72AFF0E220A212048FEF763FFCDF8FD
:1016F000009069461D48FEF71FFF0E2209211B4876
:10170000FEF758FF00961C4E69463046FEF714FF60
:101710000E220A213046FEF74DFFCDF80080022050
:101720008DF805008DF8044000208DF806008DF836
:10173000074069462846FEF7FFFE0097694628469F
:10174000FEF7FAFE10212846FEF746FF80212846C4
:10175000FEF742FFBDE8FC9F001C0240000402406F
:101760000000024000180240001002400020024029
:1017700000080240000C0240001402400148406989
:10178000704700001400002030B58FB0012188069A
:1017900000F0B8FC0121C80500F07CFCFFF770FEEA
:1017A00000F012FF062207214FF4D27000F036FD40
:1017B0004FF4003000F022FD012000F029FD3D2013
:1017C00000F000FD0028FAD0002000900190029067
:1017D00003900C900D900E901748184C007800EB79
:1017E000400304EB830081784A1E0492C278551EA0
:1017F000059514F8233019444B1E069343781A4478
:10180000531E079303895C1E0C4408944489651E8B
:101810001544099505792B441944491E0A914079CC
:1018200020441044401E0B90684600F059FB0120F4
:1018300000F046FB0FB030BD14000020042F00085C
:1018400030B591B029482A4A007800EB400012F8E0
:10185000201002EB800082788B18019353180189C5
:101860004A1E1A4402924378C2789C180394134487
:101870004289501E1844049001200590FF200690D4
:101880000790089009900A904FF480600B9007240D
:101890000C9401EB4100C11C0E910F9010924FF07F
:1018A00050400D90134D01A9284600F07BFB1249D2
:1018B0000D914FF4C0610B910C940E4C01A9803432
:1018C000204600F06FFB012000F0B8FB0121284604
:1018D00000F05CFB0121204600F058FB012000F0E5
:1018E000ADFB064800F012F811B030BD1400002026
:1018F000042F000884680140009411D02C000020BF
:10190000014A50609160704714000020014948610D
:1019100070470000140000200649002804D0064843
:10192000C8600120086170474FF05040C860002037
:101930000861704714000020009411D001494860EC
:10194000704700001400002010B5094909690029FA
:1019500008D00146074800F017FBBDE81040012001
:1019600000F06CBB01460348803800F00DFBF4E743
:1019700014000020046901402DE9F04F99B0E54DB5
:101980002878401C28700120FFF7C6FFFF20FFF7D2
:10199000DBFF0020FFF772FA6FF07F4B0021584603
:1019A000FFF7AEFFDC48FFF7B1FFFFF7E7FEC088A7
:1019B000DAA1FFF7C7FAFFF7E1FEC0884FF6FF7420
:1019C00004EA4000DBA1FFF7BDFAFFF7D7FEC088AD
:1019D000DFA100EB400080B2FFF7B4FAFFF7CEFEC4
:1019E000C088E4A104EA8000FFF7ACFAFFF7C6FE66
:1019F000C088E8A100EB800080B2FFF7A3FAFFF7F0
:101A0000BDFEC088F0A100EB400004EA4000FFF7F3
:101A100099FA2A78F5A1684600F0DAFFFFF7AEFEE2
:101A2000C088C0EBC00080B2FFF75AFAFFF7A6FEED
:101A3000C0886946C0EBC00080B2FFF783FAFF2080
:101A4000FFF77CFFFFF79AFEC08804EAC000FFF7AB
:101A500047FAFFF793FEC088EDA104EAC000FFF744
:101A600071FA4FF47F0800214046FFF749FFFA233F
:101A700040F2EE252A4619463220FFF7A5FC4FF426
:101A800096773B462A4639463220FFF79DFC4FF4B5
:101A90007F4900214846FFF733FF4FF4C8752B46B6
:101AA0002A46FA213846FFF78FFC78002B4602467B
:101AB000FA21FFF789FC5846FEF775FC002108461D
:101AC000FFF71EFFD54DD64E287800EB400006EB01
:101AD000800041890289C8398BB2C8210020FFF7F4
:101AE000B3FBFF20FFF72AFFFFF748FEC08804EA98
:101AF000C000FFF7F5F9FFF741FEC088C9A104EA6D
:101B0000C000FFF71FFA00214046FFF7F9FEC82288
:101B10006423FA211046FFF735FC00214846FFF701
:101B2000EFFE4FF4AF7A3223C822FA215046FFF776
:101B300029FC0021FF20FFF7E3FEC8233222514693
:101B40001846FFF71FFC5846FEF72DFC00210846FB
:101B5000FFF7D6FE287800EB400006EB80004189B5
:101B60000289C8398BB2C8210020FFF76DFBFF2026
:101B7000FFF7E4FEFFF702FEC08804EAC000FFF7AB
:101B8000AFF9FFF7FBFDC088A9A104EAC000FFF789
:101B9000D9F900214046FFF7B3FEC8226423FA2199
:101BA0001046FFF751FB00214846FFF7A9FE3223FC
:101BB000C822FA215046FFF747FB0021FF20FFF71C
:101BC0009FFEC823322251461846FFF73DFB584678
:101BD000FEF7E9FB00210846FFF792FE287800EBAC
:101BE000400006EB800041890289C8398BB2C821C8
:101BF0000020FFF729FBFF20FFF7A0FEFFF7BEFD47
:101C0000C08804EAC000FFF76BF9FFF7B7FDC08892
:101C10008BA104EAC000FFF795F941464046FFF763
:101C20006FFE32225146C820FFF716FA4946484651
:101C3000FFF766FE4B2251465046FFF70DFA584615
:101C4000FEF7B1FB00210846FFF75AFE287800EBAB
:101C5000400006EB800041890289C8398BB2C82157
:101C60000020FFF7F1FAFF20FFF768FEFFF786FD7F
:101C7000C08804EAC000FFF733F9FFF77FFDC08892
:101C800073A104EAC000FFF75DF900214046FFF7A9
:101C900037FE322251463846FFF788FA002148467F
:101CA000FFF72EFE4B2251464FF4E170FFF77EFA0C
:101CB0005846FEF778FB00210846FFF721FE2878FA
:101CC00000EB400006EB800041890289C8398BB2E5
:101CD000C8210020FFF7B8FAFFF750FDC08804EADA
:101CE000C000FFF7FDF85846FEF75DFB00210846EF
:101CF000FFF706FE287800EB400006EB80004189E4
:101D00000289C8398BB2C8210020FFF79DFA19B0AB
:101D1000BDE8F08F100000202C0000204248203544
:101D20002E3020696E6368204C43442070617261DC
:101D30003A000000496D616765207265736F6C75CC
:101D400074696F6E3A3830307834383020707800EB
:101D5000546F756368207061643A3520706F696EE6
:101D60007420746F75636820737570706F7274651A
:101D7000640000005573652053544D33322D4C548C
:101D80004443206469726563746564206472697693
:101D900065722C006E6F2065787465726E206C63BE
:101DA0006420647269766572206E65656465642C72
:101DB0005247423838382C32346269747320646177
:101DC0007461206275730000546F756368207061E0
:101DD00064207573652049494320746F20636F6DDB
:101DE0006D756E696361746500000000446973700D
:101DF0006C61792076616C75652064656D6F3A2041
:101E000074657374436F756E74203D2025642000E3
:101E100044726177206C696E653A000014000020FE
:101E2000042F00084472617720526563743A000001
:101E3000447261772046756C6C20526563743A0079
:101E40004472617720636972636C653A0000000038
:101E5000447261772066756C6C20636972636C658F
:101E60003A0000002DE9FC410121802000F012F928
:101E70004FF48064009401208DF8040000218DF857
:101E800006108DF807008DF805100C4F694638468E
:101E9000FEF752FB6600009669463846FEF74CFB9B
:101EA000A500009569463846FEF746FB0348183002
:101EB000048006800580BDE8FC810000001C024013
:101EC0000649002804D0086840F001000860704707
:101ED000086820F0010008607047000018680140A1
:101EE00030B5264A136826490B401360038A1B0449
:101EF000146845692C431C431460121D13680B4081
:101F00001360038B1B041468C5692C431C431460C5
:101F1000121D13680B401360038C1B041468456A80
:101F20002C431C431460121D13680B401360018D79
:101F300009041368C46A23430B431360111D0A6824
:101F4000104B1A400A60D0E900231A43D0E902344A
:101F500023431A430B681A430A60416B0A02018E3D
:101F60000B04064924310C6804F07F440C600C68B3
:101F7000806B134304431C430C6030BD0868014070
:101F800000F800F08F88FE0F41617047002904D0EF
:101F9000016841F0010101607047016821F0010111
:101FA0000160704770B58A881204436803F4704377
:101FB00043600B68134343608A891204836803F407
:101FC000704383608B6813438360026922F00702C9
:101FD00002610A690261CA6913020A8C120491F84B
:101FE000244024068569002585618E6922431E43AD
:101FF00016438661426922F0FF0242614A694261EA
:10200000C26940F207739A43C261D1E90A231A43B5
:10201000C261826A85620A6B82620A8F1204C36A95
:1020200003F0E023C3624B6B1343C362026B6FF395
:102030000A020263C96B016370BD000001490860B8
:102040007047000024680140FEE7704770470000B9
:1020500010B5002818DB0D4C227802EB42030C4A25
:1020600002EB8302138983420EDB00290CDB5289C9
:102070008A4209DB03FB0100E16800EB40000844F1
:1020800061680180090C817010BD000014000020FF
:10209000042F0008054A002903D01168014311608C
:1020A000704711688143116070470000303802406A
:1020B000054A002903D01168014311607047116877
:1020C000814311607047000010380240054A002922
:1020D00003D011680143116070471168814311609A
:1020E0007047000038380240054A002903D01168C3
:1020F000014311607047116881431160704700000F
:1021000040380240054A002903D01168014311609C
:1021100070471168814311607047000044380240E5
:1021200070B5244B196801F00C01234C00291ED016
:10213000224E04291DD008291DD00460196801F021
:10214000F00109091E4A545C0168E14041601C68C5
:1021500004F4E054A40A145D21FA04F484601B68BA
:1021600003F460435B0BD25CD140C16070BD04607E
:10217000E4E70660E2E70F4A121F1168C1F38055D9
:10218000116801F03F0135B1B6FBF1F11468C4F3F9
:102190008814614305E0B4FBF1F11468C4F38814BA
:1021A00061431268C2F30142521C5200B1FBF2F1CA
:1021B0000160C3E7083802400024F40040787D0144
:1021C0000000002002460020510901290BD00229FD
:1021D0000DD00949096802F01F02012393400B4208
:1021E00000D001207047044974390968F3E70249B7
:1021F000091F0968EFE7000074380240034A1168BC
:1022000021F4403101431160704700008C380240D6
:10221000014908677047000000004742800140EA1A
:102220000160024940EA0270086070478838024045
:102230002DE9FC5F0121FC20FFF72CFF02208DF827
:1022400004008DF8050000208DF806008DF80700C9
:10225000012000906946D648FEF76EF90C22002155
:10226000D348FEF7A7F9022000906946D048FEF750
:1022700063F90C220121CE48FEF79CF90426009652
:102280006946CB48FEF758F90C220221C848FEF7F0
:1022900091F9082000906946C548FEF74DF90C22D7
:1022A0000321C348FEF786F9102700976946C04806
:1022B000FEF742F90C220421BD48FEF77BF94FF0EE
:1022C0002008CDF800806946B948FEF735F90C22A0
:1022D0000521B748FEF76EF94FF48059CDF800900C
:1022E0006946B348FEF728F90C221146B048FEF7BC
:1022F00061F94FF4005ACDF800A06946AC48FEF7EA
:102300001BF90C220D21AA48FEF754F9350300955C
:102310006946A748FEF710F90C220E21A448FEF7E3
:1023200049F96C0000946946A148FEF705F90C22B2
:102330000F219F48FEF73EF90120009069469D4815
:10234000FEF7FAF80C2200219A48FEF733F9022032
:10235000009069469748FEF7EFF80C220121954856
:10236000FEF728F9009669469248FEF7E5F80C2238
:1023700002219048FEF71EF9009569468E48FEF747
:10238000DBF80C220E218C48FEF714F90094694604
:102390008948FEF7D1F80C220F218748FEF70AF989
:1023A0000120009069468448FEF7C6F80C220021FF
:1023B0008148FEF7FFF80220009069467E48FEF74C
:1023C000BBF80C2201217C48FEF7F4F88020009035
:1023D00069467A48FEF7B0F80C2207217748FEF7E5
:1023E000E9F8E611009669467448FEF7A5F80C2254
:1023F00008217248FEF7DEF8A011009069466F4888
:10240000FEF79AF80C2209216C48FEF7D3F84FF436
:10241000806BCDF800B069466848FEF78DF80C2255
:102420000A216648FEF7C6F8201100906946634805
:10243000FEF782F80C220B216048FEF7BBF8CDF8BE
:10244000009069465D48FEF777F80C2211465B481C
:10245000FEF7B0F8CDF800A069465848FEF76CF8D2
:102460000C220D215548FEF7A5F800956946534802
:10247000FEF762F80C220E215048FEF79BF80094FC
:1024800069464E48FEF758F80C220F214B48FEF7DC
:1024900091F8009669464848FEF74EF80C2208214C
:1024A0004548FEF787F8A011009069464248FEF7BC
:1024B00043F80C2209214048FEF77CF8CDF800B023
:1024C00069463D48FEF738F80C220A213A48FEF7E3
:1024D00071F8402000903A4D69462846FEF72CF8E6
:1024E0000C2206212846FEF765F800976946314818
:1024F000FEF722F80C2204212E48FEF75BF8CDF8F7
:10250000008069462B48FEF717F80C220521294860
:10251000FEF750F8012000902A4F69463846FEF732
:102520000BF80C2200213846FEF744F821110091E7
:1025300069461F48FEF700F80C220B211C48FEF7E5
:1025400039F8009469461B48FDF7F6FF0C220F216D
:102550001848FEF72FF8009669461648FDF7ECFF7D
:102560000C2208211348FEF725F8802000906946C8
:102570002846FDF7E1FF0C2207212846FEF71AF84E
:102580000220009069460D48FDF7D6FF0C2201217C
:102590000A48FEF70FF80120009069460748FDF74A
:1025A000CBFF0C2200210548FEF704F8BDE8FC9F94
:1025B0000014024000180240000C024000100240CB
:1025C000001C02400008024000B593B0FFF730FE47
:1025D00001210846FFF77AFD0220019007210291B0
:1025E0000422039204910590069007900120089020
:1025F000099008200A9010200B9040200C904FF476
:10260000C0700D9000200E9051020F911090880024
:10261000119001A8129008A8FDF702FF00F002F83F
:1026200013B000BD2DE9FF41012500950826019654
:1026300002950024039420210120FDF7C6FE002806
:10264000F9D16846FDF7DCFE0A2000F041F80220CF
:10265000009001960295039420210120FDF7B5FE1C
:102660000028F9D16846FDF7CBFE032000900196C3
:1026700004270297039420210120FDF7A6FE0028DD
:10268000F9D16846FDF7BCFE20210120FDF79DFE33
:102690000028F9D16846FDF7B3FE40F231200097DB
:1026A00001960295039020210120FDF78EFE00285F
:1026B000F9D16846FDF7A4FE40F2AB20FDF734FFE8
:1026C00020210120FDF781FE0028F9D1BDE8FF811E
:1026D00001B581B0054901984843009002E0009897
:1026E000401E009000980028F9D10CBDA086010082
:1026F000704700001CB50021019100912E4A10681E
:1027000040F4803010604FF4A043106800F40030B3
:1027100000900198401C0190009810B901989842CF
:10272000F3D11068800302D50120009000E00091F1
:10273000009801283FD120484030016841F0805185
:1027400001601E49086840F4404008601A4808309B
:1027500003680360036843F400430360036843F4C1
:10276000A0530360041F164B2360136843F080736B
:10277000136013689B01FCD50A6842F480320A603A
:102780004A68D203FCD50A6842F400320A604A68FB
:102790009203FCD50B4A40F205711160016821F0EB
:1027A00003010160016841F0020101600168C1F3A9
:1027B00081010229FAD11CBD00380240007000409E
:1027C000195A4007003C02407047000010B51248FB
:1027D000016841F4700101601048016841F0010195
:1027E00001600E4A00210832116002680C4B1A4049
:1027F0000260031D0B4A1A60026822F48022026004
:1028000006480C300160FFF775FF03494FF0006088
:102810008039086010BD000088ED00E000380240FB
:10282000FFFFF6FE10300024002904D0818941F416
:10283000005181817047818921F400518181704765
:1028400070B586B001210846FFF724FC0121102055
:10285000FFF758FC1E4E07220A213046FDF7AAFE5C
:10286000072209213046FDF7A5FE00248DF8164009
:1028700001208DF8170002258DF8145041020491B3
:102880008DF8155004A93046FDF756FE8DF814500A
:102890006802049004A93046FDF74EFE4FF4E13083
:1028A0000090ADF80440ADF80640ADF80840ADF832
:1028B0000C400C20ADF80A00064C6946204600F09A
:1028C00013F801212046FFF7AFFF06B070BD0000EE
:1028D00000000240001001400246002012880A4217
:1028E00000D00120704700007FB504460D46208AC5
:1028F00020F44051E88808432082A08941F20C610D
:102900008843A9882A8911436A8902431143A18116
:10291000A08A20F44071A8890843A0826846FFF786
:10292000FFFB1E48844202D01D48844201D1039817
:1029300000E00298A189090408D500EBC00101EB71
:10294000001029684900B0FBF1F007E000EBC0017E
:1029500001EB001029688900B0FBF1F06422B0FBA4
:10296000F2F109010B096FF018056B4300EB8300CE
:10297000A3891D044FF0320307D503EBC000B0FB61
:10298000F2F000F00700084306E003EB0010B0FB94
:10299000F2F000F00F00084320817FBD00100140DD
:1029A00000140140C1F3080181807047FEE7000078
:1029B0000FB4054B10B503A9044A029800F02CF897
:1029C00010BC5DF814FB0000792E00083C000020CC
:1029D0000FB4084B10B504A902AA039800F01CF824
:1029E000044602A9002000F042FA204610BC5DF81F
:1029F00014FB00006F2E000802E008C8121F08C177
:102A0000002AFAD170477047002001E001C1121F6F
:102A1000002AFBD1704700002DE9FF4F8DB00F4613
:102A20000546002606E025280BD0DDE90F12904769
:102A30006D1C761C28780028F5D111B03046BDE811
:102A4000F08F0024A246A1460122E94900E0044398
:102A500015F8013F203B02FA03F00842F7D128782D
:102A60002A2810D06FF02F022878A0F13001092910
:102A700014D80AEB8A0102EB410144F0020400EB96
:102A8000010A6D1CF0E701CF5FEA000A03D544F4A8
:102A90000054CAF1000A44F002046D1C28782E2864
:102AA00017D115F8010F44F004042A280ED06FF056
:102AB0002F022878A0F1300109290AD809EB8901F1
:102AC00002EB410100EB01096D1CF2E757F8049B92
:102AD0006D1C28786C280FD006DC4C2817D068288D
:102AE0000DD06A2814D104E0742810D07A280FD1B0
:102AF0000DE044F400140AE044F4801401E044F4CE
:102B000040146978814202D104F580146D1C6D1C5B
:102B100028786E281ED00CDC632830D004DC002816
:102B20008BD0582811D19FE0642867D069280CD138
:102B300064E073282DD004DC6F2872D0702804D193
:102B400094E075286ED078286DD0DDE90F1290479B
:102B5000761C4BE1C4F30250022806D0032809D0AA
:102B6000042801CF09D0066040E101CFF117C0E988
:102B700000613BE101CF068038E1067036E117F8CD
:102B8000040B8DF8000000208DF80100EB460120B9
:102B900003E057F804BB4FF0FF3061074FF000012E
:102BA00002D40DE008F10101884649450FDA80455D
:102BB000F8DB1BF808100029F4D108E008F1010146
:102BC00088468142FADB1BF808100029F6D1DDE9BE
:102BD0000F23AAEB08008146214600F031F930446A
:102BE00000EB080604E0DDE90F121BF8010B90472B
:102BF000B8F10108F7D221464846F2E00A21C4F3B1
:102C000002524FF0000B0891022A04D001CFC117E5
:102C1000032A09D00AE0FF1D27F00707F7E80201A1
:102C200008E02CE01EE01FE000B2C117042A01D129
:102C300040B2C117021E71F1000206DA0023D0EB88
:102C4000030063EB01012D2202E0220504D52B22B3
:102C50008DF82420012203E0E20701D02022F7E7CB
:102C6000904653E00A210BE0102109E010214FF0BB
:102C7000000B44F004044FF00809089103E0082118
:102C80004FF0000B0891C4F30252022A04D001CF86
:102C90000021032A06D006E0FF1D27F00707F7E80A
:102CA000020103E080B2042A00D1C0B24FF0000854
:102CB00022072BD52A78702A07D0DDF820C08CF0A7
:102CC000100C5CEA0B0C05D00EE040228DF824209D
:102CD000012208E050EA010306D030238DF82430A9
:102CE0008DF8252002229046089B83F0080353EAC2
:102CF0000B030BD150EA010201D1620706D5302245
:102D00008DF824204FF00108A9F101092A78582AEA
:102D100004D038A20B9208AA0A920BE03AA2F9E773
:102D20005B46089AFDF760FA0B9B9B5C0A9A521E61
:102D30000A92137050EA0102F2D10A98ADEB00003A
:102D400000F1200B600702D524F4803401E04FF03D
:102D50000109D94502DDA9EB0B0000E0002000EBE2
:102D60000B0141440890AAEB010AE00306D4DDE917
:102D70000F232146504600F063F806444FF0000947
:102D800008E009A911F80900DDE90F12904709F1DF
:102D90000109761CC145F4DBE0030CD5DDE90F2306
:102DA0002146504600F04CF8064404E0DDE90F12DD
:102DB00030209047761C0899481E08900029F5DCC1
:102DC00008E00A980A990078491C0A91DDE90F1277
:102DD0009047761CBBF10001ABF1010BF1DC214601
:102DE0005046DDE90F2300F019F806446D1C21E67A
:102DF00009280100303132333435363738396162D1
:102E00006364656600000000303132333435363794
:102E10003839414243444546000000002DE9F04165
:102E2000044600251E461746880404D405E03946AA
:102E30002020B0476D1C641EF9D52846BDE8F081FE
:102E40002DE9F041044600251E469046C80301D5F1
:102E5000302700E02027880404D505E041463846A5
:102E6000B0476D1C641EF9D52846BDE8F0810A689C
:102E7000531C0B601070704770B50446064DE1B2EC
:102E80002846FFF78FFD80212846FFF725FD002803
:102E9000F9D0204670BD000000100140FEF7E2FFAF
:102EA000FFF7CEFCFDF780FC1448FFF781FDFEF72D
:102EB0006BFCFEF7C5FC0120FFF702F80020FEF7CF
:102EC0002BFD0020FDF7DAFF0120FEF725FDFF2096
:102ED000FEF73AFD0020FDF7D1FF09484FF480616D
:102EE0000180C114018006498014891C0880401E9D
:102EF000FDF759FAFEF740FDFCE700002441000809
:102F0000181C02402E170103280D21152003E00193
:102F10002E170101161621152003E0010802290AC7
:102F200004040F0FE0011001000000000000000089
:102F30000000000000000000000000000000000091
:102F40000000000000000000000000000000000081
:102F500000000000000000000000800180018001EE
:102F60008001800180018001800180018001800159
:102F7000800180010000000080018001000000004D
:102F8000000000000000000000000000CC00CC00A9
:102F9000CC00CC00CC00CC00000000000000000001
:102FA0000000000000000000000000000000000021
:102FB0000000000000000000000000000000000011
:102FC00000000000600C600C600C30063006FE1F34
:102FD000FE1F300638071803FE1FFE1F18031803D4
:102FE0008C018C018C01000000008000E003F80FD0
:102FF0009C0E8C1C8C188C009800F801E007800E49
:10300000801C8C188C189C18B80CF00FE003800002
:1030100080000000000000000000000000000E180A
:103020001B0C110C11061106110311039B018E01DB
:10303000C038C06C60446044304430441844186C5C
:103040000C380000000000000000E001F003380729
:10305000180618063003F001F000F8009C310E331A
:10306000061E061C061C063FFC73F0210000000033
:103070000000000000000000000000000C000C0038
:103080000C000C000C000C00000000000000000010
:103090000000000000000000000000000000000030
:1030A000000000000000000000000002000380019A
:1030B000C000C00060006000300030003000300010
:1030C000300030003000300060006000C000C00000
:1030D0008001000300020000000020006000C0002A
:1030E00080018001000300030006000600060006C0
:1030F00000060006000600060003000380018001B0
:10310000C00060002000000000000000000000007F
:1031100000000000C000C000D806F807E00130033E
:103120003807000000000000000000000000000060
:10313000000000000000000000000000000000008F
:103140000000000080018001800180018001FC3FBF
:10315000FC3F8001800180018001800100000000AF
:10316000000000000000000000000000000000005F
:10317000000000000000000000000000000000004F
:10318000000000000000000000008001800100013C
:1031900000018000000000000000000000000000AE
:1031A000000000000000000000000000000000001F
:1031B000E007E00700000000000000000000000041
:1031C00000000000000000000000000000000000FF
:1031D00000000000000000000000000000000000EF
:1031E00000000000000000000000C000C00000005F
:1031F00000000000000000000000000C000C0006B1
:103200000006000600030003000380038001800124
:103210008001C000C000C00060006000000000002D
:1032200000000000000000000000E003F007380E7E
:10323000180C0C180C180C180C180C180C180C186E
:103240000C180C18180C380EF007E00300000000F2
:103250000000000000000000000000018001C0012B
:10326000F0019801880180018001800180018001C6
:103270008001800180018001800180010000000048
:1032800000000000000000000000E003F80F180C30
:103290000C180C1800180018000C00060003800120
:1032A000C000600030001800FC1FFC1F0000000080
:1032B00000000000000000000000E001F807180E08
:1032C0000C0C0C0C000C0006C003C007000C00180E
:1032D00000180C180C18180CF807E0030000000088
:1032E00000000000000000000000000C000E000FB5
:1032F000000F800DC00C600C600C300C180C0C0C16
:10330000FC3FFC3F000C000C000C000C0000000017
:1033100000000000000000000000F80FF80F180087
:1033200018000C00EC03FC071C0E001C0018001811
:1033300000180C181C0C180EF807E0030000000021
:1033400000000000000000000000C007F00F381C63
:10335000181818000C00CC03EC0F3C0E1C1C0C18A9
:103360000C180C18181C380EF007E00300000000C1
:1033700000000000000000000000FC1FFC1F000C0B
:1033800000060006000380038001C001C000E000C9
:10339000600060007000300030003000000000006D
:1033A00000000000000000000000E003F007380EFD
:1033B000180C180C180C3806F007F007180C0C182D
:1033C0000C180C180C18380CF80FE0030000000063
:1033D00000000000000000000000E003F007380ECD
:1033E0001C0C0C180C180C181C1C381EF81BE019AF
:1033F0000018000C000C1C0EF807F0010000000083
:1034000000000000000000000000000000000000BC
:1034100000000000800180010000000000000000AA
:10342000000000000000000080018001000000009A
:10343000000000000000000000000000000000008C
:10344000000000008001800100000000000000007A
:103450000000000000000000800180010001000168
:1034600080000000000000000000000000000000DC
:1034700000000000000000000010001C800FE003AE
:10348000F8001800F800E003800F001C0010000096
:10349000000000000000000000000000000000002C
:1034A0000000000000000000F81F00000000000005
:1034B000F81F0000000000000000000000000000F5
:1034C00000000000000000000000000000000000FC
:1034D000000000000000000008003800F001C007F4
:1034E000001F0018001FC007F0013800080000008E
:1034F00000000000000000000000E003F80F180CBE
:103500000C180C180018000C000600038001C00005
:10351000C000C00000000000C000C00000000000AB
:10352000000000000000000000000000E007181884
:103530000420C229224A11440944094409440922A9
:103540001113E20C024004201818E00700000000EC
:103550000000000000000000000080038003C0069F
:10356000C006C006600C600C301830183018F83FE8
:10357000F83F1C700C600C6006C006C00000000024
:1035800000000000000000000000FC03FC0F0C0C19
:103590000C180C180C180C0CFC07FC0F0C180C3039
:1035A0000C300C300C300C18FC1FFC070000000025
:1035B00000000000000000000000C007F01F3838C5
:1035C0001C300C70066006000600060006000600AF
:1035D000060006600C701C30F01FE00700000000C1
:1035E00000000000000000000000FE03FE0F060EB9
:1035F000061806180630063006300630063006304B
:10360000063006180618060EFE0FFE030000000026
:1036100000000000000000000000FC3FFC3F0C0028
:103620000C000C000C000C00FC1FFC1F0C000C001C
:103630000C000C000C000C00FC3FFC3F00000000E4
:1036400000000000000000000000F83FF83F1800F4
:103650001800180018001800F81FF81F18001800AC
:1036600018001800180018001800180000000000CA
:1036700000000000000000000000E00FF83F3C7870
:103680000E6006E007C00300030003FE03FE03C054
:1036900007C006C00EC03CF0F83FE00F000000007D
:1036A000000000000000000000000C300C300C3066
:1036B0000C300C300C300C30FC3FFC3F0C300C302C
:1036C0000C300C300C300C300C300C300000000092
:1036D0000000000000000000000080018001800167
:1036E00080018001800180018001800180018001D2
:1036F00080018001800180018001800100000000C4
:1037000000000000000000000000000600060006A7
:103710000006000600060006000600060006000679
:103720000006180618063807F003E0010000000044
:103730000000000000000000000006300618060C23
:10374000060606038601C60066007600DE008E01CE
:1037500006030606060C0618063006600000000088
:103760000000000000000000000018001800180011
:103770001800180018001800180018001800180089
:103780001800180018001800F81FF81F00000000AB
:10379000000000000000000000000EE01EF01EF01F
:1037A0001EF036D836D836D836D866CC66CC66CC3D
:1037B000C6C6C6C6C6C6C6C686C386C30000000047
:1037C000000000000000000000000C301C303C3005
:1037D0003C306C306C30CC30CC308C310C330C3312
:1037E0000C360C360C3C0C3C0C380C300000000045
:1037F00000000000000000000000E007F81F1C3877
:103800000E70066003C003C003C003C003C003C042
:1038100003C006600E701C38F81FE00700000000AF
:1038200000000000000000000000FC0FFC1F0C382E
:103830000C300C300C300C300C18FC1FFC070C004A
:103840000C000C000C000C000C000C000000000030
:1038500000000000000000000000E007F81F1C3816
:103860000E70066003E003C003C003C003C003C0C2
:1038700007E006630E3F1C3CF83FE0F700C0000085
:1038800000000000000000000000FE0FFE1F0638D0
:103890000630063006300638FE1FFE070603060611
:1038A000060C0618061806300630066000000000F8
:1038B00000000000000000000000E003F80F1C0CF6
:1038C0000C180C180C001C00F803E00F001E003848
:1038D000063006300E301C1CF80FE0070000000018
:1038E00000000000000000000000FE7FFE7F80015D
:1038F00080018001800180018001800180018001C0
:1039000080018001800180018001800100000000B1
:10391000000000000000000000000C300C300C30F3
:103920000C300C300C300C300C300C300C300C30B7
:103930000C300C300C301818F81FE00700000000A5
:1039400000000000000000000000036006300630A8
:1039500006300C180C180C18180C180C380E300601
:103960003006700760036003C001C0010000000062
:10397000000000000000000000000360C361C3619C
:10398000C3616633663366336633663366336C1BF6
:103990006C1B6C1B2C1A3C1E380E380E00000000ED
:1039A000000000000000000000000FE00C70183064
:1039B0003018700C600EC00780038003C003E0065F
:1039C000700C301C18180C300E6007E0000000006E
:1039D0000000000000000000000003C006600C3082
:1039E0001C383818300C6006E007C00380018001E5
:1039F00080018001800180018001800100000000C1
:103A000000000000000000000000FC7FFC7F006060
:103A100000300018000C000600038001C0006000A8
:103A2000300018000C000600FE7FFE7F0000000042
:103A300000000000000000000000E003E003600060
:103A40006000600060006000600060006000600076
:103A50006000600060006000600060006000600066
:103A60006000E003E0030000000030003000600070
:103A700060006000C000C000C000C0018001800183
:103A800080010003000300030006000600000000A0
:103A900000000000000000000000E003E00300035D
:103AA00000030003000300030003000300030003FE
:103AB00000030003000300030003000300030003EE
:103AC0000003E003E003000000000000C001C001AB
:103AD00060036003600330063006180C180C000009
:103AE00000000000000000000000000000000000D6
:103AF00000000000000000000000000000000000C6
:103B000000000000000000000000000000000000B5
:103B100000000000000000000000FFFFFFFF0000A9
:103B2000000000000000000000000C000C000C0071
:103B30000C000C000C000000000000000000000061
:103B40000000000000000000000000000000000075
:103B50000000000000000000000000000000000065
:103B600000000000F003F8071C0C0C0C000FF00F15
:103B7000F80C0C0C0C0C1C0FF80FF01800000000D7
:103B800000000000000000000000180018001800ED
:103B900018001800D803F80F380C1818181818183F
:103BA000181818181818380CF80FD803000000005F
:103BB0000000000000000000000000000000000005
:103BC00000000000C003F007300E180C18001800A9
:103BD00018001800180C300EF007C0030000000099
:103BE000000000000000000000000018001800188D
:103BF00000180018C01BF01F301C181818181818CF
:103C0000181818181818301CF01FC01B00000000EE
:103C100000000000000000000000000000000000A4
:103C200000000000C003F00F300C1818F81FF81F38
:103C3000180018003818301CF00FC00700000000F2
:103C400000000000000000000000800FC00FC00056
:103C5000C000C000F007F007C000C000C000C000F6
:103C6000C000C000C000C000C000C00000000000D4
:103C70000000000000000000000000000000000044
:103C800000000000E00DF80F180E0C0C0C0C0C0CD2
:103C90000C0C0C0C0C0C180EF80FE00D000C0C0C9E
:103CA0001C06F807F00100000000180018001800BA
:103CB00018001800D807F80F381C1818181818180A
:103CC00018181818181818181818181800000000D4
:103CD00000000000000000000000C000C000000064
:103CE00000000000C000C000C000C000C000C00054
:103CF000C000C000C000C000C000C0000000000044
:103D000000000000000000000000C000C000000033
:103D100000000000C000C000C000C000C000C00023
:103D2000C000C000C000C000C000C000C000C00093
:103D3000C000F8007800000000000C000C000C002F
:103D40000C000C000C0C0C060C038C01CC006C005D
:103D5000FC009C018C030C030C060C0C0000000002
:103D600000000000000000000000C000C000C00013
:103D7000C000C000C000C000C000C000C000C00043
:103D8000C000C000C000C000C000C00000000000B3
:103D90000000000000000000000000000000000023
:103DA000000000007C3CFF7EC7E383C183C183C168
:103DB00083C183C183C183C183C183C1000000006B
:103DC00000000000000000000000000000000000F3
:103DD000000000009807F80F381C18181818181859
:103DE00018181818181818181818181800000000B3
:103DF00000000000000000000000000000000000C3
:103E000000000000C003F00F300C18181818181824
:103E1000181818181818300CF00FC0030000000014
:103E20000000000000000000000000000000000092
:103E300000000000D803F80F380C181818181818CC
:103E4000181818181818380CF80FD803180018008C
:103E5000180018001800000000000000000000001A
:103E600000000000C01BF01F301C1818181818188C
:103E7000181818181818301CF01FC01B001800184C
:103E800000180018001800000000000000000000EA
:103E900000000000B007F003700030003000300078
:103EA00030003000300030003000300000000000F2
:103EB0000000000000000000000000000000000002
:103EC00000000000E003F003380E180C3800F00387
:103ED000C007000C180C380EF007E00300000000CB
:103EE0000000000000000000000000008000C00092
:103EF000C000C000F007F007C000C000C000C00054
:103F0000C000C000C000C000C00780070000000063
:103F100000000000000000000000000000000000A1
:103F20000000000018181818181818181818181871
:103F3000181818181818381CF01FE0190000000095
:103F40000000000000000000000000000000000071
:103F5000000000000C18180C180C180C3006300665
:103F60003006600360036003C001C0010000000070
:103F70000000000000000000000000000000000041
:103F800000000000C141C141C361636363636363B7
:103F90003636363636361C1C1C1C1C1C0000000035
:103FA0000000000000000000000000000000000011
:103FB000000000001C38381C300C600660036003F1
:103FC000600360036006300C381C1C3800000000E1
:103FD00000000000000000000000000000000000E1
:103FE000000000001830301830187018600C600C99
:103FF000E00CC006C00680038003800380018001BE
:10400000C001F0007000000000000000000000008F
:1040100000000000FC1FFC1F000C000600038001D4
:10402000C000600030001800FC1FFC1F00000000F2
:104030000000000000000000000000038001C0003C
:10404000C000C000C000C000C000600060003000C0
:1040500060004000C000C000C000C000C000C00040
:104060008001000300000000000080018001800149
:104070008001800180018001800180018001800138
:104080008001800180018001800180018001800128
:10409000800180018001000000006000C000C001BC
:1040A000800180018001800180010003000300067F
:1040B00000030001800180018001800180018001F6
:1040C000C0006000000000000000000000000000D0
:1040D0000000000000000000F010F81F080F0000B2
:1040E00000000000000000000000000000000000D0
:1040F00000000000000000008140000000000000FF
:104100002003E00147802003E0014780E001100127
:1041100050802003E00150802003E001478020030D
:10412000E00150800D0ACCE1CABEA3BA0D0AC8E76F
:10413000B9FBCAC7342E33B4E72F35B4E7B5C45240
:104140004742C6C1C4BBA3ACCAB9D3C3B5C4B4A5A6
:10415000C3FED0BEC6ACBFC9C4DCCAC747543131E8
:104160003531514DA1A30D0AC8E7B9FBB4A5C3FE73
:10417000BBF2CFD4CABED2ECB3A3A3ACC7EBC8B7D3
:10418000C8CFCAB9D3C3B5C4C6C1C4BBB4A5C3FEE6
:10419000D0BEC6ACD0CDBAC5A3ACD4DAA1B06273E0
:1041A000705F6932635F746F7563682E68A1B1CE0A
:1041B000C4BCFED0DEB8C4BAEAB6A8D2E5204C43EF
:1041C000445F544F5543485F49435F47543131354D
:1041D00031514DA1A30D0A0D0A0000003C3C2D47B2
:1041E00054502D4552524F522D3E3E2049324320CD
:1041F000526561643A203078253034582C2025648B
:10420000206279746573206661696C65642C206531
:104210007272636F64653A202564212050726F6367
:104220006573732072657365742E0A004C42000832
:104230000000002040000000F82900088C4200081F
:104240004000002000040000082A000800000000D0
:10425000010203040102030406070809000000002C
:104260000000000000000000FFFFFF00000000D081
:104270000000000000000000282F000810001800B7
:0C42800000A00000000000000000000092
:04000005080001AD41
:00000001FF
