:020000040800F2
:1000000008040020C10100089D040008190400082C
:1000100099040008B9020008650700080000000004
:100020000000000000000000000000007105000852
:10003000BD02000800000000A104000875050008CA
:10004000DB010008DB010008DB010008DB01000820
:10005000DB010008DB010008DB010008DB01000810
:10006000DB010008DB010008DB010008DB01000800
:10007000DB010008DB010008DB010008DB010008F0
:10008000DB010008DB010008DB010008DB010008E0
:10009000DB010008DB010008DB010008DB010008D0
:1000A000DB010008DB010008DB010008DB010008C0
:1000B000DB010008DB010008DB010008DB010008B0
:1000C000DB010008DB010008DB010008DB010008A0
:1000D000DB010008DB010008DB010008DB01000890
:1000E000DB010008DB010008DB010008DB01000880
:1000F000DB010008DB010008DB010008DB01000870
:10010000DB010008DB010008DB010008DB0100085F
:10011000DB010008DB010008DB010008DB0100084F
:10012000DB010008DB010008DB010008DB0100083F
:10013000DB010008DB010008DB010008DB0100082F
:10014000DB010008DB010008DB010008DB0100081F
:10015000DB010008DB010008DB010008DB0100080F
:10016000DB010008DB010008DB010008DB010008FF
:10017000DB010008DB010008DB010008DB010008EF
:10018000DB010008DB010008DB010008DB010008DF
:10019000DB010008DB010008DB010008DB010008CF
:1001A000DB010008DB010008DB010008DFF80CD0F0
:1001B00000F04AF8004800474D0C000808040020F1
:1001C0000648804706480047FEE7FEE7FEE7FEE7F1
:1001D000FEE7FEE7FEE7FEE7FEE7FEE7790500083B
:1001E000AD0100082DE9F05F0546002092469B46D0
:1001F00088460646814640241BE02846414647463D
:10020000224600F048F853465A46C01A914110D38E
:1002100011461846224600F02FF82D1A67EB010808
:100220004F4622460120002100F026F817EB000976
:100230004E41201EA4F10104DFDC484631462A4627
:100240004346BDE8F09F00001CB5094800900948EE
:1002500001900546009C06E0E06840F0010394E848
:10026000070098471034AC42F6D3FFF7A3FF000015
:10027000D8110008F8110008202A04DB203A00FAFF
:1002800002F1002070479140C2F1200320FA03F3ED
:10029000194390407047202A04DB203A21FA02F0EB
:1002A0000021704721FA02F3D040C2F120029140B0
:1002B0000843194670470000FEE700007047000041
:1002C00070B586B001200121012500F0EBF8102067
:1002D000012100F0F3F80024C4F2020420460A21B0
:1002E000072200F079F820460921072200F074F86F
:1002F0008DF817504FF4007004AD0226049020468C
:1003000029468DF81460ADF8156000F01FF84FF421
:1003100080600490204629468DF8146000F016F89D
:100320004FF4E130009000204FF44021A4F57044D8
:1003300001900291ADF80C006946204600F0B2F938
:100340002046012100F09EF906B070BD2DE9F04372
:10035000D1F8008000234FF0010C4FF0030E002471
:1003600010E000BFC26802EA0902C260CA79C5682B
:100370009A402A43C2600134102C03F1020308BFE3
:10038000BDE8F0830CFA04F618EA060FF3D0026811
:100390000EFA03F7BA4302600A796FEA07090768A1
:1003A00002FA03F5013A3D43012A0560DAD8826872
:1003B00002EA090282604A798D7987689A403A4355
:1003C00082604268B243426005FA04F2456892B224
:1003D0002A434260C6E700001C2303EA810C6FF049
:1003E000030303EA510108440F23016A03FA0CF3E3
:1003F00099430162016A02FA0CF2114301627047EB
:100400000069084018BF012070470000090481619D
:100410007047000081617047FEE700002DE9F04160
:1004200082B08820012100F03DF8012041F600440F
:10043000C0F20010C4F202046D464FF480680190CF
:1004400020462946CDF80080FFF780FF4FF4006773
:10045000204629460097FFF779FF4FF48056204643
:1004600029460096FFF772FFA4F5805420462946DE
:100470000097FFF76BFF41F61840C4F20200C0F886
:1004800000800760066020464FF40061FFF7BEFF62
:1004900002B0BDE8F0810000FEE7000070470000F8
:1004A00070470000002943F63001C4F202010A68D7
:1004B0000CBF22EA0000104308607047002943F691
:1004C0004401C4F202010A680CBF22EA0000104392
:1004D0000860704710B543F60401C4F202014A688F
:1004E00002F00C0342F20042082BC0F2F40206D0E4
:1004F000042B20D147F64002C0F27D121BE0D1F858
:1005000000C0D1F800E00B680EF03F0EC3F3881472
:100510005FEA4C2347F64003C0F27D1358BF1346F1
:10052000B3FBFEF20B686243C3F30143022404EB06
:100530004303B2FBF3F202604A6841F2B813C2F31C
:100540000312C0F600039A5C046824FA02F24260C7
:100550004C68C4F382241C5D22FA04F48460496868
:10056000C1F34231595C22FA01F1C16010BD0000B3
:10057000704700007047000082B043F60000C4F2EC
:10058000020001684FF6FF7341F001010160002194
:1005900081600268CFF6F6631A40026043F21002EF
:1005A000C2F200424260026822F480220260C1600E
:1005B00001910091016841F480310160016801F40A
:1005C00000310091019901310191009919B9019906
:1005D000B1F5A04FF2D10168890354BF0021012178
:1005E00000910099012944D1026C47F2000142F0C8
:1005F0008052C4F2000102640A6842F440420A6078
:1006000082688260826842F400428260826842F4BA
:10061000A052826045F61922C0F240724260026820
:1006200042F08072026000BF02689201FCD50A6845
:1006300042F480320A6000BF4A68D203FCD50A68DF
:1006400042F400320A6000BF4A689203FCD540F2CF
:100650000571C0F80014816821F003018160816890
:1006600041F00201816000BF816801F00C0108299E
:10067000FAD14EF60850CEF200004FF00061016052
:1006800002B070478289002918BF012122F400526C
:1006900042EA4131818170470088084018BF01203B
:1006A0007047000070B584B00446008A0D46C988C2
:1006B00020F4405008432082A0894EF6F3110840F0
:1006C000A9882A896B89084310431843A081A08A0E
:1006D000A98920F4407008436E46A0823046FFF797
:1006E000F9FE41F2000124F48060C4F20101082205
:1006F000884208BF0C22B058B4F90C100122B1F1A5
:10070000FF3FC8BF02222B681921484303FA02F1B8
:10071000B0FBF1F048F21F51C5F2EB11A0FB012331
:100720005A096FF0630302FB0300B4F90C3003268F
:10073000B3F1FF3FC8BF042600FA06F000F1320013
:10074000A0FB01014FF00700C8BF0F2000EA5110C5
:1007500040EA0210208104B070BD00006FF35F21F9
:1007600081807047FEE7000070B514460E460546CE
:1007700000F024FAA02000F0F5F900F04BFA68B977
:10078000F0B200F0EFF900F045FA38B900F016FACF
:10079000A12000F0E7F900F03DFA20B1002400F0BC
:1007A00025FA204670BD3CB90124F8E700F0A6F90F
:1007B000013C05F10105F7D000F0B4F9012C2870D7
:1007C000F4D000F009F9F3E72DE9F041ADF5007D33
:1007D000A02000F019F948B100F008FA2EA000F0AE
:1007E000D9FC00200DF5007DBDE8F081002040A976
:1007F00008540130B0F5807FFAD140AC204600218A
:100800004FF4807200F098F878B329A000F0C2FC91
:100810004FF6FF70C0F20F000090009810B10098E2
:100820000138F9E76D46284600214FF48072FFF742
:100830009BFFF8B122A000F0ADFC002732A60FF21A
:10084000D00803E00137B7F5807F1CD0E95DE05D9B
:10085000814211D1304600F04BFA07F00F000F280B
:10086000F0D1404600F096FCECE741F2C810C0F62B
:100870000000B4E72CA0B2E718A000F039FA19A0E4
:1008800000F036FAADE723A000F084FC01200DF55E
:10089000007DBDE8F08100BFC3BBD3D0BCECB2E2A9
:1008A000B5BDB4AED0D0454550524F4D210D0000DE
:1008B000D0B4656570726F6DB3C9B9A6A3A10D0000
:1008C000B6C1656570726F6DB3C9B9A6A3ACCAFD38
:1008D000BEDDC8E7CFC2A3BA0D00000030782530D6
:1008E00032582000B4EDCEF33A454550524F4DB644
:1008F000C1B3F6D3EBD0B4C8EBB5C4CAFDBEDDB20C
:10090000BBD2BBD6C2000000202530325800000008
:100910000D000000656570726F6DB6C1D0B4B2E2B3
:10092000CAD4B3C9B9A60D00B6C1656570726F6D42
:10093000B3F6B4EDA3A10D002DE9F04381B082B36D
:1009400091460D468046002740F2E736002F18BF3B
:1009500015F0070019D100F049F9002400F02EF934
:10096000A02000F0FFF800F055F928B1B44204F1DE
:100970000104F3D34FF47A74B4F57A7F13D0E8B25C
:1009800000F0F0F800F046F968B918F8070000F038
:10099000E9F800F03FF930B901374F4505F101059D
:1009A000D4D1012400E0002400F020F9204601B059
:1009B000BDE8F083B0B541F20005C4F2010504467C
:1009C000C1B22846FFF7CAFE28468021FFF764FE21
:1009D0000028F9D02046B0BD10B540F20044C4F262
:1009E000020420468021FFF711FD20464021FFF739
:1009F00011FD20464021FFF709FD20468021BDE87A
:100A00001040FFF707BD000070B582B0054640F208
:100A1000004402200121C4F20204FFF743FDC0207C
:100A2000009040F20120C0F201000190694620468A
:100A3000FFF78CFC20468021FFF7E8FC2046402190
:100A4000FFF7E8FC20468021FFF7E4FC20468021E8
:100A5000FFF7E0FC20464021FFF7DCFC2046802128
:100A6000FFF7D4FC20464021FFF7D0FC002604E02D
:100A70006D00072E06F101061BD268B2B0F1FF3FF0
:100A800004DD20468021FFF7C1FC03E020468021E1
:100A9000FFF7C0FC20464021FFF7BCFC2046402168
:100AA000FFF7B4FC072EE3D120468021FFF7B2FC0C
:100AB000DEE720468021FFF7ADFC20464021FFF70E
:100AC000A9FC20468021FFF79BFC05460028204614
:100AD0004FF0400118BF0125FFF798FC2046802108
:100AE000FFF794FC20464021FFF794FC204680212C
:100AF000FFF790FC284602B070BD000010B540F230
:100B00000044C4F2020420468021FFF783FC204603
:100B10004021FFF77FFC20464021BDE81040FFF751
:100B200075BC000070B540F200440025C4F2020418
:100B3000002600BF20464021FFF76CFC20468021A4
:100B4000FFF75EFC002818BF012040EA450520465B
:100B50004021FFF75BFC072E06F10106EAD3E8B25D
:100B600070BD000070B540F2004504460026C4F296
:100B7000020505E06400072E06F1010628BF70BDDE
:100B800060B2B0F1FF3F05DD28468021FFF73EFC53
:100B900004E000BF28468021FFF73CFC28464021A6
:100BA000FFF738FC28464021FFF730FC072EE1D143
:100BB00028468021FFF72EFCDCE7000010B540F24C
:100BC0000044C4F2020420468021FFF723FC2046A3
:100BD0004021FFF71FFC20468021FFF717FC20462D
:100BE0004021BDE81040FFF711BC000010B540F2F5
:100BF0000044C4F2020420468021FFF707FC20468F
:100C00004021FFF707FC20468021BDE81040FFF798
:100C100001BC0000B0B540F20044C4F2020420461A
:100C20008021FFF7F7FB20464021FFF7F3FB20462A
:100C30008021FFF7E5FB0546002820464FF04001E4
:100C400018BF0125FFF7E2FB2846B0BDFFF7E6FB22
:100C500041F61844C4F202044FF4806020604FF45F
:100C600000654FF0805025602060FFF729FB0BA046
:100C700000F090FA13A000F08DFAFFF7A5FD4FF0F9
:100C8000806101284FF4805004BF4FF000654FF49D
:100C90008061216025602060FEE700BF0D0A20BB57
:100CA000B6D3ADCAB9D3C3D2B0BBF0202053544D94
:100CB0003332204634323920BFAAB7A2B0E5A1A30F
:100CC0000D0000000D0A20D5E2CAC7D2BBB8F64914
:100CD0003243CDE2C9E8284154323443303229B698
:100CE000C1D0B4B2E2CAD4C0FDB3CC200D00000024
:100CF0000FB4054B10B503A9044A029800F018F888
:100D000010BC5DF814FB0000B509000800000020CD
:100D100002E008C8121F08C1002AFAD170477047C4
:100D2000002001E001C1121F002AFBD17047000022
:100D30002DE9FF4F8DB00F460546002606E0252819
:100D40000BD0DDE90F1290476D1C761C2878002827
:100D5000F5D111B03046BDE8F08F0024A246A1467F
:100D60000122EC4900E0044315F8013F203B02FA60
:100D700003F00842F7D128782A2810D06FF02F020C
:100D80002878A0F13001092914D80AEB8A0102EB76
:100D9000410144F0020400EB010A6D1CF0E701CFB1
:100DA0005FEA000A03D544F40054CAF1000A44F093
:100DB00002046D1C28782E2817D115F8010F44F075
:100DC00004042A280ED06FF02F022878A0F13001F9
:100DD00009290AD809EB890102EB410100EB01095D
:100DE0006D1CF2E757F8049B6D1C28786C280FD017
:100DF00006DC4C2817D068280DD06A2814D104E0EE
:100E0000742810D07A280FD10DE044F400140AE0C1
:100E100044F4801401E044F440146978814202D122
:100E200004F580146D1C6D1C2A786E2A1FD00CDC12
:100E3000632A31D004DC002A8BD0582A11D1A3E0D8
:100E4000642A68D0692A0CD165E0732A2ED004DCAC
:100E50006F2A73D0702A04D19BE0752A6FD0782A4C
:100E60006ED01046DDE90F129047761C50E1C4F3B6
:100E70000250022806D0032809D0042801CF09D047
:100E8000066045E101CFF117C0E9006140E101CF03
:100E900006803DE106703BE117F8040B8DF8000079
:100EA00000208DF80100EB46012003E057F804BB59
:100EB0004FF0FF3061074FF0000102D40DE008F160
:100EC0000101884649450FDA8045F8DB1BF8081018
:100ED0000029F4D108E008F1010188468142FADBDB
:100EE0001BF808100029F6D1DDE90F23AAEB080052
:100EF0008146214600F036F9304400EB080604E054
:100F0000DDE90F121BF8010B9047B8F10108F7D289
:100F100021464846F7E00A21C4F302534FF0000B84
:100F20000891022B04D001CFC117032B09D00AE08E
:100F3000FF1D27F00707F7E8020108E032E01FE095
:100F400020E000B2C117042B01D140B2C117031E2B
:100F500071F1000307DA4FF0000CD0EB0C006CEBE2
:100F600001012D2302E0230504D52B238DF8243025
:100F7000012303E0E30701D02023F7E7984658E078
:100F80000A2110E010210EE010204FF0000B089015
:100F90000CE010214FF0000B44F004044FF008095E
:100FA000089103E008214FF0000B0891C4F30253AD
:100FB000022B04D001CF0021032B06D006E0FF1D39
:100FC00027F00707F7E8020103E080B2042B00D105
:100FD000C0B24FF0000823072BD5702A07D0DDF8E8
:100FE00020C08CF0100C5CEA0B0C05D00EE0402306
:100FF0008DF82430012308E050EA010306D03023A5
:101000008DF824308DF8252002239846DDF820C085
:101010008CF0080C5CEA0B0C0BD150EA010301D1F7
:10102000630706D530238DF824304FF00108A9F16D
:101030000109582A04D038A20B9208AA0A920BE0A0
:101040003AA2F9E75B46089AFFF7CCF80B9B9B5C4A
:101050000A9A521E0A92137050EA0102F2D10A98BB
:10106000ADEB000000F1200B600702D524F48034C2
:1010700001E04FF00109D94502DDA9EB0B0000E0CA
:10108000002000EB0B0141440890AAEB010AE003A9
:1010900006D4DDE90F232146504600F063F80644EC
:1010A0004FF0000908E009A911F80900DDE90F1265
:1010B000904709F10109761CC145F4DBE0030CD52A
:1010C000DDE90F232146504600F04CF8064404E0C9
:1010D000DDE90F1230209047761C0899481E0890D1
:1010E0000029F5DC08E00A980A990078491C0A9161
:1010F000DDE90F129047761CBBF10001ABF1010B4B
:10110000F1DC21465046DDE90F2300F019F80644D2
:101110006D1C1BE609280100303132333435363777
:101120003839616263646566000000003031323333
:1011300034353637383941424344454600000000D3
:101140002DE9F041044600251E461746880404D4C4
:1011500005E039462020B0476D1C641EF9D52846AD
:10116000BDE8F0812DE9F041044600251E46904679
:10117000C80301D5302700E02027880404D505E006
:1011800041463846B0476D1C641EF9D52846BDE877
:10119000F081000010B5044601E0FFF70BFC14F8E5
:1011A000010B04490028F8D1BDE810400A20FFF7E0
:1011B00001BC000000000020000000000102030448
:1011C0000102030406070809D0B4656570726F6DEB
:1011D000B3F6B4EDA3A10D00F81100080000002043
:1011E00008000000100D0008001200080800002090
:1011F00000040000200D00080000000000000000B6
:04000005080001AD41
:00000001FF
