:020000040800F2
:1000000008040020C10100086D030008E90200088F
:100010006903000851020008C9060008000000003A
:100020000000000000000000000000001D040008A7
:100030005502000800000000E90300082104000840
:10004000DB010008DB010008DB010008DB01000820
:10005000DB010008DB010008DB010008DB01000810
:10006000DB010008DB010008DB010008DB01000800
:10007000DB010008DB010008DB010008DB010008F0
:10008000DB010008DB010008DB010008DB010008E0
:10009000DB010008DB010008DB010008DB010008D0
:1000A000DB010008DB010008DB010008DB010008C0
:1000B000DB010008DB010008DB010008DB010008B0
:1000C000DB010008DB010008DB010008DB010008A0
:1000D000DB010008DB010008DB010008DB01000890
:1000E000DB010008DB010008DB010008DB01000880
:1000F000DB010008DB010008DB010008DB01000870
:10010000DB010008DB010008DB010008DB0100085F
:10011000DB010008DB01000831050008DB010008F5
:10012000DB010008DB010008DB010008DB0100083F
:10013000DB010008DB010008DB010008DB0100082F
:10014000DB010008DB010008DB010008DB0100081F
:10015000DB010008DB010008DB010008DB0100080F
:10016000DB010008DB010008DB010008DB010008FF
:10017000DB010008DB010008DB010008DB010008EF
:10018000DB010008DB010008DB010008DB010008DF
:10019000DB010008DB010008DB010008DB010008CF
:1001A000DB010008DB010008DB010008DFF80CD0F0
:1001B00000F018F800480047CD06000808040020A9
:1001C0000648804706480047FEE7FEE7FEE7FEE7F1
:1001D000FEE7FEE7FEE7FEE7FEE7FEE72504000890
:1001E000AD0100081CB5094800900948019005467A
:1001F000009C06E0E06840F0010394E8070098479F
:100200001034AC42F6D3FFF7D5FF0000F806000823
:100210000807000810B582B04FF48070012100F08B
:10022000E5F84FF40060009040F2012042F2000433
:10023000C0F20020C4F2020401906946204600F09A
:100240000BF820464FF4006100F04CF802B010BDEE
:10025000FEE70000704700002DE9F043D1F8008070
:1002600000234FF0010C4FF0030E002410E000BFFC
:10027000C26802EA0902C260CA79C5689A402A4384
:10028000C2600134102C03F1020308BFBDE8F08303
:100290000CFA04F618EA060FF3D002680EFA03F718
:1002A000BA4302600A796FEA0709076802FA03F5A0
:1002B000013A3D43012A0560DAD8826802EA090260
:1002C00082604A798D7987689A403A4382604268B1
:1002D000B243426005FA04F2456892B22A43426092
:1002E000C6E7000041837047FEE700002DE9F041BA
:1002F00082B08820012100F079F8012041F6004405
:10030000C0F20010C4F202046D464FF48068019000
:1003100020462946CDF80080FFF79EFF4FF4006786
:10032000204629460097FFF797FF4FF48056204656
:1003300029460096FFF790FFA4F5805420462946F1
:100340000097FFF789FF41F61840C4F20200A0F8B9
:1003500000800780068020464FF40061FFF7C2FF4F
:1003600002B0BDE8F0810000FEE700007047000029
:1003700010B5C17800294EF20011CEF200011CD058
:100380004EF60C52CEF200021268072323EA122224
:100390000F23C2F1040C23FA02FE427884785FFA3C
:1003A0008CF390F800C09A4004EA0E031A4312013D
:1003B00001EB0C0383F8002300E080310078012377
:1003C00000F01F0203FA02F2C0F3421041F82020AD
:1003D00010BD000040F080604EF60C5140F0FD7002
:1003E000CEF200010860704770470000002943F614
:1003F0003001C4F202010A680CBF22EA0000104377
:1004000008607047002943F64001C4F202010A68FF
:100410000CBF22EA000010430860704770470000DC
:100420007047000082B043F60000C4F20200016889
:100430004FF6FF7341F00101016000218160026805
:10044000CFF6F6631A40026043F21002C2F2004295
:100450004260026822F480220260C1600191009132
:10046000016841F480310160016801F400310091BC
:10047000019901310191009919B90199B1F5A04F84
:10048000F2D10168890354BF002101210091009934
:10049000012944D1026C47F2000142F08052C4F2BB
:1004A000000102640A6842F440420A608268826085
:1004B000826842F400428260826842F4A052826004
:1004C00045F61922C0F240724260026842F0807222
:1004D000026000BF02689201FCD50A6842F48032D3
:1004E0000A6000BF4A68D203FCD50A6842F40032B1
:1004F0000A6000BF4A689203FCD540F20571C0F85B
:100500000014816821F003018160816841F00201DB
:10051000816000BF816801F00C010829FAD14EF614
:100520000850CEF200004FF00061016002B0704749
:1005300010B541F20004C4F200042046012100F08D
:1005400035F8002808BF10BD40F20000C2F20000DC
:1005500001680131016041F61441C4F202010A68E8
:1005600082F480620A6000784FF40061800742F2F2
:100570001800C4F2020014BF41800180204601210E
:10058000BDE8104000F004B8C94301827047000084
:10059000C9430182704700000288002918BF012169
:1005A00022F001021144018070470000028A808914
:1005B0000A4000EA010018BF0122002818BF0120EC
:1005C00010407047002A82890CBF22EA01011143C2
:1005D0008181704710B540F6FF32B0F800E0C4F2F8
:1005E000000240F2004C9042C4F2010C0FDCB0F16A
:1005F000804F19D040F20042C4F20002904213D062
:1006000040F60002C4F2000290420DD011E040F624
:100610000042C4F20002904206D0604504D000229D
:10062000C4F20102904204D14A882EF0700342EADB
:10063000030E41F2004340F48062C4F200039A4288
:1006400004D00C892EF4407344EA030EA0F800E0B5
:100650004B686245C3620B88038504BF897A0186B3
:100660000121818210BD000010B584B04FF4E0601C
:10067000FFF7B0FE3620C0F20310019001A8FFF78B
:1006800077FE10200121FFF7BDFE42F2273041F234
:100690000004ADF8040041F28730C4F20004029077
:1006A00001A92046FFF796FF20460121FFF76CFFC6
:1006B000204601210122FFF785FF20460121FFF797
:1006C0006BFF04B010BD0000FEE70000FFF70EFE58
:1006D000FFF7A0FDFFF7C8FFFEE702E008C8121F02
:1006E00008C1002AFAD170477047002001E001C11B
:1006F000121F002AFBD170470807000800000020E5
:0807000008040000EA060008ED
:04000005080001AD41
:00000001FF
