:020000040800F2
:1000000038060020C5010008751F0008771F00088A
:100010007B1F00087F1F0008831F000800000000EE
:10002000000000000000000000000000891F000820
:10003000871F0008000000008B1F00088D1F0008AC
:10004000DF010008DF010008DF010008DF01000810
:10005000DF010008DF010008DF010008DF01000800
:10006000DF010008DF010008DF010008DF010008F0
:10007000DF010008DF010008DF010008DF010008E0
:10008000DF010008DF010008DF010008DF010008D0
:10009000DF010008DF010008DF010008DF010008C0
:1000A000DF010008DF010008DF010008DF010008B0
:1000B000DF010008DF010008DF010008DF010008A0
:1000C000DF010008DF010008DF010008DF01000890
:1000D000DF010008DF010008DF010008DF01000880
:1000E000DF010008DF010008DF010008DF01000870
:1000F000DF010008DF010008DF010008DF01000860
:10010000DF010008DF0100088F1F0008DF01000881
:10011000DF010008DF010008DF010008DF0100083F
:10012000DF010008DF010008DF010008DF0100082F
:10013000DF010008DF010008DF010008DF0100081F
:10014000DF010008DF010008DF010008DF0100080F
:10015000DF010008DF010008DF010008DF010008FF
:10016000DF010008DF010008DF010008DF010008EF
:10017000DF010008DF010008DF010008DF010008DF
:10018000DF010008DF010008DF010008DF010008CF
:10019000DF010008DF010008DF010008DF010008BF
:1001A000DF010008DF010008DF010008DFF810D0E0
:1001B00002F0EEF800480047F91E0008AFF3008097
:1001C000380600200648804706480047FEE7FEE75D
:1001D000FEE7FEE7FEE7FEE7FEE7FEE7FEE7FEE7F7
:1001E000F9020008AD0100080CB500200190009054
:1001F0008348006840F480308149086000BF80482F
:10020000006800F4003000900198401C01900098B4
:1002100018B90198B0F5A04FF1D17948006800F401
:10022000003010B10120009001E000200090009803
:10023000012860D172484030006840F08050704919
:10024000403108606F48006840F440406D490860E4
:100250006B48083000686A49083108600846006841
:1002600040F4004008600846006840F4A050086070
:100270006548091F0860081F006840F08070091F6A
:10028000086000BF5E48006800F000700028F9D0E8
:100290005C48006840F480305A49086000BF594803
:1002A000406800F480300028F9D05648006840F4D7
:1002B00000305449086000BF5248406800F40030E4
:1002C0000028F9D040F20570504908604C480830C9
:1002D000006820F003004A490831086008460068B9
:1002E00040F00200086000BF45480830006800F098
:1002F0000C000828F8D10CBD10B54548006840F442
:100300007000434908603E48006840F001003C49E5
:10031000086000203A4908310860394800683D49C2
:100320000840374908603C48091D0860081F0068FC
:1003300020F48020091F0860002031490C3108603A
:10034000FFF752FF4FF0006031498039086010BD5F
:1003500070B500200022022300240221284D083518
:100360002D6805F00C0020B1042806D0082834D1EF
:1003700007E02A4D2A4E356033E02A4D284E35607D
:100380002FE01F4D2D1D2D68C5F380541C4D2D1DD4
:100390002D6805F03F0154B1224DB5FBF1F5184E23
:1003A000361D3668C6F3881605FB06F209E01B4DBC
:1003B000B5FBF1F5124E361D3668C6F3881605FBFF
:1003C00006F20F4D2D1D2D68C5F301456D1C6B0008
:1003D000B2FBF3F5124E356003E0104D104E356060
:1003E00000BF00BF064D08352D68C5F303150E4E3E
:1003F000705D0B4D2D68C540094E356070BD000025
:100400000038024000700040195A4007003C02408A
:1004100088ED00E0FFFFF6FE103000240024F40019
:100420000000002040787D01040000203249014393
:10043000324A1160704770B5002100230F22C47842
:100440001CB32E4C246804F4E064C4F5E064C4F3E7
:100450000721C1F10404E3B20A4144789C40E1B2AF
:100460008478144021430C07210E254C05786155F2
:10047000047804F01F050124AC4005786D11AD002F
:1004800005F1E025C5F8004109E0047804F01F05F6
:100490000124AC401B4D0678761145F8264070BD0E
:1004A000194A0A400243154B1B1F1A60704739B1A5
:1004B000124A121D12680243104B1B1D1A6006E0FF
:1004C0000E4A121D126882430C4B1B1D1A607047A6
:1004D000042808D14FF0E021096941F004014FF0F0
:1004E000E022116107E04FF0E021096921F00401E9
:1004F0004FF0E022116170470000FA050CED00E0BA
:1005000000E400E080E100E080FFFF1F10B504463A
:100510009848844208D10121084600F087FB002159
:10052000012000F083FB76E09348844208D101214A
:10053000022000F07BFB0021022000F077FB6AE044
:100540008E48844208D10121042000F06FFB002175
:10055000042000F06BFB5EE08948844208D1012151
:10056000082000F063FB0021082000F05FFB52E050
:100570008448844208D10121102000F057FB00215B
:10058000102000F053FB46E07F48844208D101214F
:10059000202000F04BFB0021202000F047FB3AE038
:1005A0007A48844208D10121402000F03FFB00211D
:1005B000402000F03BFB2EE07548844208D1012129
:1005C000802000F033FB0021802000F02FFB22E090
:1005D0007048844208D10121801500F027FB0021DA
:1005E000A01500F023FB16E06B48844208D10121DE
:1005F000401500F01BFB0021601500F017FB0AE01E
:100600006648844207D10121001500F00FFB00214C
:10061000201500F00BFB10BDF0B50A4600210023A9
:10062000002400BF3DE0012505FA01F3156805EA45
:1006300003049C4234D105684F000326BE40B543F5
:10064000056015794E00B54006683543056015799B
:10065000012D02D01579022D16D185684F00032691
:10066000BE40B543856055794E00B5408668354338
:100670008560456801268E40B5434560456896799A
:100680008E40B6B235434560C5684F000326BE4074
:10069000B543C560D5794E00B540C6683543C560E1
:1006A000491C1029BFD3F0BD4FF6FF710160002136
:1006B000017141718171C171704708B54FF4803289
:1006C0000092009A0A430092009AC261C161009AA6
:1006D000C261C2690092C269009208BD0246002050
:1006E00013690B400BB1012000E000207047014668
:1006F000086980B270470246002053690B400BB175
:10070000012000E0002070470146486980B2704730
:1007100001837047418370470AB1018300E0418340
:1007200070474161704742694A4042617047F0B585
:10073000002300244D07ED0E02FA05F3CE1000F160
:10074000200555F826504E07F70E0F26BE40B5433C
:10075000CF1000F1200646F82750CE1000F12005FA
:1007600055F8265045EA0304CE1000F1200545F85F
:100770002640F0BD00000240000402400008024094
:10078000000C024000100240001402400018024019
:10079000001C0240002002400024024000280240C9
:1007A000F648006840F00100F44908600020F34971
:1007B00008310860F1480068F1490840EF490860D5
:1007C000F048091D0860F048EC4984310860ED48A4
:1007D0001038091D0860E948006820F48020E749C6
:1007E00008600020E5490C310860E4498C3108605C
:1007F00070470021E14A921C117011460870704741
:1008000010B501460022002300204A11012A02D11E
:10081000DA4C236808E0022A03D1D84C70342368EC
:1008200002E0D64C7434236801F01F020124944086
:100830001C400CB1012000E0002010BD38B50020A4
:1008400000900024002500BF3120FFF7D9FF0546A6
:100850000098401C00900098B0F5A04F01D0002DEA
:10086000F2D03120FFF7CCFF08B1012400E00024D2
:10087000204638BD01460020C04A106820F0F8002C
:1008800040EAC10010607047C0490860704700210D
:10089000BA4A703211701170012802D004280AD1AE
:1008A00004E00121B54A7032117005E00521B34A18
:1008B0007032117000E000BF00BF7047B44908609B
:1008C000704770B5049C41EA82150126C6EB5306B9
:1008D00045EA0645054345EA0465A84E361D3560E0
:1008E00070BDAA490866704710B5830143EA0163E9
:1008F00043EA0273A14C8434236010BDA349886687
:10090000704710B5830143EA016343EA02739B4CCD
:100910008834236010BD9D49086770479B49C864AF
:10092000704702460020954B0833186820F0EC60B1
:1009300042EA01031843914B08331860704702469E
:1009400000208E4B0833186820F0784042EA0103FB
:1009500018438A4B08331860704701460020874AC5
:100960000832106820F00300084310607047834885
:100970000830006800F00C007047014600207F4AF4
:100980000832106820F0F0000843106070470146FC
:1009900000207A4A0832106820F4E05008431060C2
:1009A000704701460020754A0832106820F4604004
:1009B00040EAC10010607047F0B500210022002419
:1009C0000225002602236D4F08373F6807F00C010F
:1009D00021B1042905D0082937D105E06D4F076002
:1009E00036E06D4F076033E0644F3F1D3F68C7F34B
:1009F0008056624F3F1D3F6807F03F036EB1664F60
:100A0000B7FBF3F7DFF874C10CF1040CDCF800C09D
:100A1000CCF3881C07FB0CF40CE05E4FB7FBF3F73C
:100A2000DFF858C10CF1040CDCF800C0CCF3881CD2
:100A300007FB0CF4514F3F1D3F68C7F301477F1C74
:100A40007D00B4FBF5F7076002E0524F076000BF7E
:100A500000BF4A4F08373F6807F0F00109094F4FC0
:100A60007A5C0768D7404760444F08373F6807F40F
:100A7000E051890A494F7A5C4768D74087603F4F09
:100A800008373F6807F46041490B444F7A5C476878
:100A9000D740C760F0BD002100F44072B2F5407F3E
:100AA0000AD1364A0832116821F4F8113C4A024052
:100AB0001143324A08321160304A70321268C0F372
:100AC0000B031A432D4B70331A6070473049443979
:100AD000086070472E494039086070473149086006
:100AE000704701460020254A8C32106820F44010DF
:100AF00008431060704701460020204A8C3210687D
:100B000020F44000084310607047014600201B4A53
:100B10008C32106820F01F004A1E1043174A8C3296
:100B20001060704701460020144A8C32106820F48F
:100B3000F8504A1E40EA0220104A8C32106070477A
:100B4000014600200D4A8C32106820F440300843E2
:100B50001060704714490860704739B1074A303255
:100B600012680243054B30331A6006E0034A303204
:100B700012688243014B30331A60704700380240DC
:100B8000FFFFF6EA1030002400300020000047424A
:100B9000800E47420024F40040787D0114000020BC
:100BA000FFFCFF0F5C014742E011474229B1934A25
:100BB00012680243914B1A6004E0904A1268824323
:100BC0008E4B1A60704739B18C4A121D126802436D
:100BD0008A4B1B1D1A6006E0884A121D1268824368
:100BE000864B1B1D1A60704739B1844A0C3212685B
:100BF0000243824B0C331A6006E0804A0C321268C2
:100C000082437E4B0C331A60704739B17B4A1032F5
:100C100012680243794B10331A6006E0774A1032AB
:100C200012688243754B10331A60704739B1734AAA
:100C3000243A12680243714B243B1A6006E06F4A63
:100C4000243A126882436D4B243B1A60704739B1D5
:100C50006A4A203A12680243684B203B1A6006E059
:100C6000664A203A12688243644B203B1A60704700
:100C700039B1624A1C3A12680243604B1C3B1A604D
:100C800006E05E4A1C3A126882435C4B1C3B1A60C9
:100C9000704739B1594A143A12680243574B143B12
:100CA0001A6006E0554A143A12688243534B143BCB
:100CB0001A60704739B1514A103A126802434F4BDB
:100CC000103B1A6006E04D4A103A126882434B4BC3
:100CD000103B1A60704739B1484A1C32126802430F
:100CE000464B1C331A6006E0444A1C3212688243A9
:100CF000424B1C331A60704739B1404A20321268A7
:100D000002433E4B20331A6006E03C4A2032126810
:100D100082433A4B20331A60704739B1374A243244
:100D200012680243354B24331A6006E0334A2432FA
:100D300012688243314B24331A60704739B12F4A0D
:100D40002C32126802432D4B2C331A6006E02B4ADA
:100D50002C3212688243294B2C331A60704739B108
:100D6000264A303212680243244B30331A6006E0C0
:100D7000224A303212688243204B30331A60704767
:100D8000012808D11D493C31096841F008011B4A7E
:100D90003C32116007E019493C31096821F0080133
:100DA000164A3C321160704739B1144A273A12781A
:100DB0000243124B273B1A7006E0104A273A12787A
:100DC00082430E4B273B1A7070470C484030006836
:100DD00040F08070094940310860704701460020AA
:100DE000064A283A12680A400AB1012000E00020B1
:100DF00070470249263908707047000034380240B5
:100E000010B50446FE48844208D101210846FFF788
:100E100051FF00210120FFF74DFF9DE0B4F1804F0D
:100E200008D101210846FFF734FF00210120FFF718
:100E300030FF91E0F348844208D101210220FFF7FE
:100E400028FF00210220FFF724FF85E0EE488442BE
:100E500008D101210420FFF71CFF00210420FFF727
:100E600018FF79E0E948844208D101210820FFF702
:100E700010FF00210820FFF70CFF6DE0E4488442DA
:100E800008D101211020FFF704FF00211020FFF7F7
:100E900000FF61E0DF48844208D101212020FFF7F4
:100EA000F8FE00212020FFF7F4FE55E0DA488442E6
:100EB00008D101210220FFF7FDFE00210220FFF7EB
:100EC000F9FE49E0D548844209D101210804FFF721
:100ED000F1FE00214FF48030FFF7ECFE3CE0D048FB
:100EE000844209D101214804FFF7E4FE00214FF4B8
:100EF0000030FFF7DFFE2FE0CA48844209D101210C
:100F00008804FFF7D7FE00214FF48020FFF7D2FEC0
:100F100022E0C548844208D101214020FFF7B9FEF4
:100F200000214020FFF7B5FE16E0C048844208D1FA
:100F300001218020FFF7ADFE00218020FFF7A9FEF0
:100F40000AE0BB48844207D101218015FFF7A1FECA
:100F50000021A015FFF79DFE10BD00220288A84BBE
:100F600098420ED0AC4B98420BD0B0F1804F08D0D5
:100F7000A44B984205D0A44B984202D0A34B984270
:100F800004D14FF68F731A404B881A43A04B9842F6
:100F900007D0A04B984204D04FF6FF431A400B896C
:100FA0001A4302804B68C3620B880385944B9842B6
:100FB00002D0994B984201D18B7A03860123838218
:100FC00070474FF0FF314160002101800181418075
:100FD000817270470185828270470A46002101882C
:100FE0004FF68F731940114301807047416270477B
:100FF000C16270470146486A70470146088D7047D4
:1010000021B1028842F00202028004E002884FF619
:10101000FD731A400280704721B1028842F0040239
:10102000028004E002884FF6FB731A40028070478A
:1010300021B1028842F08002028004E002884FF66B
:101040007F731A400280704702884FF6F7731A4088
:10105000028002880A430280704702884FF6FF43ED
:101060001A40028002880A430280704721B1028838
:1010700042F00102028004E002884FF6FE731A403B
:101080000280704770B5002400220023058C4FF6C3
:10109000FE7635400584028C8388048B4FF68F756D
:1010A0002C40B51E2C400D882C43751E2A408D897E
:1010B0002A434D882A43524DA84202D0564DA84299
:1010C00013D14FF6F7752A40CD892A434FF6FB75A9
:1010D0002A408D882A434FF6FF652B404FF6FF5577
:1010E0002B400D8A2B434D8A2B43838004838D68CC
:1010F0004563028470BD70B5002400220023058C76
:101100004FF6EF7635400584028C8388048B48F6D1
:10111000FF752C404FF6FF452C400D884FF6FF76AB
:1011200006EA05252C434FF6DF752A408D8906EA2D
:1011300005152A434D8806EA05152A43304DA84275
:1011400002D0354DA8421DD14FF67F752A40CD897A
:101150004FF6FF7606EA05152A434FF6BF752A407B
:101160008D8806EA05152A434FF6FF352B404FF2CE
:10117000FF752B400D8A06EA85052B434D8A06EA4A
:1011800085052B43838004838D688563028470BD4D
:1011900070B5002400220023058C4FF6FF66354011
:1011A0000584028C8388848B4FF68F752C404FF614
:1011B000FC752C400D882C434FF6FF552A408D8935
:1011C0004FF6FF7606EA05252A434D8806EA0525EF
:1011D0002A430B4DA84202D00F4DA84238D14FF2FE
:1011E000FF752A40CD894FF6FF7606EA05252A438A
:1011F0004FF6FF352A408D8806EA05252A4319E077
:10120000000001400004004000080040000C0040C5
:101210000010004000140040000401400040014064
:10122000004401400048014000180040001C0040FC
:10123000002000404EF6FF752B404DF6FF752B4009
:101240000D8A06EA05152B434D8A06EA05152B4340
:10125000838084838D68C563028470BD70B500226D
:1012600000230024058C4EF6FF7635400584038C60
:101270008488828B48F6FF752A404FF6FF452A4046
:101280000D884FF6FF7606EA05252A434DF6FF75D1
:101290002B408D8906EA05352B434D8806EA053536
:1012A0002B43FE4DA84202D0FD4DA84208D14BF67B
:1012B000FF752C400D8A4FF6FF7606EA85152C4304
:1012C000848082838D680564038470BD0021018061
:1012D0004180818081608181C1810182418270472A
:1012E00070B50346002000241846183001258D40B3
:1012F000ACB21D8CA5431D8409B108290AD100EBAD
:10130000610005684FF68F76354005600568154326
:1013100005600FE00D1FC5F34E052844056848F62B
:10132000FF763540056005684FF6FF7606EA02262F
:101330003543056070BD4163704781637047C16389
:101340007047016470470A460021018B4FF68F7386
:1013500019401143018370470A460021018B48F66A
:10136000FF7319404FF6FF7303EA02231943018309
:1013700070470A460021818B4FF68F731940114345
:10138000818370470A460021818B48F6FF7319401C
:101390004FF6FF7303EA02231943818370470A461D
:1013A0000021018B4FF6F7731940114301837047F9
:1013B0000A460021018B4FF2FF7319404FF6FF736D
:1013C00003EA02231943018370470A460021818BF7
:1013D0004FF6F77319401143818370470A46002185
:1013E000818B4FF2FF7319404FF6FF7303EA02231C
:1013F0001943818370470A460021018B4FF6FB7326
:1014000019401143018370470A460021018B4FF6B2
:10141000FF3319404FF6FF7303EA02231943018398
:1014200070470A460021818B4FF6FB731940114328
:10143000818370470A460021818B4FF6FF331940A4
:101440004FF6FF7303EA02231943818370470A466C
:101450000021018B4FF67F731940114301837047C0
:101460000A460021018BC1F30E014FF6FF7303EA18
:1014700002231943018370470A460021818B4FF6EE
:101480007F7319401143818370470A460021818B85
:10149000C1F30E014FF6FF7303EA02231943818360
:1014A00070470A460021018C4FF6FD731940114325
:1014B000018470470A460021018C4FF6F7731940EA
:1014C0001143018470470A460021018C4FF6DF73F7
:1014D00019404FF6FF7303EA021319430184704762
:1014E0000A460021018C4FF67F7319404FF6FF73B7
:1014F00003EA02131943018470470A460021018C54
:101500004FF6FF5319404FF6FF7303EA02231943C6
:10151000018470470A460021018C4FF2FF73194085
:101520004FF6FF7303EA02231943018470470A460A
:101530000021018C4DF6FF7319404FF6FF7303EA4B
:10154000023319430184704730B5002301248C40D5
:10155000A3B2048C9C430484048C02FA01F5ADB25E
:101560002C43048430BD30B5002304248C40A3B246
:10157000048C9C430484048C02FA01F5ADB22C4324
:10158000048430BD828B4FF2FF331A408283828BFA
:101590004FF6FF7303EA01231A4382837047F0B5C5
:1015A0000C461546002100220026078C4EF6FF7CD3
:1015B00007EA0C070784818B028C4FF6FF7707EA56
:1015C000043640F6FF4739404FF6FF7707EA052714
:1015D00039434FF6FF7707EA0337394345F6FF777C
:1015E0003A4046F480573A4381830284F0BD828BAF
:1015F0004FF6F3731A408283828B0A4382837047CB
:10160000F0B50C461546002100220026078C4FF647
:10161000FF6C07EA0C070784818B028C4FF6FF777B
:1016200007EA04264FF60C7739404FF6FF7707EAB2
:1016300003172F4339434FF2FF573A4046F4807760
:101640003A4381830284F0BD028B4FF2FF331A408C
:101650000283028B4FF6FF7303EA01231A430283CE
:101660007047F0B50C461546002100220026078C75
:101670004FF6EF7C07EA0C070784018B028C4FF6CC
:10168000FF7707EA041640F6FF4739404FF6FF7729
:1016900007EA033739434FF6FF7703E000000140C4
:1016A0000004014007EA052739434FF65F773A40C7
:1016B00046F010073A4301830284F0BD028B4FF6D7
:1016C000F3731A400283028B0A4302837047F0B51A
:1016D0000C46154600210022068C4FF6FE773E4050
:1016E0000684018B028C4FF60C7631407E1C06EA94
:1016F00003162E4331434FF6F576324044F001068F
:10170000324301830284F0BD70B505460C46208843
:1017100050B92389A28861882846FFF7D8FFE1885D
:101720002846FFF7CBFF25E0208804280AD123892B
:10173000A28861882846FFF794FFE1882846FFF7D2
:1017400083FF17E0208808280AD12389A2886188AE
:101750002846FFF755FFE1882846FFF748FF09E0D4
:101760002389A28861882846FFF719FFE188284667
:10177000FFF708FF70BD00210180418001218180B9
:101780000021C180018170472DE9F04105460C46DA
:1017900000260127608808B9022600E00026A088FC
:1017A000012801D1022700E001272088A0B9238960
:1017B000A28861882846FFF78AFFE1882846FFF75C
:1017C0007DFF23893A4631462846FFF74AFFE188E4
:1017D0002846FFF739FF13E02389A288618828464D
:1017E000FFF73FFFE1882846FFF72EFF23893A469F
:1017F00031462846FFF76BFFE1882846FFF75EFF7A
:10180000BDE8F0810146486B70470146886B704720
:101810000146C86B70470146086C70470A884B88C0
:101820001A438B881A43CB881A430B891A434B8976
:101830001A438B891A43A0F8442070470021018085
:1018400041808180C180018141818181704731B1B6
:10185000B0F8442042F40042A0F8442005E0B0F87B
:101860004420C2F30E02A0F84420704721B18288C0
:1018700042F00402828004E082884FF6FB731A4033
:101880008280704721B1828842F00102828004E0A8
:1018900082884FF6FE731A40828070471AB183899E
:1018A0000B43838102E083898B438381704781826C
:1018B000704702460020138A0B400BB1012000E064
:1018C00000207047CA430282704730B502460020AC
:1018D00000230024158A05EA0103958905EA01041D
:1018E00013B10CB1012000E0002030BDCA430282D8
:1018F000704741EA0203A0F8483070471AB1838963
:101900000B43838102E083898B438381704721B13C
:10191000828842F00802828004E082884FF6F773E2
:101920001A408280704701894FF6F8721140018198
:1019300070470A46002101894FF68F731940114301
:101940000181704730B504460D4629462046FFF711
:10195000F0FF208940F00700208130BD2DE9F041E3
:1019600004460D4616461F46602D06D13B46012211
:1019700031462046FFF775FE05E03B460122314621
:101980002046FFF7A4FE29462046FFF7D2FF208914
:1019900040F007002081BDE8F08130B50C46002101
:1019A0000189C9B24FF6FF7505EA032515432543A2
:1019B0002943018130BD2DE9F04105460E46174609
:1019C0009846002443463A4631462846FFF7E5FF4D
:1019D0002C894FF6F870044044F007044FF68F70DE
:1019E000044044F070042C81BDE8F081F0B5044659
:1019F0000D4616461F463B46324629462046FFF70F
:101A0000CCFF208940F480402081F0BD82884FF6D1
:101A10008F731A40828082880A43828070470289CD
:101A20004FF6F8731A40028102890A430281704717
:101A300002894FF67F731A40028102890A430281AC
:101A40007047F0B50C4615461E46002100220023C3
:101A50000189028B038C4FF6F877394021434FF60A
:101A6000FC473A4040F201173A434FF6DD773B40DE
:101A70004FF6FF7707EA06172F433B4301810283A6
:101A80000384F0BD21B1828842F08002828004E0AC
:101A900082884FF67F731A4082807047A0F85010FA
:101AA0007047000010B50446FA48844208D101216D
:101AB0001020FFF7FFF800211020FFF7FBF857E098
:101AC000F548844209D101214804FFF7E2F80021DA
:101AD0004FF40030FFF7DDF84AE0F048844209D1C6
:101AE00001218804FFF7D5F800214FF48020FFF78B
:101AF000D0F83DE0EA48844209D10121C804FFF74B
:101B0000C8F800214FF40020FFF7C3F830E0E548A3
:101B1000844209D101210805FFF7BBF800214FF4E9
:101B20008010FFF7B6F823E0DF48844208D1012196
:101B30002020FFF7BFF800212020FFF7BBF817E0B7
:101B4000DA48844209D101218807FFF7A2F8002171
:101B50004FF08040FFF79DF80AE0D548844207D156
:101B600001214005FFF795F800216005FFF791F886
:101B700010BD2DE9FF4705460E460024A14600BFD3
:101B8000A046B08900B100BF2C8A24F44054F088EC
:101B900004432C82AC8941F20C608443B0883189C3
:101BA0000843718908430443AC81AC8A24F440742F
:101BB000B0890443AC826846FEF7FEFEB548854214
:101BC00002D0B948854202D1DDF80C9001E0DDF881
:101BD0000890A88900F4004040B109EBC90000EB6F
:101BE000091031684900B0FBF1F707E009EBC900C3
:101BF00000EB091031688900B0FBF1F76420B7FBF6
:101C0000F0F004012009642101FB1078A88900F498
:101C1000004040B1322000EBC800B0FBF1F000F012
:101C20000700044308E0322000EB08106421B0FBF9
:101C3000F1F000F00F0004432C81BDE8FF874FF462
:101C40001651016000218180C18001810C214181F8
:101C500000218181704710B502460020108A20F4CF
:101C600070600B884C8823438C882343CC882343A3
:101C70001843108210BD0021018041808180C18005
:101C8000704721B1828942F40052828104E0828946
:101C90004DF6FF731A4082817047028B02F47F4237
:101CA0000283028B0A430283704721B1828942F486
:101CB0000042828103E08289C2F30E028281704772
:101CC00021B1828A42F40062828204E0828A4FF269
:101CD000FF731A4082827047C1F308028280704706
:101CE00001468888C0F308007047028A4FF6F073F7
:101CF0001A400282028A0A430282704721B1828915
:101D000042F00202828104E082894FF6FD731A409C
:101D10008281704782894FF2FF731A4082818289E3
:101D20000A4382817047028A4FF6DF731A400282AB
:101D3000028A0A430282704721B1028A42F4804239
:101D4000028204E0028A4BF6FF731A400282704757
:101D5000818941F001018181704721B1828A42F07D
:101D60000802828204E0828A4FF6F7731A40828268
:101D70007047028BD2B20283028B42EA01220283B5
:101D8000704721B1828A42F02002828204E0828A76
:101D90004FF6DF731A408282704721B1828A42F087
:101DA0001002828204E0828A4FF6EF731A40828228
:101DB0007047828A4FF6FB731A408282828A0A43F6
:101DC0008282704721B1828A42F00202828204E05C
:101DD000828A4FF6FD731A40828270471AB1838A55
:101DE0000B43838202E0838A8B4383827047F0B582
:101DF0000346002400260025002040F66A17B94259
:101E000000D100BF1846C1F3421401F01F0601279C
:101E100007FA06F5012C01D10C3004E0022C01D1A7
:101E2000103000E014301AB107682F43076002E059
:101E30000768AF430760F0BD02460020B1F5007FA0
:101E400000D100BF13880B400BB1012000E000203F
:101E5000704701F40072B2F5007F00D100BFCA43A1
:101E60000280704770B50246002400230025002040
:101E700040F66A16B14200D100BFC1F3421501F02D
:101E80001F03012606FA03F3012D13D1968933406F
:101E900017E00000001001400044004000480040EE
:101EA000004C004000500040001401400078004009
:101EB000007C0040022D02D1168A334001E0968A50
:101EC00033400C12012606FA04F41688344013B18C
:101ED0000CB1012000E0002070BD10B500220023ED
:101EE00040F66A14A14200D100BF0A1201249440B6
:101EF000A3B2DC43048010BD00F084F806A000F01B
:101F000091FA0FA000F08EFA11A000F08BFA00F009
:101F10004CF900BFFEE700000D0A20BBB6D3ADCAE6
:101F2000B9D3C3D2B0BBF0202053544D3332204636
:101F300034323920BFAAB7A2B0E5A1A30D0A000030
:101F40000D0A20BAF4CEFCB5C6C0FDB3CC0D0A0014
:101F50000D0A20524742204C454420D2D4BAF4CE38
:101F6000FCB5C6B5C4D0CECABDC9C1CBB80D0A2018
:101F700000000000704700BFFEE700BFFEE700BFA3
:101F8000FEE700BFFEE7704770477047704710B527
:101F900001211648FFF799FC38B315480088401C0A
:101FA0001349088013481449098830F811000F4973
:101FB0003C3108600E48008810490988884210DDCD
:101FC0000D480088401C0C490880084600880C49D0
:101FD0000988884202DB0020074908800020044964
:101FE000088001210148FFF781FC10BD000C004072
:101FF00026000020340000202400002028000020BB
:102000002A00002000B587B001210846FEF7A5FD93
:1020100001211020FEF7F9FD07220A212C48FEF7C6
:1020200086FB072209212A48FEF781FB00208DF854
:102030001A0001208DF81B0002208DF81800000204
:10204000059002208DF8190005A92148FEF7E4FA51
:1020500002208DF818004002059005A91C48FEF7E3
:10206000DBFA4FF4E13001900020ADF80800ADF844
:102070000A00ADF80C00ADF810000C20ADF80E0011
:1020800001A91448FFF775FD01211248FFF7F9FD7A
:1020900007B000BD70B504460D46E1B20D48FFF72C
:1020A0001BFE00BF80210B48FFF7C6FE0028F9D0B9
:1020B000204670BD10B5044600BF20210548FFF73B
:1020C000BBFE0028F9D00348FFF70AFE10BD000050
:1020D00000000240001001401CB501218020FEF7E5
:1020E0003CFD02220C213748FEF721FB4FF48050C3
:1020F000009002208DF8040000208DF806008DF875
:10210000070003208DF8050069462E48FEF784FA83
:102110001CBD08B54FF4C060FEF788F932208DF879
:10212000000000208DF8010002208DF8020001203F
:102130008DF803006846FEF77EF908BD00B589B04A
:1021400001210820FEF750FD40F2FF300790632088
:10215000ADF818000020ADF82000ADF81A0006A96F
:102160001948FEF7FAFE6020ADF804000120ADF832
:102170000600002003900220ADF8100001A91248CB
:10218000FFF706F808211048FFF71FF901210E4854
:10219000FEF74EFF012211460B48FFF77FFB01219E
:1021A0000948FEF763FF09B000BD10B500F00EF856
:1021B00000F07CF8FFF790FFFFF7C0FFFFF7A9FFE3
:1021C00010BD0000001C0240000C004070B52DED59
:1021D000028B80260D208021884201DA024600E031
:1021E0000A46144600BF254624E0281B00EE100ACC
:1021F000F8EEC00AC4F17F0000EE100AB8EEC00A83
:1022000080EE801AB0EE418ADFED380AB0EE480A5F
:1022100000F02CF9DFED360A20EE200AF0EE408ABD
:1022200000F056FCBCEEC00A10EE100A314921F84D
:1022300015006D1C802DD8DB002C25DD2D4830F8D5
:10224000140008EE100A00251BE0F8EE480A00EE24
:10225000105AB8EEC00A60EE800A00EE104AB8EEDE
:10226000C00A80EE801AF0EE418AB0EE680A00F0F3
:102270002FFCBCEEC00A10EE100A1E4921F8150012
:102280006D1CA542E1DB00BF00200AE0C0F17F0128
:10229000184A32F8112000F18001164B23F8112062
:1022A000401C8028F2DBBDEC028B70BD10B512A083
:1022B00000F0B8F8002413E00E4830F8141016A00F
:1022C00000F0B0F815A000F0ADF8601C0A2190FBFA
:1022D000F1F201FB120010B911A000F0A3F8641C88
:1022E000FF2CE9DD0EA000F09DF810BDCDCC0C4018
:1022F00000008044340000203D3D3D3D3D3D3D3DDE
:102300002050574D205461626C65203D3D3D3D3D60
:102310003D3D3D0A00000000253464002C00000013
:102320000A00000030B50B4601460020202201249F
:1023300009E021FA02F59D4205D303FA02F5491B93
:1023400004FA02F52844151EA2F10102F1DC30BDA9
:1023500010B541000CD0C0F3C751962908DC7E2986
:1023600009DC06DB410204D000F0004040F07E5062
:1023700010BD002010BDC1F19604C4F1200100FA87
:1023800001F1E04000F016F8A04010BD00207047B9
:10239000064C074D06E0E06840F0010394E80700B2
:1023A00098471034AC42F6D3FDF704FF68300008BC
:1023B000883000080029A8BF7047401C490008BFAA
:1023C00020F00100704710B4B0FA80FC00FA0CF065
:1023D00050EA010404BF10BC704749B1CCF120049D
:1023E00021FA04F411FA0CF118BF0121214308432A
:1023F000A3EB0C01CB1D4FEA00614FEA102042BF56
:10240000002010BC704700EBC35010440029A4BF4B
:1024100010BC7047401C490008BF20F0010010BCF0
:10242000704700000FB4054B10B503A9044A029889
:1024300000F0D8FB10BC5DF814FB000095200008EC
:102440002C0000204100080218BF04200A0E18BF0B
:1024500040F001004FF07F4232EA010108BF40F036
:102460000200012808BF05207047000010B510EEDB
:10247000100A2DED068BB7EE001A10EE901AB0EE92
:10248000418A0022A0F5000CDFEDFE9A4FF00073A8
:10249000BCF1FE4F4FF07F4403EB410C80F0B48160
:1024A000BCF1804FC0F02082F74901449FEDF73A1C
:1024B000B1F5005F40F2D48200F58021CB0C03F02F
:1024C0000F0101EE901AC3F307137F3BA0EBC3503B
:1024D000B8EEE12A00EE100A1A44DFEDED2AF0EE24
:1024E000411A42EE221AF0EE613A70EE232A30EEE3
:1024F000632A12EE900A00F500606FF30B0001EE04
:10250000900A73EEE13A33EE804AC1EE223A22EEAF
:10251000230A10EE100A00F500606FF30B0000EEC6
:10252000100A00EE612A00EE442A62EE232A70EEC1
:10253000221A21EEA12ADFEDD73A02EE233A23EE4A
:10254000023A20EE012A22EE811A03EE211A32EE1F
:10255000010A10EE100A00F500606FF30B0000EEA8
:10256000100A72EE401A31EE812A9FEDCB1A60EE0E
:10257000011A9FEDCA1A20EE011A9FEDC90A02EE58
:10258000001A31EE810A10EE100A00F500606FF3B8
:102590000B0000EE100AC34871EEC01A31EE812A1A
:1025A000784400EBC10090ED003AD0ED011A100123
:1025B00001EE100AF8EEC12A32EE211A31EE001AAD
:1025C00031EE031A31EE221A11EE100A00F5006006
:1025D0006FF30B0009EE100A39EE621A31EE431A5E
:1025E00031EE400A30EE610A32EE40AA10EE900A57
:1025F000002100F500606FF30B0008EE900A08461A
:1026000070EEE8AAFFF7C2FE29EE280A00F00C01DE
:10261000F0EEC00A10EE900AB0F18B4F0DDD10EE17
:10262000900AB4EB400F08D310EE100A4FF08B4223
:1026300062F31E0008EE900A13E069EE2A0A38EEF3
:10264000AA1A4AEE010A30EE201A11EE100A00F51D
:1026500000606FF30B0008EE900A30EE680A70EE2F
:10266000209A0C20FFF792FE38EEA90AB5EEC00AB8
:10267000F1EE10FA34BFFEEE000AF6EE000A30EE7C
:10268000800ABDEEC00A10EE100A011100EE101A09
:10269000F8EEC00A00EE100AB8EEC00A38EEC00A22
:1026A00030EE290ADFED801A9FED801A00EE211A24
:1026B000DFED7F1A7F4900F00F0040EE011A21EE96
:1026C000800A794401EB800191ED001A7A4979443E
:1026D00001EB8001D1ED001A784901EE801A7944AE
:1026E00001EB8000764990ED000A31EE001AB0EE61
:1026F000E00A10EE100A884215DA10EE100AB4EB68
:10270000400F10D39FED6F0A30EE800ADFED6E0AA6
:1027100020EE200A68EE010ABDEC068BBCEEC00A72
:1027200020EE200A10BD10EE100A6849884243DAF4
:1027300010EE100AB4EB400F3ED3BDEEE00A68EE97
:10274000010A10EE100A00EBD0725110C90501F118
:102750007E5100EE101AA0EB6200C00560EE200A68
:1027600000F17E5000EE100A60EE808A18EE900AAA
:10277000B4EB400F0FD1022000F02EFA00F00CFA5B
:1027800010EE101A18EE100ABDEC068B61F31E0055
:1027900000EE100A10BD18EE900A400011D018EE9D
:1027A000900AFFF74FFE042808BF00F0FDF9B0EED5
:1027B000680ABDEC068B10BDF5EEC00AF1EE10FA0A
:1027C0000FD2022000F008FA00F0EEF910EE101A15
:1027D00018EE100ABDEC068B61F31E0000EE100A25
:1027E00010BD022000F0F8F900F0D6F910EE101A32
:1027F000B0EE480A10EE100ABDEC068B61F31E0025
:1028000000EE100A10BD00BFBCF1804F6CD300BFBA
:1028100000F1FF43B3F1FE4F24D200BFB0EEC00A77
:1028200010EE100AC1F3C7537F2B0DDB972BBFF6B9
:102830003BAEC3F196034FF0010C0CFA03F3A3F186
:10284000010C1CEA010F08D0012000F0C5F9BDEC15
:10285000068BBDE8104000F097B90B4218BFBFEEE1
:10286000008A21E643001CBF4FF08073B3EB400F9A
:1028700034D96FF01A02DFED161A20EE210A10EE9D
:10288000100A27E000000000001080C0ABAAAA3E9A
:102890000000803D7EE24C3E00B03842D49AB8BB86
:1028A0003BAA384284090000FC596337C9FF753AD6
:1028B0001872313D2209000056090000C6080000C8
:1028C0000000FC420000FE420000004B00004043BC
:1028D0000000004D10F0004FA0D1E5E5A0F5000389
:1028E000B3F1FE4F21D2DFE503EB4103B3F1007FEB
:1028F00011D3F5EEC00AF1EE10FA05D1430018BF6E
:10290000B4EB400F76D883E701F0004141F0FC5171
:1029100000EE901A7CE7B3F1807F06D210EE903A79
:10292000A3F5000300EE903A72E720F000426FF04A
:10293000FF4C604C02EB0C03A34210D321F0004388
:102940009C44A4450BD3B0F17E5F18BF5FEA410CF5
:1029500050D0B2F1FF4F98BFB3F1FF4F05D9BDEC96
:10296000068BBDE8104000F00BB9B0F1FF4F0FD05F
:10297000C1F3C7527F2A09DB972A11DAC2F1960206
:10298000012303FA02F2531E0B4205D0002208E095
:1029900011F0004F55D128E00A4218BF012200D1A2
:1029A000022210F5000F13D028B3B0F1004F26D04B
:1029B00010F1814F4FD04FF0FE42B2EB400F94BF69
:1029C00001200020012202EBE171884239D10CE0A4
:1029D00011F0004F02D0012A38D032E0012A02BFA4
:1029E0009FED350ABDEC068B10BD9FED340ABDECA2
:1029F000068B10BD2FE011F0004F0CD121E0B1F19A
:102A0000FF4F1ED011F5000F05D011F0004F15D06B
:102A10000AB1012A08D0022000F0DEF8BDEC068BD6
:102A2000BDE8104000F0A2B8022000F0D5F800F098
:102A30009DF8BDEC068BB1EE400A10BD0AB1012A2B
:102A400004D0B0EE690ABDEC068B10BDBDEC068B60
:102A50009FED1B0A10BDBDEC068BB7EE000A10BD42
:102A600030EE410AB5EE001A9FED172A00EE413A0A
:102A7000B6EE001A60EE001A00EE431A61EEC11ABB
:102A80009FED101A20EE011A20EE020A9FED0F2A88
:102A900001EE820A71EE001A11EE900A00F5006054
:102AA0006FF30B0009EE100A31EE491A31EE00AA5D
:102AB0009CE50000FFFF3F00000080FF0000807FDA
:102AC0000000008000B0B841D49A38BB3BAAB8419E
:102AD00010B52DED028BB0EE408A18EE100AFFF70C
:102AE00037FC01EE100A18EE100AB7EE000A78EE75
:102AF000410A10F0004F4FF07F4010EE901A12D0B4
:102B0000B1F13F4F24BF10EE901AB0EB410F12D23B
:102B100010EE901AB1F17C5F1CDD10EE901AB0EB54
:102B2000410F17D314E0B1F13F4F07D910EE901ABF
:102B3000B0EB410F02D331EE401A0BE010EE901AC9
:102B4000B1F17C5F06DB10EE901AB0EB410F01D3C0
:102B500031EE001A18EE100ABDEC028B11EE101ABD
:102B600061F31E0000EE100A10BD0000DFED030A45
:102B7000B7EE001A81EE200A704700000000000046
:102B800030EE200A70470000DFED020A80EEA00A56
:102B900070470000000000009FED020A20EE000ACE
:102BA00070470000000000709FED020A20EE000A4E
:102BB000704700000000001002E008C8121F08C1A2
:102BC000002AFAD170477047002001E001C1121FAE
:102BD000002AFBD1704700000149086070470000DF
:102BE000300000202DE9FF4F8BB0884605460026B7
:102BF00006E025280BD0DDE90D1290476D1C761CF0
:102C000028780028F5D10FB03046BDE8F08F0024B9
:102C1000A146A2460122AE4900E0044315F8013F57
:102C2000203B02FA03F00842F7D128782A2810D076
:102C30006FF02F022878A0F13001092915D809EB8F
:102C4000890102EB410144F0020400EB01096D1C13
:102C5000F0E758F8041B5FEA010903D544F4005477
:102C6000C9F1000944F002046D1C28782E2817D100
:102C700015F8010F44F004042A280ED06FF02F023B
:102C80002878A0F1300109290AD80AEB8A0102EB61
:102C9000410100EB010A6D1CF2E758F804AB6D1C12
:102CA00028786C280FD006DC4C2817D068280DD067
:102CB0006A2814D104E0742810D07A280FD10DE0CE
:102CC00044F400140AE044F4801401E044F4401495
:102CD0006978814202D104F580146D1C6D1C28783E
:102CE000692865D006DC00288DD0632827D06428A9
:102CF00006D15DE06E2808D073282AD0752877D0D9
:102D0000DDE90D129047761CE0E0C4F30250022882
:102D100009D003280DD0D8F8001004280DD00E607B
:102D200008F10408D2E0D8F80010F217C1E90062F7
:102D3000F6E7D8F800100E80F2E70E70F0E718F80A
:102D4000041B8DF8001000208DF80100EB460120D7
:102D500003E058F804BB4FF0FF3061074FF0000765
:102D600001D40AE07F1C57450DDA8742FADB1BF8D5
:102D700007100029F6D106E07F1C8742FCDB1BF818
:102D800007100029F8D1DDE90D23A9EB07008146E2
:102D9000214600F0B1F83044C61904E0DDE90D1217
:102DA0001BF8010B90477F1EF8D22146484688E069
:102DB00058F8040BC4F302514FF00A0B032900D159
:102DC00000B2042900D140B2002802DA40422D218D
:102DD00002E0210505D52B218DF82410012104E006
:102DE00006E0E10710D02021F6E708AF089113E0D4
:102DF00058F8040BC4F302514FF00A0B032900D119
:102E000080B2042900D1C0B20021EEE75946FFF795
:102E100089FA303107F8011D0028F7D1ADEB070022
:102E200000F1200B600702D524F4803401E04FF05C
:102E3000010ADA4502DDAAEB0B0000E00020824621
:102E400000EB0B0108980144A9EB01000A90E00394
:102E500006D4DDE90D2321460A9800F04DF806441A
:102E60004FF0000908E009A911F80900DDE90D1289
:102E7000904709F10109761C08998945F3DBE003C5
:102E80000CD5DDE90D2321460A9800F035F80644FB
:102E900004E0DDE90D1230209047761CBAF1000104
:102EA000AAF1010AF5DC05E0DDE90D1217F8010BC6
:102EB0009047761CBBF10001ABF1010BF4DC0A98E2
:102EC0002146DDE90D2300F005F806446D1C97E668
:102ED000092801002DE9F041044600251E46174649
:102EE000880404D405E039462020B0476D1C641ED8
:102EF000F9D52846BDE8F0812DE9F04104460025CA
:102F00001E469046C80301D5302700E020278804DC
:102F100004D505E041463846B0476D1C641EF9D51E
:102F20002846BDE8F081000000000000000000001D
:102F30000000B33FB2BE7D3A00002E40DFCF5138D3
:102F400000007E40BF51FABA00E0A44019DAC3BACB
:102F500000E0C840C2ED8AB90040EB40CD1F2CBA5A
:102F6000001006412AFFFABA00C01541DFCFD13761
:102F700000D024419A97703A0050334189478E36E9
:102F800000404141E75B9D3800B04E41C00A98B90E
:102F900000A05B41558F943A00306841DA92C0BA84
:102FA0000040744162B3C63A0000803F00A0853FF4
:102FB00000908B3F00C0913F0030983F00F09E3F53
:102FC00000F0A53F0050AD3F0000B53F0000BD3F01
:102FD0000060C53F0020CE3F0040D73F00C0E03F2B
:102FE00000C0EA3F0020F53F000000007D36AC390C
:102FF0007D3C3839EBDCF438320A7E39124C263904
:103000009B6AED39A4EE83397F661E39F6398A3919
:103010002B426539A48211395B991F39C3EECD3932
:10302000DDE7C637A5A22F390000803FC3AA853F40
:10303000C2958B3FD3C3913FF037983F32F59E3F07
:10304000D7FEA53F3F58AD3FF304B53FA408BD3FB1
:103050002A67C53F8C24CE3FFD44D73FDFCCE03FFD
:10306000C7C0EA3F7D25F53F8830000800000020FA
:1030700034000000B82B0008BC30000834000020E9
:1030800004060000C82B00080095BA0A00000000E2
:103090000000000001020304060708090000000008
:1030A00001020304010203040607080900000000EE
:0C30B0000A000001000000000000000009
:04000005080001AD41
:00000001FF
