:020000040800F2
:1000000040AE0020C5010008D305000871050008B6
:10001000D105000839020008E90D000800000000C1
:100020000000000000000000000000009D0B000820
:100030003B02000800000000D5050008850C000800
:10004000DF010008DF010008DF010008DF01000810
:10005000DF010008DF010008DF010008DF01000800
:10006000DF010008DF010008DF010008DF010008F0
:10007000DF010008DF010008DF010008DF010008E0
:10008000DF010008DF010008DF010008DF010008D0
:10009000DF010008DF010008DF010008DF010008C0
:1000A000DF010008DF010008DF010008DF010008B0
:1000B000DF010008DF010008DF010008DF010008A0
:1000C000DF010008DF010008DF010008DF01000890
:1000D000DF010008DF010008DF010008DF01000880
:1000E000DF010008DF010008DF010008DF01000870
:1000F000DF010008DF010008DF010008DF01000860
:10010000DF010008DF010008DF010008DF0100084F
:10011000DF010008DF010008DF010008DF0100083F
:10012000DF010008DF010008DF010008DF0100082F
:10013000DF010008DF010008DF010008DF0100081F
:10014000DF010008DF010008DF010008DF0100080F
:10015000DF010008DF010008DF010008DF010008FF
:10016000DF010008DF010008DF010008DF010008EF
:10017000DF010008DF010008DF010008DF010008DF
:10018000DF010008DF010008DF010008DF010008CF
:10019000DF010008DF010008DF010008DF010008BF
:1001A000DF010008DF010008DF010008DFF810D0E0
:1001B00000F030F800480047D90F0008AFF3008086
:1001C00040AE00200648804706480047FEE7FEE7AD
:1001D000FEE7FEE7FEE7FEE7FEE7FEE7FEE7FEE7F7
:1001E000890C0008AD01000830B50B46014600201F
:1001F0002022012409E021FA02F59D4205D303FAE9
:1002000002F5491B04FA02F52844151EA2F1010269
:10021000F1DC30BD064C074D06E0E06840F001031C
:1002200094E8070098471034AC42F6D3FFF7C2FFBA
:10023000CC120008EC120008FEE7704770B586B0DB
:100240000121084600F0C8F90121102000F0E0F972
:100250001E4E07220A21304600F077F907220921B5
:10026000304600F072F900248DF8164001218DF817
:10027000171002258DF81450490204918DF815507D
:1002800004A9304600F016F98DF814506802049065
:1002900004A9304600F00EF94FF4E1300090ADF8BB
:1002A0000440ADF80640ADF80840ADF80C400C2015
:1002B000ADF80A00064C6946204600F029FD0121F0
:1002C000204600F011FD06B070BD000000000240A5
:1002D0000010014010B582B00121402000F07CF9EF
:1002E0004FF40070009001218DF8041000208DF86B
:1002F00006008DF807108DF80500054C694620466C
:1003000000F0D8F86115204600F030F902B010BDB9
:100310000018024000234FF0204210280BD0B0F507
:10032000807F0AD0B0F5805F0AD0D2F8580131EA58
:10033000000009D107E0506EF9E7D2F88400F6E733
:10034000D2F8A400F3E70123184670474268016819
:1003500011438268C068521E520142EA402008439D
:100360000149086070470000500100A030B40368E4
:100370009900A1F1C041D1F840116FF30E01D0F8FE
:1003800008C04268046942EA0C02D0F80CC04CEA8A
:10039000040C42EA0C02D0F814C042EA0C02D0F875
:1003A00018C042EA0C0CC2694CEA0204D0F820C022
:1003B00044EA0C05446A254329434FF02045002BAD
:1003C00048D0D5F840316FF30E0342EA0C022343C4
:1003D0001A43C5F8402102689200A2F1C042C2F857
:1003E00040110168A9B38900A1F1C041D1F84811B9
:1003F00001F07042816A0B68D1F804C05B1EACF159
:10040000010C43EA0C13D1F808C0ACF1010C43EA2B
:100410000C23B1F810C0ACF1010C43EA0C431A43B1
:10042000D5F8483103F07043D1F80CC0898AACF19B
:10043000010C4FEA0C3C491E4CEA01511943C5F826
:10044000481100688000A0F1C040C0F8482130BCCD
:10045000704702E0C5F84011C3E7D5F8481101F034
:100460007041806A02684368521E5B1E42EA0312B2
:1004700083685B1E42EA0322C3685B1E42EA0332C2
:10048000038A5B1E42EA0342838A007E5B1E42EAC5
:100490000352401E42EA00600843C5F8480130BCE0
:1004A0007047000002490A6842EA4000086070474D
:1004B000540100A02DE9F00100220126032706FACD
:1004C00002FC0B6803EA0C03634538D1056853004E
:1004D00007FA03F4A54305600D79D0F800809D402C
:1004E00045EA080505600D79012D01D0022D17D1CF
:1004F0008568A54385604D79D0F808809D4045EA20
:1005000008058560456825EA0C0CC0F804C0D0F8E1
:1005100004C08D799540ADB24CEA050CC0F804C01A
:10052000D0F80CC02CEA040CC0F80CC091F807C03D
:100530000CFA03F3D0F80CC043EA0C03C360521C5E
:10054000102ABCD3BDE8F00170474B07DB0E9A4080
:10055000C90800EB8100016A4FF00F0C0CFA03F39D
:1005600099430162016A1143016270470183704738
:10057000FEE70000F0B583B00121802000F02CF8E8
:100580004FF48064009401218DF8041000208DF850
:1005900006008DF807108DF805000B4F69463846A8
:1005A000FFF788FF6500009569463846FFF782FF30
:1005B000A600009669463846FFF77CFF0348048092
:1005C0000580068003B0F0BD001C0240181C0240EC
:1005D000FEE7704770470000054A002903D0116804
:1005E000084310607047116821EA000010607047EE
:1005F00030380240054A002903D0116808431060D2
:100600007047116821EA00001060704738380240D6
:10061000054A002903D0116808431060704711682B
:1006200021EA0000106070474438024030B4DFF81F
:100630009CC0DCF8001001F00C01254D002923D0EE
:10064000244C042922D0082922D00560DCF80010AF
:1006500001F0F0010909204B595C026822FA01F10E
:100660004160DCF8002002F4E052920A9A5C21FA20
:1006700002F28260DCF8002002F46042520B9A5CC5
:10068000D140C16030BC70470560DFE70460DDE742
:10069000124A1168C1F38053116801F03F0133B170
:1006A000B4FBF1F11368C3F38813594305E0B5FBBC
:1006B000F1F11368C3F3881359431268C2F301427E
:1006C000521C5200B1FBF2F10160BFE70838024052
:1006D0000024F40040787D0100000020043802402E
:1006E0002DE9F04F83B00121FC20FFF775FF0220B8
:1006F0008DF804008DF8050000208DF806008DF8B7
:100700000700012000906946D848FFF7D3FE0C226D
:100710000021D648FFF719FF022000906946D34810
:10072000FFF7C8FE0C220121D048FFF70EFF042579
:1007300000956946CD48FFF7BDFE0C220221CB484B
:10074000FFF703FF082000906946C848FFF7B2FE94
:100750000C220321C548FFF7F8FE4FF01009CDF831
:1007600000906946C148FFF7A5FE0C220421BF484E
:10077000FFF7EBFE4FF0200ACDF800A06946BB481A
:10078000FFF798FE0C220521B848FFF7DEFEAF0206
:1007900000976946B548FFF78DFE0C221146B34815
:1007A000FFF7D3FE4FF40058CDF800806946AF48FC
:1007B000FFF780FE0C220D21AC48FFF7C6FE2E038A
:1007C00000966946A948FFF775FE0C220E21A7483E
:1007D000FFF7BBFE6C0300946946A448FFF76AFE6E
:1007E0000C220F21A148FFF7B0FE012000906946BE
:1007F0009F48FFF75FFE0C2200219D48FFF7A5FEF2
:100800000220009069469A48FFF754FE0C2201210D
:100810009748FFF79AFE009569469548FFF74AFE0C
:100820000C2202219248FFF790FECDF80090694615
:100830008F48FFF73FFE0C2204218D48FFF785FE0D
:10084000CDF800A069468A48FFF734FE0C22052146
:100850008748FFF77AFE009669468648FFF72AFE2A
:100860000C220E218348FFF770FE009469468148F0
:10087000FFF720FE0C220F217E48FFF766FE0120C5
:10088000009069467B48FFF715FE0C22002179484D
:10089000FFF75BFE0220009069467648FFF70AFEEC
:1008A0000C2201217348FFF750FE4FF08009CDF86C
:1008B000009069467048FFF7FDFD0C2207216E4845
:1008C000FFF743FEE511009569466B48FFF7F2FD1F
:1008D0000C2208216848FFF738FE4FF4007ACDF863
:1008E00000A069466448FFF7E5FD0C220921624833
:1008F000FFF72BFE4FF4806BCDF800B069465E48E1
:10090000FFF7D8FD0C220A215B48FFF71EFE2011DD
:10091000009069465848FFF7CDFD0C220B21564840
:10092000FFF713FE009769465348FFF7C3FD0C22FB
:1009300011465148FFF709FECDF8008069464E4840
:10094000FFF7B8FD0C220D214B48FFF7FEFD009686
:1009500069464948FFF7AEFD0C220E214648FFF7D5
:10096000F4FD009469464448FFF7A4FD0C220F21D2
:100970004148FFF7EAFD009569463E48FFF79AFDBA
:100980000C2208213B48FFF7E0FDCDF800A06946A6
:100990003848FFF78FFD0C2209213648FFF7D5FDB7
:1009A000CDF800B069463348FFF784FD0C220A21D8
:1009B0003048FFF7CAFD40200090304E694630466F
:1009C000FFF778FD0C2206213046FFF7BEFD01201F
:1009D00000902B4F69463846FFF76CFD0C22002132
:1009E0003846FFF7B2FD2111009169461F48FFF715
:1009F00061FD0C220B211D48FFF7A7FD00946946FD
:100A00001B48FFF757FD0C220F211948FFF79DFDEA
:100A1000009569461648FFF74DFD0C220821144841
:100A2000FFF793FDCDF8009069463046FFF742FD91
:100A30000C2207213046FFF788FD0220009069460E
:100A40000D48FFF737FD0C2201210B48FFF77DFD14
:100A50000120009069460848FFF72CFD0C22002178
:100A60000548FFF772FD03B0BDE8F08F00140240A7
:100A700000180240000C024000100240001C02401E
:100A80000008024000B593B0FFF72AFE0121084696
:100A9000FFF7B0FD0220019007210291042203928A
:100AA0000491059006900790012008900990082075
:100AB0000A9010200B9040200C9080000D90002098
:100AC0000E9051020F9149001091119001A81290BF
:100AD00008A8FFF74BFC00F002F813B000BDF0B51A
:100AE00085B0012600960825019500240294039400
:100AF00020210120FFF70EFC0028F9D16846FFF7FE
:100B000025FC0A2000F038F802270097019502948E
:100B1000039420210120FFF7FDFB0028F9D168464E
:100B2000FFF714FC03200090019502970394202105
:100B30000120FFF7EFFB0028F9D16846FFF706FC1C
:100B400040F2222004210091019502960390202179
:100B50000120FFF7DFFB0028F9D16846FFF7F6FB1D
:100B600040F2AB20FFF79EFC20210120FFF7D2FBD3
:100B70000028F9D105B0F0BD01B481B00649019853
:100B80004843009002E00098401E00900098002822
:100B9000F9D102B070470000A08601007047000044
:100BA00082B0002101910091304A106840F48030F9
:100BB0001060106800F4003000900198401C019013
:100BC000009818B90198B0F5A04FF2D1106810F450
:100BD000003F02D00120009000E000910098012821
:100BE00042D12348016841F08051016021490868E1
:100BF00040F440400860204803680360036843F401
:100C000000430360036843F4A0530360A0F1040CA5
:100C10001A4BCCF80030136843F0807313601368EC
:100C200013F0007FFBD00A6842F480320A604A6801
:100C300012F4803FFBD00A6842F400320A604A682E
:100C400012F4003FFBD00E4A40F2057111600168BA
:100C500021F003010160016841F0020101600168B7
:100C600001F00C010829FAD102B0704700380240A7
:100C7000403802400070004008380240195A4007CE
:100C8000003C02407047000010B51148016841F473
:100C9000700101600F48016841F0010101600E4AD6
:100CA00000211160026822F4102222F0807202609A
:100CB000031D0A4A1A60026822F480220260084872
:100CC0000160FFF76DFF07494FF00060086010BD3D
:100CD00088ED00E00038024008380240103000245F
:100CE0000C38024008ED00E0002904D0818941F46D
:100CF000005181817047818921F4005181817047C1
:100D00000246002012880A4200D0012070470000ED
:100D100030B585B004460D46208A20F44050E9885D
:100D200008432082A08920F4037020F4A050A988F1
:100D30002A8911436A8910430843A081A08A20F4BC
:100D40004070A9890843A0826846FFF76FFCA4F1B0
:100D50008040B0F5883012D0A4F18040B0F58A30E0
:100D60000DD00298A18911F4004F0AD000EBC00108
:100D700001EB001029684900B0FBF1F009E003988D
:100D8000F0E700EBC00101EB001029688900B0FB1F
:100D9000F1F0124AA2FB0031490909010B096FF079
:100DA000180C03FB0CF300EB8300A38913F4004F32
:100DB0004FF0320307D003EBC000A2FB0020C0F3CA
:100DC0004210084306E003EB0010A2FB0020C0F332
:100DD00043100843208105B030BD00001F85EB5152
:100DE000C1F3080181807047FEE700000FB4054B96
:100DF00010B503A9044A029800F02CF810BC5DF865
:100E000014FB0000B50F00082C0000200FB4084BA5
:100E100010B504A902AA039800F01CF8044602A920
:100E2000002000F0C1F8204610BC5DF814FB000063
:100E3000A90F000802E008C8121F08C1002AFAD151
:100E400070477047002001E001C1121F002AFBD14A
:100E5000704700002DE9FF4F89B09B4604460025EE
:100E600006E025280BD05A460B999047641C6D1C50
:100E700020780028F5D10DB02846BDE8F08F002776
:100E8000B8460122474900E0074314F8013F203BE0
:100E900002FA03F00842F7D120782E2819D114F86D
:100EA000010F47F004072A280ED06FF02F02207898
:100EB000A0F1300109290CD808EB880102EB4101AF
:100EC00000EB0108641CF2E70A98641C50F8048BDC
:100ED0000A9020780028CED0642808D0692806D04F
:100EE00075281ED05A460B9990476D1C58E00A99F8
:100EF0004FF00A0901C90A91002802DA40422D2167
:100F000002E0390504D52B218DF82010012103E0E2
:100F1000F90704D02021F7E78A4608AE0DE000214A
:100F2000FAE70A994FF00A0901C90A91F7E7494619
:100F3000FFF75AF9303106F8011D0028F7D1ADEB63
:100F4000060000F12009780701D44FF00108C845D8
:100F500002DDA8EB090000E000208046002706E043
:100F600008A85A46C05D0B9990476D1C7F1C5745D9
:100F7000F6DB04E030205A460B9990476D1CB8F11F
:100F80000001A8F10108F5DC05E016F8010B5A464E
:100F90000B9990476D1CB9F10001A9F10109F4DC2E
:100FA000641C65E7092801000A68531C0B60107077
:100FB0007047000070B50446064DE1B22846FFF7C1
:100FC0000FFF80212846FFF79BFE0028F9D020461E
:100FD00070BD0000001001400024FFF7CBFAFFF7BE
:100FE0002DF9FFF777F91FA0FFF700FFFFF74AFD84
:100FF000002000F0AFF8012000F0ACF823A0FFF7CC
:10100000F5FE27A0FFF7F2FE4FF40061204600F046
:1010100037F9054626A12846FFF7F8FE002000F024
:1010200003F9014626A0FFF7E1FE012000F0FCF8DD
:10103000014628A0FFF7DAFE2946204600F014F901
:1010400029A0FFF7D3FE002000F0EEF801461CA017
:10105000FFF7CCFE012000F0E7F801461DA0FFF7E6
:10106000C5FEFEE70D0A20D2B0BBF053544D33321B
:101070004634323920534452414D20B6C1D0B4B227
:10108000E2CAD4C0FDB3CC0D0A0000000D0AD2B0F4
:10109000BBF0C4DAB4E6B9DCC0ED0D0A0000000014
:1010A0000D0AB7D6C5E4C4DAB4E60D0A00000000A4
:1010B0004D656D6F7279204D616C6C6F630000003F
:1010C0005352414D494E20555345443A25642525F8
:1010D0000D0A00005352414D455820555345443A9E
:1010E000256425250D0A00000D0ACACDB7C5C4DA4E
:1010F000B4E60D0A0000000070B5134A13181B7EF9
:10110000002B1BD0114B53F820308B421AD9104BB7
:1011100053F82030B1FBF3F102EB8003186930F88B
:1011200011200020002A07DD84461C690D1824F8D0
:1011300015C0401C9042F8DB002070BD1168884744
:10114000012070BD022070BD10000020C4120008F4
:10115000BC12000870B504460A480B4E002150F836
:10116000240006EB84054200286900F09BF807483C
:10117000002150F82420A86800F094F801203119CB
:10118000087670BDB412000810000020C4120008D8
:101190002DE9F04105460E460024204F7819007EC7
:1011A000002802D139682846884756B3DFF870C056
:1011B0005CF82500B6FBF0F2B6FBF0F100FB116025
:1011C00000B1521C174850F82500411E002921DBB0
:1011D00007EB8506306930F81130B3B10024944232
:1011E00015D10023002A07D990B23469CF1824F80A
:1011F00017005B1C9342F8D35CF825004843BDE818
:10120000F0814FF0FF30BDE8F081641CE7E7491E34
:101210000029E0DA4FF0FF30BDE8F0811000002037
:10122000BC120008B4120008002200210C4B53F835
:101230002030002B0DD9DFF82CC00CEB80000069AA
:1012400030F811C0BCF1000F00D0521C491C8B4279
:10125000F6D864205043B0FBF3F0C0B270470000F2
:10126000B412000810000020002906D0034A02EB47
:1012700080029268891AFFF73FBF70471000002074
:1012800010B504462046FFF783FFB0F1FF3F05D0BD
:10129000034901EB84018968084410BD002010BD9A
:1012A00010000020521E03D300F8011B521EFBD277
:1012B00070470000000500000078000020000000DA
:1012C0002000000000A0000000000F00EC12000849
:1012D0000000002030000000340E00081C1300083D
:1012E0003000002010AE0000440E00080000000096
:1012F000010203040102030406070809551100084E
:101300002912000840000020000000D040A000206A
:0C13100000000FD00000000000000000F2
:04000005080001AD41
:00000001FF
