:020000040800F2
:1000000000040020C50100088B030008110300084C
:10001000890300080D0200083906000800000000EE
:1000200000000000000000000000000001050008C2
:100030000F02000800000000C5040008D9050008F0
:10004000DF01000861040008DF010008DF0100088B
:10005000DF010008DF010008DF010008DF01000800
:10006000DF010008DF010008DF010008DF010008F0
:10007000DF010008DF010008DF010008DF010008E0
:10008000DF010008DF010008DF010008DF010008D0
:10009000DF010008DF010008DF010008DF010008C0
:1000A000DF010008DF010008DF010008DF010008B0
:1000B000DF010008DF010008DF010008DF010008A0
:1000C000DF010008DF010008DF010008DF01000890
:1000D000DF010008DF010008DF010008DF01000880
:1000E000DF010008DF010008DF010008DF01000870
:1000F000DF010008DF010008DF010008DF01000860
:10010000DF010008DF010008DF010008DF0100084F
:10011000DF010008DF010008DF010008DF0100083F
:10012000DF010008DF010008DF010008DF0100082F
:10013000DF010008DF010008DF010008DF0100081F
:10014000DF010008DF010008DF010008DF0100080F
:10015000DF010008DF010008DF010008DF010008FF
:10016000DF010008DF010008DF010008DF010008EF
:10017000DF010008DF010008DF010008DF010008DF
:10018000DF010008DF010008DF010008DF010008CF
:10019000DF010008DF010008DF010008DF010008BF
:1001A000DF010008DF010008DF010008DFF810D0E0
:1001B00000F01AF80048004759060008AFF3008025
:1001C000000400200648804706480047FEE7FEE797
:1001D000FEE7FEE7FEE7FEE7FEE7FEE7FEE7FEE7F7
:1001E000DD050008AD010008064C074D06E0E0689B
:1001F00040F0010394E8070098471034AC42F6D36E
:10020000FFF7D8FF7806000888060008FEE7704769
:100210000149086070470000143C014030B51B4A9A
:1002200083790168002B2AD013688B431360111D5A
:100230000B680468A3430B60017911440B680468E0
:1002400023430B60114C08342168036899432160F3
:10025000231D19680568A94319604179102905D043
:1002600011440A68006802430A6030BD21680268D0
:1002700011432160196800680143196030BD00799D
:10028000104402688A43026030BD0000003C014017
:100290002DE9F041002201274FF0030C07FA02F587
:1002A0000B682B40AB422CD1066853000CFA03F4C8
:1002B000A64306600E79D0F800809E4046EA080604
:1002C00006600E79012E01D0022E12D18668A64357
:1002D00086604E79D0F808809E4046EA080686601F
:1002E0004668AE43466045688E799640B6B235435F
:1002F0004560C568A543C560CC799C40C3681C4374
:10030000C460521C102AC9D3BDE8F08141837047F4
:10031000FEE700002DE9FC410121882000F0D4F81F
:100320004FF48065009501218DF8041000208DF8B0
:1003300006008DF807108DF80500114F6946384604
:10034000FFF7A6FF6C00009469463846FFF7A0FF50
:100350006600009669463846FFF79AFF0094094FF9
:1003600069463846FFF794FF054918310D800C8027
:100370000E8021463846FFF7C9FFBDE8FC8100002A
:10038000001C0240000C0240FEE7704730B50F230E
:10039000C27801250178002A1FD0154A126802F49C
:1003A000E062C2F5E062C2F30722C2F10404D34066
:1003B0004278A24084781C401443220101F1E021DC
:1003C00081F80024007800F01F018D404009800072
:1003D00000F1E020C0F8005130BD01F01F00854061
:1003E0004809800000F1E020C0F8805130BD0000D5
:1003F0000CED00E002490843024908607047000024
:100400000000FA050CED00E0FEB50121080700F040
:1004100069F84FF4C060FFF7EDFF01248DF8084044
:1004200000258DF809508DF80A508DF80B4002A870
:10043000FFF7ACFF26043046FFF7EAFE00968DF882
:10044000045010208DF805008DF806406846FFF72F
:10045000E5FEA02000F02CF8012000F023F8FEBDFE
:1004600010B5042000F014F8012808D107498002D3
:10047000088041000548801E018081140180BDE88C
:1004800010404FF48030FFF7C3BE00001A1C02403A
:1004900001460020024A52680A4200D001207047FB
:1004A00000700040014908617047000000000E42E2
:1004B000034A116821F0E001014311607047000018
:1004C0000070004070470000054A002903D0116801
:1004D000014311607047116881431160704700004B
:1004E00030380240054A002903D0116801431160E9
:1004F0007047116881431160704700004038024026
:10050000704700001CB50021019100912E4A10682F
:1005100040F4803010604FF4A043106800F40030C5
:1005200000900198401C0190009810B901989842E1
:10053000F3D11068800302D50120009000E0009103
:10054000009801283FD120484030016841F0805197
:1005500001601E49086840F4404008601A480830AD
:1005600003680360036843F400430360036843F4D3
:10057000A0530360041F164B2360136843F080737D
:10058000136013689B01FCD50A6842F480320A604C
:100590004A68D203FCD50A6842F400320A604A680D
:1005A0009203FCD50B4A40F205711160016821F0FD
:1005B00003010160016841F0020101600168C1F3BB
:1005C00081010229FAD11CBD0038024000700040B0
:1005D000195A4007003C02407047000010B512480D
:1005E000016841F4700101601048016841F00101A7
:1005F00001600E4A00210832116002680C4B1A405B
:100600000260031D0B4A1A60026822F48022026015
:1006100006480C300160FFF775FF03494FF000609A
:100620008039086010BD000088ED00E0003802400D
:10063000FFFFF6FE10300024FEE702E008C8121F9C
:1006400008C1002AFAD170477047002001E001C1BB
:10065000121F002AFBD17047FFF75CFE05484FF4DC
:1006600080610180C114821C118081140180FFF718
:10067000CBFEFEE7181C02408806000800000020A0
:08068000000400004A06000816
:04000005080001AD41
:00000001FF
