:020000040800F2
:1000000030040020C5010008C10B0008B90B00082E
:10001000BD0B0008C30900080D1100080000000016
:10002000000000000000000000000000410E000879
:10003000350A000800000000C30B0008650F000827
:10004000DF010008DF010008DF010008DF01000810
:10005000DF010008DF010008DF010008DF01000800
:10006000DF010008DF010008DF010008DF010008F0
:10007000DF010008DF010008DF010008DF010008E0
:10008000DF010008DF010008DF010008DF010008D0
:10009000DF010008DF010008DF010008DF010008C0
:1000A000DF010008DF010008DF010008DF010008B0
:1000B000DF010008DF010008DF010008DF010008A0
:1000C000DF010008DF010008DF010008DF01000890
:1000D000DF010008DF010008DF010008DF01000880
:1000E000DF010008DF010008DF010008DF01000870
:1000F000DF010008DF010008DF010008DF01000860
:10010000DF010008DF010008DF010008DF0100084F
:10011000DF010008DF010008DF010008DF0100083F
:10012000DF010008DF010008DF010008DF0100082F
:10013000DF010008DF010008DF010008DF0100081F
:10014000DF010008DF010008DF010008DF0100080F
:10015000DF010008DF010008DF010008DF010008FF
:10016000DF010008DF010008DF010008DF010008EF
:10017000DF010008DF010008DF010008DF010008DF
:10018000DF010008DF010008DF010008DF010008CF
:10019000DF010008DF010008DF010008DF010008BF
:1001A000DF010008DF010008DF010008DFF810D0E0
:1001B00000F0EAFA00480047011A0008AFF3008097
:1001C000300400200648804706480047FEE7FEE767
:1001D000FEE7FEE7FEE7FEE7FEE7FEE7FEE7FEE7F7
:1001E0007D0F0008AD0100082DE9FE4F81EA0304F0
:1001F00004F0004421F0004100944FF0000B23F084
:10020000004350EA01045ED052EA03045BD0C3F31A
:100210000A54C1F30A552C44A4F2F3340194A0FB10
:100220000254C1F3130141F48011C3F3130343F4E7
:10023000801301FB024400FB034E840A970A44EA40
:10024000815447EA8357A4FB076802958D0A05FB92
:1002500007854FEA932C04FB0C542705029D4FEAB7
:10026000065847EA1637B5EB08056EEB070C870E04
:10027000920E47EA811742EA8312A7FB0201B6EB0E
:100280000B0164EB00042B0D43EA0C335E1844EBC6
:100290001C50DA465146E7FB0201C5F313044FEA4E
:1002A0000B3343EA14534FEA0432019C43EA06033A
:1002B000A4F10C040294009CCDE900B400F03EF9D6
:1002C00003B0BDE8F08F00200146F9E72DE9F04DBD
:1002D00081EA030404F0004B21F0004514464FF07E
:1002E000000A23F0004150EA050220D054EA01023E
:1002F0001DD0C5F30A570246C5F31303C1F313001B
:10030000C1F30A5640F4801543F48013A7EB0608A6
:10031000101BD64608F2FD3873EB050002D308F136
:10032000010801E092185B41B8F1000F03DA0020E8
:100330000146BDE8F08D00204FF48011064684464A
:100340000EE0171B73EB050705D3121B63EB0503C8
:1003500006434CEA010C49084FEA300092185B4111
:1003600050EA0107EDD152EA030012D082EA0400FC
:1003700083EA0501084305D0101BAB4106D20122D8
:10038000002306E000224FF0004302E06FF001027C
:1003900053101AEB06004CEB085110EB0A0041EB2E
:1003A0000B01BDE8F04D00F0BAB80EB540F2334194
:1003B00002910021CDE900110A460B4600F0BEF87B
:1003C00003B000BD00F0004230F000400AD0C10D83
:1003D00001F56071C0F3160042EA0151C2084007FE
:1003E0001143704700200146704701F0004330B4CC
:1003F00021F0004150EA010206D00A0DA2F5607218
:10040000C1F31301002A02DC30BC00207047440F06
:1004100044EAC104C100E01830BC00EBC25000F057
:1004200047B830B50B46014600202022012409E0E0
:1004300021FA02F59D4205D303FA02F5491B04FA9D
:1004400002F52844151EA2F10102F1DC30BD2DE9B0
:10045000F05F0546002092469B4688460646814648
:1004600040241BE0284641464746224600F0ADF9AD
:1004700053465A46C01A914110D311461846224697
:1004800000F094F92D1A67EB01084F46224601202F
:10049000002100F08BF917EB00094E41201EA4F15A
:1004A0000104DFDC484631462A464346BDE8F09F5A
:1004B0000029A8BF7047401C490008BF20F0010078
:1004C000704710B4B0FA80FC00FA0CF050EA010456
:1004D00004BF10BC704749B1CCF1200421FA04F4E8
:1004E00011FA0CF118BF012121430843A3EB0C01C1
:1004F000CB1D4FEA00614FEA102042BF002010BC24
:10050000704700EBC35010440029A4BF10BC7047D3
:10051000401C490008BF20F0010010BC704710B516
:10052000141E73F1000408DA401C41F10001921816
:100530005B411A4301D120F0010010BD2DE9F04DBF
:1005400092469B4611B1B1FA81F202E0B0FA80F214
:100550002032904600F02AF904460F4640EA0A008D
:1005600041EA0B0153465A46084313D0114653EA59
:10057000010019D0C8F14002504600F026F90546A6
:100580000E4650465946424600F010F9084305D041
:10059000012004E020463946BDE8F08D00200543E7
:1005A00046EAE0762C4337430A986305E40AA0EB59
:1005B00008000022FD0A44EA47540A3002D5002010
:1005C0000146E9E7010510196941DDE9084500190F
:1005D0006941BDE8F04DA2E72DE9FE4F804681EA72
:1005E0000300C00F0C46009021F0004123F00045AD
:1005F000B8EB0200A94105D24046214690461C4670
:100600000B46024623F00040104347D0270DC7F3A6
:100610000A00C3F30A510290401A019040286BDA95
:10062000C3F3130040F4801B0098924620B10023CE
:10063000D2EB030A63EB0B0B01985946C0F1400261
:10064000504600F0B3F806460D4650465946019A0A
:1006500000F0CBF810EB08006141002487EA11524A
:1006600084EAE7731A4340D0009A62B3019A012AE0
:100670004FEA075215DC001B61EB02014FF000420C
:1006800002EA0752CDE90042001C41F580113246D2
:100690002B46FFF753FF03B0BDE8F08F40462146DD
:1006A000F9E7001B61EB0201001C41F58013001803
:1006B0005B412018A2F5001747EB030140EAD57013
:1006C000B6196D4111E06D084FEA360645EAC0756E
:1006D0004FEA0752001B61EB0201001C41F580113B
:1006E00049084FEA30000019514132462B4603B009
:1006F000BDE8F04FFFF713BF009801224000002330
:10070000D0EB020263EBE073009821464FEAE074FD
:10071000B8EB000061EB0401E9E783F000435BE71D
:1007200081F0004158E7C1F30A52C1F3130140F2CE
:10073000FF3341F480119A4202DA002001467047EB
:1007400040F233439A42A2F2334202DC524200F0BA
:100750003CB800F02BB8000030B5041E71F1000465
:1007600004DB4FF00044404264EB0101141E73F1BE
:10077000000405DB1C464FF00043524263EB0403C8
:10078000994208BF904230BD064C074D06E0E06834
:1007900040F0010394E8070098471034AC42F6D3C8
:1007A000FFF708FDDC1B0008FC1B0008202A04DB07
:1007B000203A00FA02F1002070479140C2F1200374
:1007C00020FA03F3194390407047202A04DB203AB3
:1007D00021FA02F00021704721FA02F3D040C2F161
:1007E00020029140084319467047202A06DBCB17A8
:1007F000203A41FA02F043EAE07306E041FA02F3DC
:10080000D040C2F12002914008431946704721B1FF
:10081000826842F00102826003E0826822F00102F5
:10082000826070470021084A1168084A1140D0E9E7
:1008300000231A4383681A43C3681A431143044AC6
:10084000C2F804137047000004230140E030FCFFAD
:100850000020014021B1826842F48072826003E08E
:10086000826822F4807282607047000030B50246D0
:10087000002000235068104C20400D790C6844EA99
:1008800005242043506090680C4C2040D1E903546B
:100890002C438D682C434D7944EA450420439060F5
:1008A000D06A20F470000C7D641EE4B2234340EA59
:1008B0000350D06230BD0000FFFEFFFCFDF7FFC01B
:1008C00038B10849096841F40051074AC2F80413D5
:1008D00006E00449096821F40051034AC2F80413F0
:1008E000704700000423014000200140F0B5044699
:1008F0000D4600200021092D11DDE068A5F10A0652
:1009000006EB4607072606FA07F18843A5F10A0613
:1009100006EB460603FA06F10843E0600CE02069A6
:1009200005EB4507072606FA07F1884305EB450660
:1009300003FA06F108432061072A0FDA606B561E9E
:1009400006EB86071F2606FA07F18843561E06EBBC
:10095000860605FA06F10843606322E00D2A0FDAE5
:10096000206BD61F06EB86071F2606FA07F1884381
:10097000D61F06EB860605FA06F10843206310E051
:10098000E06AA2F10D0606EB86071F2606FA07F1BC
:100990008843A2F10D0606EB860605FA06F1084328
:1009A000E062F0BD816841F08041816070470021C4
:1009B0000160017141718160C160016101210175B6
:1009C000704700BFFEE721B1026842F001020260F9
:1009D00003E0026822F001020260704710B50022B5
:1009E0000268134B1A40CC680B6823434C692343BD
:1009F0008C692343CC6923430C6A23434C6A234309
:100A00008C6A23434C6B23438C6B23431A43026051
:100A1000426922F00702D1E90B3423431A434261B1
:100A20000B6943604B6883608B68C36010BD000036
:100A30003F801CF07047000000B587B001210846D8
:100A400000F0C0F80121102000F0CCF800208DF853
:100A50001A0001208DF81B0002208DF819008DF876
:100A600018000002059005A9174800F03AF8022086
:100A70008DF818004002059005A9134800F031F8E0
:100A800007220A21104800F074F8072209210E48B5
:100A900000F06FF84FF4E13001900020ADF808004D
:100AA000ADF80A00ADF80C00ADF810000C20ADF860
:100AB0000E0001A9054800F0BBFA0121034800F02F
:100AC0009DFA07B000BD0000000002400010014088
:100AD00001B502E00098401E009000980028F9D16E
:100AE00008BDF0B50A4600210023002400BF3DE008
:100AF000012505FA01F3156805EA03049C4234D187
:100B000005684F000326BE40B543056015794E00C9
:100B1000B5400668354305601579012D02D0157979
:100B2000022D16D185684F000326BE40B54385606F
:100B300055794E00B5408668354385604568012685
:100B40008E40B5434560456896798E40B6B23543D0
:100B50004560C5684F000326BE40B543C560D579E2
:100B60004E00B540C6683543C560491C1029BFD347
:100B7000F0BDF0B5002300244D07ED0E02FA05F399
:100B8000CE1000F1200555F826504E07F70E0F261F
:100B9000BE40B543CF1000F1200646F82750CE10D6
:100BA00000F1200555F8265045EA0304CE1000F167
:100BB000200545F82640F0BD00BFFEE700BFFEE778
:100BC0007047704729B1064A12680243044B1A6005
:100BD00004E0034A12688243014B1A607047000028
:100BE0003038024029B1064A12680243044B1A60A9
:100BF00004E0034A12688243014B1A607047000008
:100C000044380240F0B500210022002402250026CD
:100C10000223324F3F6807F00C0121B1042905D0AF
:100C2000082937D105E02E4F076036E02D4F0760C9
:100C300033E02A4F3F1F3F68C7F38056274F3F1FBF
:100C40003F6807F03F036EB1264FB7FBF3F7DFF8BD
:100C50008CC0ACF1040CDCF800C0CCF3881C07FBA2
:100C60000CF40CE01E4FB7FBF3F7DFF870C0ACF1EB
:100C7000040CDCF800C0CCF3881C07FB0CF4174F05
:100C80003F1F3F68C7F301477F1C7D00B4FBF5F7AA
:100C9000076002E0124F076000BF00BF0F4F3F68C0
:100CA00007F0F0010909104F7A5C0768D7404760E8
:100CB0000A4F3F6807F4E051890A0B4F7A5C476896
:100CC000D7408760054F3F6807F46041490B064FE6
:100CD0007A5C4768D740C760F0BD00000838024022
:100CE0000024F40040787D01000000201CB50121A3
:100CF0000420FFF767FF0820009003208DF8040010
:100D000000208DF8070069460148FFF7EAFE1CBD88
:100D10000008024000B599B001218805FFF752FF95
:100D20003E480B903E480C9000200D9003200E9002
:100D300000200F904FF48060109080001190800090
:100D40001290801113904002149000201590012001
:100D500016900020179018900A900AA93148FFF7C2
:100D60003DFE01212F48FFF72EFE01214FF4E060E8
:100D7000FFF738FF172000904FF4803001904010AB
:100D800002904FF4706003906846FFF74BFD04A893
:100D9000FFF70DFE002004908DF8140001208DF85F
:100DA0001500002006900790089001208DF824007F
:100DB00004A91D48FFF75AFD04A91C48FFF756FD7A
:100DC00004A91B48FFF752FD002301220D211648FC
:100DD000FFF78CFD002301220D211448FFF786FD4B
:100DE000002301220D211248FFF780FD0120FFF7AB
:100DF00067FD01210C48FFF72DFD01210A48FFF78F
:100E000006FD01210948FFF702FD01210848FFF70F
:100E1000FEFC0548FFF7C6FD19B000BD08230140E0
:100E20002400002010640240002001400021014005
:100E30000022014010B5FFF759FFFFF76BFF10BD0F
:100E4000704700000CB500200190009041480068F8
:100E500040F480303F49086000BF3E48006800F41D
:100E6000003000900198401C0190009818B901983A
:100E7000B0F5A04FF1D13748006800F4003010B150
:100E80000120009001E0002000900098012860D12E
:100E900030484030006840F080502E4940310860B2
:100EA0002D48006840F440402B490860294808302C
:100EB00000682849083108600846006840F400408E
:100EC00008600846006840F4A05008602348091FE5
:100ED0000860081F006840F08070091F086000BFAC
:100EE0001C48006800F000700028F9D01A4800681B
:100EF00040F480301849086000BF1748406800F48B
:100F000080300028F9D01448006840F400301249BD
:100F1000086000BF1048406800F400300028F9D095
:100F200040F205700E4908600A480830006820F059
:100F300003000849083108600846006840F00200D4
:100F4000086000BF03480830006800F00C00082863
:100F5000F8D10CBD0038024000700040195A40071B
:100F6000003C024010B500F03DF80348006880F4F2
:100F700080600149086010BD141C024010B515487E
:100F8000006840F47000134908601348006840F09E
:100F900001001149086000200F49083108600E481F
:100FA00000680E4908400C4908600D48091D08609A
:100FB000081F006820F48020091F086000200649EF
:100FC0000C310860FFF73EFF4FF0006001498039A7
:100FD000086010BD88ED00E000380240FFFFF6FE1B
:100FE000103000240448006820B103480068401E07
:100FF00001490860704700001000002021B182897B
:1010000042F40052828104E082894DF6FF731A4057
:101010008281704702460020B1F5007F00D100BFF9
:1010200013880B400BB1012000E000207047000046
:101030002DE9FF4705460E460024A14600BFA04605
:10104000B08900B100BF2C8A24F44054F0880443D6
:101050002C82AC8941F20C608443B088318908430A
:10106000718908430443AC81AC8A24F44074B0898C
:101070000443AC826846FFF7C5FD2048854202D094
:101080001F48854202D1DDF80C9001E0DDF80890A0
:10109000A88900F4004040B109EBC90000EB091039
:1010A00031684900B0FBF1F707E009EBC90000EB3C
:1010B000091031688900B0FBF1F76420B7FBF0F04C
:1010C00004012009642101FB1078A88900F4004084
:1010D00040B1322000EBC800B0FBF1F000F0070097
:1010E000044308E0322000EB08106421B0FBF1F06B
:1010F00000F00F0004432C81BDE8FF870010014081
:1011000000140140C1F308028280704700BFFEE76F
:101110000FB4054B10B503A9044A029800F0DAF8A1
:1011200010BC5DF814FB0000DD190008140000205D
:1011300002E008C8121F08C1002AFAD170477047A0
:10114000002001E001C1121F002AFBD170470000FE
:101150002DE9FF5F82B00021DDE90430020DDDF8EA
:1011600040B0034318D044F61050A2F2FF3242437D
:101170001514119801281FD0A5EB0B00401C5FEA45
:10118000000A4FF000064E4FDFF83891B046504647
:1011900015D5CAF1000413E0119801244AA30128CF
:1011A00001D16FEA0B010298119AC0E90031C0E940
:1011B000024206B0BDE8F09FCBF10000DFE7044635
:1011C0000021404A491842EB0450CDE9001012E0DA
:1011D000E00707D032463B4640464946FFF704F851
:1011E0008046894632463B4610461946FEF7FCFFCC
:1011F00006460F466410002CEAD1DDE90401DDE962
:101200000023BAF1000F06DAFEF7EEFF42464B4626
:10121000FEF7EAFF05E0FFF759F842464B46FFF7B5
:1012200055F804460E460022284BFFF795FA03D8DE
:101230004FF0FF30014607E00022254B20463146A3
:10124000FFF7CAF9FFF76FFA102409E0002C0ADB58
:101250000A220023FFF7FBF8039B30321A55641E65
:1012600050EA0102F2D1641C039AC4F11103144440
:10127000119A012A03D0012208430DD10AE0084344
:1012800004D000204FF0110B119072E7A3EB0B0577
:101290006D1E0DE05B4504DD4FF0000205F1010518
:1012A00004E003DA4FF00002A5F10105002AECD0BA
:1012B00002981199C0E90231C0E9004579E70000C0
:1012C000000014400000F03F300000000000F04338
:1012D0000000E03F2DE9FF4F95B09A46884606464C
:1012E0000025EEE1252877D100242746F94A01217F
:1012F000039400E0044316F8013F203B01FA03F099
:101300001042F7D130782A2811D06FF02F033078AF
:10131000A0F13002092A16D8039A44F0020402EB25
:10132000820203EB42021044761C0390EFE758F868
:10133000042B0392002A03DA504244F40054039031
:1013400044F00204761C30782E2816D116F8010FCE
:1013500044F004042A280DD06FF02F023078A0F159
:101360003003092B09D807EB870302EB4303C718A7
:10137000761CF3E758F8047B761C30786C280FD085
:1013800006DC4C2817D068280DD06A2814D104E058
:10139000742810D07A280FD10DE044F400140AE02C
:1013A00044F4801401E044F440147278824202D183
:1013B00004F58014761C761C307866280BD013DC7C
:1013C000582877D009DC002875D04528F6D0462863
:1013D000F4D047281AD193E118E0632835D0642867
:1013E00079D0652812D18BE1702873D008DC67288A
:1013F000F1D069286FD06E280DD06F2806D1ACE0EF
:1014000073282CD0752874D0782853D05246179959
:1014100090476D1C54E1C4F30250022809D0032800
:101420000DD0D8F8001004280DD00D6008F1040884
:1014300046E1D8F80010EA17C1E90052F6E7D8F8FB
:1014400000100D80F2E70D70F0E718F8041B8DF81E
:10145000001000208DF80100EB46012003E058F851
:1014600004BB4FF0FF3061074FF0000102D40DE0E4
:1014700009F101018946B9420FDA8145F8DB1BF811
:1014800009100029F4D108E009F1010189468142DF
:10149000FADB1BF809100029F6D103985346A0EB9C
:1014A000090721463846179A00F080FA284400EBD5
:1014B000090507E044E008E10DE01BF8010B524686
:1014C00017999047B9F10109F7D25346214638469A
:1014D000179AF2E039E00A21C4F302524FF0000BF0
:1014E0000091022A06D058F8040BC117032A09D02C
:1014F0000AE023E008F1070020F00702F2E8020109
:10150000904605E000B2C117042A01D140B2C117CC
:10151000002906DA0A460021404261EB02012D2231
:1015200002E0220504D52B228DF80420012203E0DD
:10153000E20701D02022F7E7914657E00A2100E0B8
:1015400010214FF0000B00910BE010214FF0000B29
:1015500044F004040827009103E008204FF0000B3A
:101560000090C4F30252022A05D058F8040B00215F
:10157000032A08D008E008F1070020F00702F2E88B
:101580000201904603E080B2042A00D1C0B24FF0BD
:10159000000922072AD53278702A07D0DDF800C06A
:1015A0008CF0100C5CEA0B0C05D00EE040228DF89C
:1015B0000420012208E050EA010306D030238DF810
:1015C00004308DF8052002229146009B83F0080329
:1015D00053EA0B030AD150EA010201D1620705D593
:1015E00030228DF804204FF001097F1E3278582AEE
:1015F00004D039A20C920CAA02920BE03BA2F9E7AC
:101600005B46009AFEF723FF0C9B9B5C029A521EDE
:101610000292137050EA0102F2D1029804A9081A4A
:1016200000F1200B600702D524F4803400E001278C
:101630005F4502DDA7EB0B0000E0002000EB0B0193
:10164000009003984944401A0390E00306D453469F
:101650002146179A039800F0A9F90544002706E0EF
:1016600001A85246C05D179990476D1C7F1C4F45DD
:10167000F6DBE0030CD553462146179A039800F099
:1016800095F9054404E030205246179990476D1CA7
:101690000099481E00900029F5DC08E002980299A4
:1016A00052460078491C0291179990476D1CBBF176
:1016B0000001ABF1010BF1DC5BE100F065F90544E1
:1016C000761C307800287FF40DAE19B02846BDE8AE
:1016D000F08F0000092801003031323334353637BD
:1016E000383961626364656600000000303132336E
:1016F000343536373839414243444546000000000E
:10170000600700D4062708F1070020F00700F0E882
:101710000223804603F0004C5FEA0C0001D097A042
:1017200009E0200501D596A005E0E00701D095A0CD
:1017300001E0AFF24C001390307823F000436528AD
:101740000CD006DC452809D046281DD047287FD17B
:101750003BE0662818D067287AD136E00021112FA7
:1017600001DB112000E0781CCDE9000104A90CA8E0
:10177000FFF7EEFCDDE90D010C9A4FF0000B07F1CD
:101780000109109200914EE04FF000400097CDE922
:10179000011004A90CA8FFF7DBFCDDE90D020C9B8E
:1017A0000F994FF0000B91461093009211B9791CDC
:1017B00000EB0109B7EB090003D4C0F1FF3B07F1CF
:1017C0000109A9EB0700019042E0012F00DA01278F
:1017D0000021112F01DD112000E03846CDE9000184
:1017E00004A90CA8FFF7B4FCDDE90D010C9A0091E7
:1017F0004FF0000BB946109221070FD4009A4A45CA
:1018000003DA914601E0A9F10109B9F1010F05DD03
:10181000109AA9F10101515C3029F4D0B84202DAE2
:1018200010F1040F03DA0121CDE9011010E00028C6
:1018300003DC8344A9EB000102E0411C494500DDC3
:101840008946A0EB0B00401C01904FF00040029035
:10185000200705D40198484502DB4FF0FF30019086
:1018600000208DF84B0002980DF14B07B0F1004FAE
:1018700025D002200C902B200D90029800280CDA25
:10188000404202902D200D9007E00A210298FEF7B9
:10189000C8FD3031029007F8011D0C99481E0C90CC
:1018A0000029F2DC02980028EFD1791E0D9808700B
:1018B000307800F0200040F0450007F8020D11A834
:1018C000C01BC01D02901398007800B1012000EBEE
:1018D0000901019801EBE071029801440398401A54
:1018E000401E0390E00306D453462146179A0398FE
:1018F00000F05CF805441398007818B15246179927
:1019000090476D1CE00323D553462146179A039850
:1019100000F04CF805441BE0BBF1000F07DB00981A
:10192000584504DD1098179910F80B0001E017993D
:1019300030205246904701980BF1010B401E05F1F3
:101940000105019004D12E205246179990476D1C35
:10195000B9F10001A9F10109DEDC05E017F8010B7E
:101960005246179990476D1C0299481E0290002913
:10197000F4DC53462146179A03989EE62D0000009A
:101980002B000000200000002DE9F0410446002556
:101990001E461746880404D405E039462020B04787
:1019A0006D1C641EF9D52846BDE8F0812DE9F04193
:1019B000044600251E469046C80301D5302700E0A6
:1019C0002027880404D505E041463846B0476D1C01
:1019D000641EF9D52846BDE8F081000070B50446C4
:1019E0000D46E1B20548FFF78DFB00BF802103489B
:1019F000FFF710FB0028F9D0204670BD0010014011
:101A00002DED068BFFF718F8FFF714FA8FE0484822
:101A1000FFF75EF84749096888B2FEF7C6FC41EC5B
:101A20001A0B9FED450B53EC102BFEF7DDFB41EC41
:101A3000190B9FED430B53EC102BFEF747FC41ECC9
:101A4000180BFEF7D2FC404908603A49496888B251
:101A5000FEF7ABFC41EC1A0B9FED370B53EC102B50
:101A6000FEF7C2FB41EC190B9FED350B53EC102B2D
:101A7000FEF72CFC41EC180BFEF7B7FC324948602E
:101A80002C49896888B2FEF790FC41EC1A0B9FED57
:101A90002A0B53EC102BFEF7A7FB41EC190B9FED23
:101AA000280B53EC102BFEF711FC41EC180BFEF742
:101AB0009CFC254988601F48016824A0FFF728FB8B
:101AC0001C48416821A0FFF723FB1A4881681FA02A
:101AD000FFF71EFB1C4890ED000A10EE101A084696
:101AE000FEF770FC41EC180B53EC182B20A0FFF70D
:101AF0000FFB154890ED010A10EE101A0846FEF78C
:101B000061FC41EC180B53EC182B22A0FFF700FBF3
:101B10000D4890ED020A10EE101A0846FEF752FC2E
:101B200041EC180B53EC182B23A0FFF7F1FA6EE7EA
:101B3000EEFFFF00240000206666666666660A40C7
:101B4000000000000000B040180000200D0A2054E2
:101B500068652063757272656E74204144207661F9
:101B60006C7565203D20307825303858200D0A00EE
:101B70000D0A205468652063757272656E74204189
:101B80004443312076616C7565203D2025662056E2
:101B9000200D0A000D0A2054686520637572726575
:101BA0006E7420414443322076616C7565203D207F
:101BB00025662056200D0A000D0A20546865206312
:101BC000757272656E7420414443332076616C7582
:101BD00065203D2025662056200D0A00FC1B0008CC
:101BE000000000201800000030110008141C00083C
:101BF0001800002018040000401100080000000038
:101C000001020304010203040607080900000000A2
:041C100000000000D0
:04000005080001AD41
:00000001FF
